{
  "_format": "hh-sol-artifact-1",
  "contractName": "BOACoinBridge",
  "sourceName": "contracts/bridge/BOACoinBridge.sol",
  "abi": [
    {
      "inputs": [
        {
          "internalType": "uint256",
          "name": "_timeLock",
          "type": "uint256"
        },
        {
          "internalType": "address",
          "name": "_feeManagerAddress",
          "type": "address"
        },
        {
          "internalType": "bool",
          "name": "_collectFee",
          "type": "bool"
        }
      ],
      "stateMutability": "nonpayable",
      "type": "constructor"
    },
    {
      "anonymous": false,
      "inputs": [
        {
          "indexed": false,
          "internalType": "uint256",
          "name": "_timeLock",
          "type": "uint256"
        }
      ],
      "name": "ChangeTimeLock",
      "type": "event"
    },
    {
      "anonymous": false,
      "inputs": [
        {
          "indexed": false,
          "internalType": "bytes32",
          "name": "_boxID",
          "type": "bytes32"
        },
        {
          "indexed": false,
          "internalType": "bytes",
          "name": "_secretKey",
          "type": "bytes"
        }
      ],
      "name": "CloseDeposit",
      "type": "event"
    },
    {
      "anonymous": false,
      "inputs": [
        {
          "indexed": false,
          "internalType": "bytes32",
          "name": "_boxID",
          "type": "bytes32"
        },
        {
          "indexed": false,
          "internalType": "bytes",
          "name": "_secretKey",
          "type": "bytes"
        }
      ],
      "name": "CloseWithdraw",
      "type": "event"
    },
    {
      "anonymous": false,
      "inputs": [
        {
          "indexed": false,
          "internalType": "address",
          "name": "provider",
          "type": "address"
        },
        {
          "indexed": false,
          "internalType": "uint256",
          "name": "amount",
          "type": "uint256"
        }
      ],
      "name": "DecreasedLiquidity",
      "type": "event"
    },
    {
      "anonymous": false,
      "inputs": [
        {
          "indexed": false,
          "internalType": "bytes32",
          "name": "_boxID",
          "type": "bytes32"
        }
      ],
      "name": "ExpireDeposit",
      "type": "event"
    },
    {
      "anonymous": false,
      "inputs": [
        {
          "indexed": false,
          "internalType": "bytes32",
          "name": "_boxID",
          "type": "bytes32"
        }
      ],
      "name": "ExpireWithdraw",
      "type": "event"
    },
    {
      "anonymous": false,
      "inputs": [
        {
          "indexed": false,
          "internalType": "address",
          "name": "provider",
          "type": "address"
        },
        {
          "indexed": false,
          "internalType": "uint256",
          "name": "amount",
          "type": "uint256"
        }
      ],
      "name": "IncreasedLiquidity",
      "type": "event"
    },
    {
      "anonymous": false,
      "inputs": [
        {
          "indexed": false,
          "internalType": "bytes32",
          "name": "_boxID",
          "type": "bytes32"
        },
        {
          "indexed": false,
          "internalType": "bytes32",
          "name": "_secretLock",
          "type": "bytes32"
        }
      ],
      "name": "OpenDeposit",
      "type": "event"
    },
    {
      "anonymous": false,
      "inputs": [
        {
          "indexed": false,
          "internalType": "bytes32",
          "name": "_boxID",
          "type": "bytes32"
        },
        {
          "indexed": false,
          "internalType": "bytes32",
          "name": "_secretLock",
          "type": "bytes32"
        }
      ],
      "name": "OpenWithdraw",
      "type": "event"
    },
    {
      "anonymous": false,
      "inputs": [
        {
          "indexed": true,
          "internalType": "address",
          "name": "previousOwner",
          "type": "address"
        },
        {
          "indexed": true,
          "internalType": "address",
          "name": "newOwner",
          "type": "address"
        }
      ],
      "name": "OwnershipTransferred",
      "type": "event"
    },
    {
      "anonymous": false,
      "inputs": [
        {
          "indexed": true,
          "internalType": "bytes32",
          "name": "role",
          "type": "bytes32"
        },
        {
          "indexed": true,
          "internalType": "bytes32",
          "name": "previousAdminRole",
          "type": "bytes32"
        },
        {
          "indexed": true,
          "internalType": "bytes32",
          "name": "newAdminRole",
          "type": "bytes32"
        }
      ],
      "name": "RoleAdminChanged",
      "type": "event"
    },
    {
      "anonymous": false,
      "inputs": [
        {
          "indexed": true,
          "internalType": "bytes32",
          "name": "role",
          "type": "bytes32"
        },
        {
          "indexed": true,
          "internalType": "address",
          "name": "account",
          "type": "address"
        },
        {
          "indexed": true,
          "internalType": "address",
          "name": "sender",
          "type": "address"
        }
      ],
      "name": "RoleGranted",
      "type": "event"
    },
    {
      "anonymous": false,
      "inputs": [
        {
          "indexed": true,
          "internalType": "bytes32",
          "name": "role",
          "type": "bytes32"
        },
        {
          "indexed": true,
          "internalType": "address",
          "name": "account",
          "type": "address"
        },
        {
          "indexed": true,
          "internalType": "address",
          "name": "sender",
          "type": "address"
        }
      ],
      "name": "RoleRevoked",
      "type": "event"
    },
    {
      "inputs": [],
      "name": "DEFAULT_ADMIN_ROLE",
      "outputs": [
        {
          "internalType": "bytes32",
          "name": "",
          "type": "bytes32"
        }
      ],
      "stateMutability": "view",
      "type": "function"
    },
    {
      "inputs": [],
      "name": "MANAGER_ROLE",
      "outputs": [
        {
          "internalType": "bytes32",
          "name": "",
          "type": "bytes32"
        }
      ],
      "stateMutability": "view",
      "type": "function"
    },
    {
      "inputs": [
        {
          "internalType": "address",
          "name": "account",
          "type": "address"
        }
      ],
      "name": "addManager",
      "outputs": [],
      "stateMutability": "nonpayable",
      "type": "function"
    },
    {
      "inputs": [
        {
          "internalType": "address",
          "name": "_provider",
          "type": "address"
        }
      ],
      "name": "balanceOfLiquidity",
      "outputs": [
        {
          "internalType": "uint256",
          "name": "amount",
          "type": "uint256"
        }
      ],
      "stateMutability": "view",
      "type": "function"
    },
    {
      "inputs": [
        {
          "internalType": "uint256",
          "name": "_timeLock",
          "type": "uint256"
        }
      ],
      "name": "changeTimeLock",
      "outputs": [],
      "stateMutability": "nonpayable",
      "type": "function"
    },
    {
      "inputs": [
        {
          "internalType": "bytes32",
          "name": "_boxID",
          "type": "bytes32"
        }
      ],
      "name": "checkDeposit",
      "outputs": [
        {
          "internalType": "enum BOACoinBridge.States",
          "name": "states",
          "type": "uint8"
        },
        {
          "internalType": "uint256",
          "name": "timeLock",
          "type": "uint256"
        },
        {
          "internalType": "uint256",
          "name": "amount",
          "type": "uint256"
        },
        {
          "internalType": "uint256",
          "name": "swapFee",
          "type": "uint256"
        },
        {
          "internalType": "uint256",
          "name": "txFee",
          "type": "uint256"
        },
        {
          "internalType": "address",
          "name": "traderAddress",
          "type": "address"
        },
        {
          "internalType": "address",
          "name": "withdrawAddress",
          "type": "address"
        },
        {
          "internalType": "bytes32",
          "name": "secretLock",
          "type": "bytes32"
        },
        {
          "internalType": "uint256",
          "name": "createTimestamp",
          "type": "uint256"
        }
      ],
      "stateMutability": "view",
      "type": "function"
    },
    {
      "inputs": [
        {
          "internalType": "bytes32",
          "name": "_boxID",
          "type": "bytes32"
        }
      ],
      "name": "checkSecretKeyDeposit",
      "outputs": [
        {
          "internalType": "bytes",
          "name": "secretKey",
          "type": "bytes"
        }
      ],
      "stateMutability": "view",
      "type": "function"
    },
    {
      "inputs": [
        {
          "internalType": "bytes32",
          "name": "_boxID",
          "type": "bytes32"
        }
      ],
      "name": "checkSecretKeyWithdraw",
      "outputs": [
        {
          "internalType": "bytes",
          "name": "secretKey",
          "type": "bytes"
        }
      ],
      "stateMutability": "view",
      "type": "function"
    },
    {
      "inputs": [
        {
          "internalType": "bytes32",
          "name": "_boxID",
          "type": "bytes32"
        }
      ],
      "name": "checkWithdraw",
      "outputs": [
        {
          "internalType": "enum BOACoinBridge.States",
          "name": "states",
          "type": "uint8"
        },
        {
          "internalType": "uint256",
          "name": "timeLock",
          "type": "uint256"
        },
        {
          "internalType": "uint256",
          "name": "amount",
          "type": "uint256"
        },
        {
          "internalType": "uint256",
          "name": "swapFee",
          "type": "uint256"
        },
        {
          "internalType": "uint256",
          "name": "txFee",
          "type": "uint256"
        },
        {
          "internalType": "address",
          "name": "traderAddress",
          "type": "address"
        },
        {
          "internalType": "address",
          "name": "withdrawAddress",
          "type": "address"
        },
        {
          "internalType": "bytes32",
          "name": "secretLock",
          "type": "bytes32"
        },
        {
          "internalType": "uint256",
          "name": "createTimestamp",
          "type": "uint256"
        }
      ],
      "stateMutability": "view",
      "type": "function"
    },
    {
      "inputs": [
        {
          "internalType": "bytes32",
          "name": "_boxID",
          "type": "bytes32"
        },
        {
          "internalType": "bytes",
          "name": "_secretKey",
          "type": "bytes"
        }
      ],
      "name": "closeDeposit",
      "outputs": [],
      "stateMutability": "nonpayable",
      "type": "function"
    },
    {
      "inputs": [
        {
          "internalType": "bytes32",
          "name": "_boxID",
          "type": "bytes32"
        },
        {
          "internalType": "bytes",
          "name": "_secretKey",
          "type": "bytes"
        }
      ],
      "name": "closeWithdraw",
      "outputs": [],
      "stateMutability": "nonpayable",
      "type": "function"
    },
    {
      "inputs": [
        {
          "internalType": "uint256",
          "name": "_amount",
          "type": "uint256"
        }
      ],
      "name": "decreaseLiquidity",
      "outputs": [],
      "stateMutability": "nonpayable",
      "type": "function"
    },
    {
      "inputs": [
        {
          "internalType": "bytes32",
          "name": "_boxID",
          "type": "bytes32"
        }
      ],
      "name": "expireDeposit",
      "outputs": [],
      "stateMutability": "nonpayable",
      "type": "function"
    },
    {
      "inputs": [
        {
          "internalType": "bytes32",
          "name": "_boxID",
          "type": "bytes32"
        }
      ],
      "name": "expireWithdraw",
      "outputs": [],
      "stateMutability": "nonpayable",
      "type": "function"
    },
    {
      "inputs": [
        {
          "internalType": "bytes32",
          "name": "role",
          "type": "bytes32"
        }
      ],
      "name": "getRoleAdmin",
      "outputs": [
        {
          "internalType": "bytes32",
          "name": "",
          "type": "bytes32"
        }
      ],
      "stateMutability": "view",
      "type": "function"
    },
    {
      "inputs": [
        {
          "internalType": "bytes32",
          "name": "role",
          "type": "bytes32"
        },
        {
          "internalType": "address",
          "name": "account",
          "type": "address"
        }
      ],
      "name": "grantRole",
      "outputs": [],
      "stateMutability": "nonpayable",
      "type": "function"
    },
    {
      "inputs": [
        {
          "internalType": "bytes32",
          "name": "role",
          "type": "bytes32"
        },
        {
          "internalType": "address",
          "name": "account",
          "type": "address"
        }
      ],
      "name": "hasRole",
      "outputs": [
        {
          "internalType": "bool",
          "name": "",
          "type": "bool"
        }
      ],
      "stateMutability": "view",
      "type": "function"
    },
    {
      "inputs": [],
      "name": "increaseLiquidity",
      "outputs": [],
      "stateMutability": "payable",
      "type": "function"
    },
    {
      "inputs": [
        {
          "internalType": "address",
          "name": "account",
          "type": "address"
        }
      ],
      "name": "isManager",
      "outputs": [
        {
          "internalType": "bool",
          "name": "",
          "type": "bool"
        }
      ],
      "stateMutability": "view",
      "type": "function"
    },
    {
      "inputs": [
        {
          "internalType": "address",
          "name": "",
          "type": "address"
        }
      ],
      "name": "liquidBalance",
      "outputs": [
        {
          "internalType": "uint256",
          "name": "",
          "type": "uint256"
        }
      ],
      "stateMutability": "view",
      "type": "function"
    },
    {
      "inputs": [
        {
          "internalType": "bytes32",
          "name": "_boxID",
          "type": "bytes32"
        },
        {
          "internalType": "uint256",
          "name": "_swapFee",
          "type": "uint256"
        },
        {
          "internalType": "uint256",
          "name": "_txFee",
          "type": "uint256"
        },
        {
          "internalType": "address payable",
          "name": "_withdrawAddress",
          "type": "address"
        },
        {
          "internalType": "bytes32",
          "name": "_secretLock",
          "type": "bytes32"
        }
      ],
      "name": "openDeposit",
      "outputs": [],
      "stateMutability": "payable",
      "type": "function"
    },
    {
      "inputs": [
        {
          "internalType": "bytes32",
          "name": "_boxID",
          "type": "bytes32"
        },
        {
          "internalType": "uint256",
          "name": "_amount",
          "type": "uint256"
        },
        {
          "internalType": "uint256",
          "name": "_swapFee",
          "type": "uint256"
        },
        {
          "internalType": "uint256",
          "name": "_txFee",
          "type": "uint256"
        },
        {
          "internalType": "address payable",
          "name": "_traderAddress",
          "type": "address"
        },
        {
          "internalType": "address payable",
          "name": "_withdrawAddress",
          "type": "address"
        },
        {
          "internalType": "bytes32",
          "name": "_secretLock",
          "type": "bytes32"
        }
      ],
      "name": "openWithdraw",
      "outputs": [],
      "stateMutability": "nonpayable",
      "type": "function"
    },
    {
      "inputs": [],
      "name": "owner",
      "outputs": [
        {
          "internalType": "address",
          "name": "",
          "type": "address"
        }
      ],
      "stateMutability": "view",
      "type": "function"
    },
    {
      "inputs": [
        {
          "internalType": "address",
          "name": "account",
          "type": "address"
        }
      ],
      "name": "removeManager",
      "outputs": [],
      "stateMutability": "nonpayable",
      "type": "function"
    },
    {
      "inputs": [],
      "name": "renounceOwnership",
      "outputs": [],
      "stateMutability": "nonpayable",
      "type": "function"
    },
    {
      "inputs": [
        {
          "internalType": "bytes32",
          "name": "role",
          "type": "bytes32"
        },
        {
          "internalType": "address",
          "name": "account",
          "type": "address"
        }
      ],
      "name": "renounceRole",
      "outputs": [],
      "stateMutability": "nonpayable",
      "type": "function"
    },
    {
      "inputs": [
        {
          "internalType": "bytes32",
          "name": "role",
          "type": "bytes32"
        },
        {
          "internalType": "address",
          "name": "account",
          "type": "address"
        }
      ],
      "name": "revokeRole",
      "outputs": [],
      "stateMutability": "nonpayable",
      "type": "function"
    },
    {
      "inputs": [
        {
          "internalType": "bytes4",
          "name": "interfaceId",
          "type": "bytes4"
        }
      ],
      "name": "supportsInterface",
      "outputs": [
        {
          "internalType": "bool",
          "name": "",
          "type": "bool"
        }
      ],
      "stateMutability": "view",
      "type": "function"
    },
    {
      "inputs": [
        {
          "internalType": "address",
          "name": "newOwner",
          "type": "address"
        }
      ],
      "name": "transferOwnership",
      "outputs": [],
      "stateMutability": "nonpayable",
      "type": "function"
    }
  ],
  "bytecode": "0x60806040523480156200001157600080fd5b50604051620056ee380380620056ee833981810160405281019062000037919062000468565b620000576200004b6200016260201b60201c565b6200016a60201b60201c565b6200006c6000801b336200023060201b60201c565b620000ad7f241ecf16d79d0f8dbfb92cbc07fe17840425976cf0667f022fe9877caa831b08620000a16200016260201b60201c565b6200023060201b60201c565b620000e27f241ecf16d79d0f8dbfb92cbc07fe17840425976cf0667f022fe9877caa831b086000801b6200024660201b60201c565b600283620000f19190620004be565b6003819055508260048190555081600260006101000a81548173ffffffffffffffffffffffffffffffffffffffff021916908373ffffffffffffffffffffffffffffffffffffffff16021790555080600260146101000a81548160ff021916908315150217905550505050620005e6565b600033905090565b6000600160009054906101000a900473ffffffffffffffffffffffffffffffffffffffff16905081600160006101000a81548173ffffffffffffffffffffffffffffffffffffffff021916908373ffffffffffffffffffffffffffffffffffffffff1602179055508173ffffffffffffffffffffffffffffffffffffffff168173ffffffffffffffffffffffffffffffffffffffff167f8be0079c531659141344cd1fd0a4f28419497f9722a3daafe3b4186f6b6457e060405160405180910390a35050565b620002428282620002a960201b60201c565b5050565b600062000259836200039a60201b60201c565b905081600080858152602001908152602001600020600101819055508181847fbd79b86ffe0ab8e8776151514217cd7cacd52c909f66475c3af44e129f0b00ff60405160405180910390a4505050565b620002bb8282620003b960201b60201c565b6200039657600160008084815260200190815260200160002060000160008373ffffffffffffffffffffffffffffffffffffffff1673ffffffffffffffffffffffffffffffffffffffff16815260200190815260200160002060006101000a81548160ff0219169083151502179055506200033b6200016260201b60201c565b73ffffffffffffffffffffffffffffffffffffffff168173ffffffffffffffffffffffffffffffffffffffff16837f2f8788117e7eff1d82e926ec794901d17c78024a50270940304540a733656f0d60405160405180910390a45b5050565b6000806000838152602001908152602001600020600101549050919050565b600080600084815260200190815260200160002060000160008373ffffffffffffffffffffffffffffffffffffffff1673ffffffffffffffffffffffffffffffffffffffff16815260200190815260200160002060009054906101000a900460ff16905092915050565b600081519050620004348162000598565b92915050565b6000815190506200044b81620005b2565b92915050565b6000815190506200046281620005cc565b92915050565b6000806000606084860312156200047e57600080fd5b60006200048e8682870162000451565b9350506020620004a18682870162000423565b9250506040620004b4868287016200043a565b9150509250925092565b6000620004cb826200055f565b9150620004d8836200055f565b9250817fffffffffffffffffffffffffffffffffffffffffffffffffffffffffffffffff048311821515161562000514576200051362000569565b5b828202905092915050565b60006200052c826200053f565b9050919050565b60008115159050919050565b600073ffffffffffffffffffffffffffffffffffffffff82169050919050565b6000819050919050565b7f4e487b7100000000000000000000000000000000000000000000000000000000600052601160045260246000fd5b620005a3816200051f565b8114620005af57600080fd5b50565b620005bd8162000533565b8114620005c957600080fd5b50565b620005d7816200055f565b8114620005e357600080fd5b50565b6150f880620005f66000396000f3fe6080604052600436106101c25760003560e01c80637ad28c51116100f7578063ab7c01a411610095578063ec87621c11610064578063ec87621c14610671578063f2fde38b1461069c578063f3ae2415146106c5578063fefc632b14610702576101c2565b8063ab7c01a4146105a5578063ac18de43146105e2578063c7f7a1ba1461060b578063d547741f14610648576101c2565b806391d14854116100d157806391d14854146104d7578063a217fddf14610514578063a4f0abf11461053f578063a72fb5c014610568576101c2565b80637ad28c511461045a578063808b9327146104835780638da5cb5b146104ac576101c2565b806336568abe116101645780636849a3311161013e5780636849a331146103a55780636e840093146103ea578063715018a61461042757806375a10c531461043e576101c2565b806336568abe1461032a578063439c0e25146103535780634909ab9e1461037c576101c2565b8063248a9ca3116101a0578063248a9ca3146102565780632d06177a146102935780632d860f40146102bc5780632f2ff15d14610301576101c2565b806301ffc9a7146101c75780630843436d1461020457806316b999551461022d575b600080fd5b3480156101d357600080fd5b506101ee60048036038101906101e99190613d63565b61070c565b6040516101fb919061486d565b60405180910390f35b34801561021057600080fd5b5061022b60048036038101906102269190613cc5565b610786565b005b34801561023957600080fd5b50610254600480360381019061024f9190613b6c565b610ca2565b005b34801561026257600080fd5b5061027d60048036038101906102789190613b6c565b610e8f565b60405161028a9190614888565b60405180910390f35b34801561029f57600080fd5b506102ba60048036038101906102b59190613b43565b610eae565b005b3480156102c857600080fd5b506102e360048036038101906102de9190613b6c565b610f57565b6040516102f89998979695949392919061491e565b60405180910390f35b34801561030d57600080fd5b5061032860048036038101906103239190613bbe565b611171565b005b34801561033657600080fd5b50610351600480360381019061034c9190613bbe565b61119a565b005b34801561035f57600080fd5b5061037a60048036038101906103759190613d8c565b61121d565b005b34801561038857600080fd5b506103a3600480360381019061039e9190613bfa565b6113fe565b005b3480156103b157600080fd5b506103cc60048036038101906103c79190613b6c565b61198a565b6040516103e19998979695949392919061491e565b60405180910390f35b3480156103f657600080fd5b50610411600480360381019061040c9190613b43565b611ba4565b60405161041e9190614c6d565b60405180910390f35b34801561043357600080fd5b5061043c611bed565b005b61045860048036038101906104539190613c4e565b611c75565b005b34801561046657600080fd5b50610481600480360381019061047c9190613d8c565b6120f5565b005b34801561048f57600080fd5b506104aa60048036038101906104a59190613b6c565b612193565b005b3480156104b857600080fd5b506104c161256d565b6040516104ce9190614829565b60405180910390f35b3480156104e357600080fd5b506104fe60048036038101906104f99190613bbe565b612597565b60405161050b919061486d565b60405180910390f35b34801561052057600080fd5b50610529612601565b6040516105369190614888565b60405180910390f35b34801561054b57600080fd5b5061056660048036038101906105619190613bfa565b612608565b005b34801561057457600080fd5b5061058f600480360381019061058a9190613b43565b612af3565b60405161059c9190614c6d565b60405180910390f35b3480156105b157600080fd5b506105cc60048036038101906105c79190613b6c565b612b0b565b6040516105d991906148fc565b60405180910390f35b3480156105ee57600080fd5b5061060960048036038101906106049190613b43565b612d8c565b005b34801561061757600080fd5b50610632600480360381019061062d9190613b6c565b612e35565b60405161063f91906148fc565b60405180910390f35b34801561065457600080fd5b5061066f600480360381019061066a9190613bbe565b6130b6565b005b34801561067d57600080fd5b506106866130df565b6040516106939190614888565b60405180910390f35b3480156106a857600080fd5b506106c360048036038101906106be9190613b43565b613103565b005b3480156106d157600080fd5b506106ec60048036038101906106e79190613b43565b6131fb565b6040516106f9919061486d565b60405180910390f35b61070a61322e565b005b60007f7965db0b000000000000000000000000000000000000000000000000000000007bffffffffffffffffffffffffffffffffffffffffffffffffffffffff1916827bffffffffffffffffffffffffffffffffffffffffffffffffffffffff1916148061077f575061077e826132fe565b5b9050919050565b61078f336131fb565b6107ce576040517f08c379a00000000000000000000000000000000000000000000000000000000081526004016107c590614b8d565b60405180910390fd5b8660006003811115610809577f4e487b7100000000000000000000000000000000000000000000000000000000600052602160045260246000fd5b6008600083815260200190815260200160002060009054906101000a900460ff166003811115610862577f4e487b7100000000000000000000000000000000000000000000000000000000600052602160045260246000fd5b146108a2576040517f08c379a000000000000000000000000000000000000000000000000000000000815260040161089990614a8d565b60405180910390fd5b600060038111156108dc577f4e487b7100000000000000000000000000000000000000000000000000000000600052602160045260246000fd5b600860008a815260200190815260200160002060009054906101000a900460ff166003811115610935577f4e487b7100000000000000000000000000000000000000000000000000000000600052602160045260246000fd5b14610975576040517f08c379a000000000000000000000000000000000000000000000000000000000815260040161096c90614a8d565b60405180910390fd5b60006109818787613368565b90508781106109c5576040517f08c379a00000000000000000000000000000000000000000000000000000000081526004016109bc90614b2d565b60405180910390fd5b60006109d1898361337e565b905047811115610a16576040517f08c379a0000000000000000000000000000000000000000000000000000000008152600401610a0d90614b6d565b60405180910390fd5b600060405180610120016040528060045481526020018b81526020018a81526020018981526020018873ffffffffffffffffffffffffffffffffffffffff1681526020018773ffffffffffffffffffffffffffffffffffffffff168152602001868152602001600067ffffffffffffffff811115610abd577f4e487b7100000000000000000000000000000000000000000000000000000000600052604160045260246000fd5b6040519080825280601f01601f191660200182016040528015610aef5781602001600182028036833780820191505090505b50815260200142815250905080600760008d81526020019081526020016000206000820151816000015560208201518160010155604082015181600201556060820151816003015560808201518160040160006101000a81548173ffffffffffffffffffffffffffffffffffffffff021916908373ffffffffffffffffffffffffffffffffffffffff16021790555060a08201518160050160006101000a81548173ffffffffffffffffffffffffffffffffffffffff021916908373ffffffffffffffffffffffffffffffffffffffff16021790555060c0820151816006015560e0820151816007019080519060200190610beb9291906139ba565b5061010082015181600801559050506001600860008d815260200190815260200160002060006101000a81548160ff02191690836003811115610c57577f4e487b7100000000000000000000000000000000000000000000000000000000600052602160045260246000fd5b02179055507fc49c6a2e27722bfd7cff78433c963ac6ae93291acd415ce5009c1202c899bf8a8b86604051610c8d9291906148a3565b60405180910390a15050505050505050505050565b8060016003811115610cdd577f4e487b7100000000000000000000000000000000000000000000000000000000600052602160045260246000fd5b6008600083815260200190815260200160002060009054906101000a900460ff166003811115610d36577f4e487b7100000000000000000000000000000000000000000000000000000000600052602160045260246000fd5b14610d76576040517f08c379a0000000000000000000000000000000000000000000000000000000008152600401610d6d90614a2d565b60405180910390fd5b814260076000838152602001908152602001600020600801546007600084815260200190815260200160002060000154610db09190614d37565b1115610df1576040517f08c379a0000000000000000000000000000000000000000000000000000000008152600401610de890614a6d565b60405180910390fd5b60036008600085815260200190815260200160002060006101000a81548160ff02191690836003811115610e4e577f4e487b7100000000000000000000000000000000000000000000000000000000600052602160045260246000fd5b02179055507f825d0863b13ffd24b85a8f9dfaa25c198f30bd39ca7928974507b4cdac588b4083604051610e829190614888565b60405180910390a1505050565b6000806000838152602001908152602001600020600101549050919050565b610eb6613394565b73ffffffffffffffffffffffffffffffffffffffff16610ed461256d565b73ffffffffffffffffffffffffffffffffffffffff1614610f2a576040517f08c379a0000000000000000000000000000000000000000000000000000000008152600401610f2190614aed565b60405180910390fd5b610f547f241ecf16d79d0f8dbfb92cbc07fe17840425976cf0667f022fe9877caa831b0882611171565b50565b600080600080600080600080600080600760008c815260200190815260200160002060405180610120016040529081600082015481526020016001820154815260200160028201548152602001600382015481526020016004820160009054906101000a900473ffffffffffffffffffffffffffffffffffffffff1673ffffffffffffffffffffffffffffffffffffffff1673ffffffffffffffffffffffffffffffffffffffff1681526020016005820160009054906101000a900473ffffffffffffffffffffffffffffffffffffffff1673ffffffffffffffffffffffffffffffffffffffff1673ffffffffffffffffffffffffffffffffffffffff1681526020016006820154815260200160078201805461107390614f3c565b80601f016020809104026020016040519081016040528092919081815260200182805461109f90614f3c565b80156110ec5780601f106110c1576101008083540402835291602001916110ec565b820191906000526020600020905b8154815290600101906020018083116110cf57829003601f168201915b5050505050815260200160088201548152505090506000600860008d815260200190815260200160002060009054906101000a900460ff16905080826000015183602001518460400151856060015186608001518760a001518860c001518961010001519a509a509a509a509a509a509a509a509a5050509193959799909294969850565b61117a82610e8f565b61118b81611186613394565b61339c565b6111958383613439565b505050565b6111a2613394565b73ffffffffffffffffffffffffffffffffffffffff168173ffffffffffffffffffffffffffffffffffffffff161461120f576040517f08c379a000000000000000000000000000000000000000000000000000000000815260040161120690614c2d565b60405180910390fd5b6112198282613519565b5050565b60008111611260576040517f08c379a000000000000000000000000000000000000000000000000000000000815260040161125790614bad565b60405180910390fd5b6000600960003373ffffffffffffffffffffffffffffffffffffffff1673ffffffffffffffffffffffffffffffffffffffff168152602001908152602001600020549050808211156112e7576040517f08c379a00000000000000000000000000000000000000000000000000000000081526004016112de90614c4d565b60405180910390fd5b4782111561132a576040517f08c379a000000000000000000000000000000000000000000000000000000000815260040161132190614aad565b60405180910390fd5b3373ffffffffffffffffffffffffffffffffffffffff166108fc839081150290604051600060405180830381858888f19350505050158015611370573d6000803e3d6000fd5b5061137b818361337e565b905080600960003373ffffffffffffffffffffffffffffffffffffffff1673ffffffffffffffffffffffffffffffffffffffff168152602001908152602001600020819055507f5cc7dbec835e645ab42a9b1f151d8c99c63251d19e539492b7ebb637eaf72f3633836040516113f2929190614844565b60405180910390a15050565b8160016003811115611439577f4e487b7100000000000000000000000000000000000000000000000000000000600052602160045260246000fd5b6008600083815260200190815260200160002060009054906101000a900460ff166003811115611492577f4e487b7100000000000000000000000000000000000000000000000000000000600052602160045260246000fd5b146114d2576040517f08c379a00000000000000000000000000000000000000000000000000000000081526004016114c990614a2d565b60405180910390fd5b82826002816040516114e491906147d8565b602060405180830381855afa158015611501573d6000803e3d6000fd5b5050506040513d601f19601f820116820180604052508101906115249190613b95565b60076000848152602001908152602001600020600601541461157b576040517f08c379a000000000000000000000000000000000000000000000000000000000815260040161157290614acd565b60405180910390fd5b60006007600087815260200190815260200160002060405180610120016040529081600082015481526020016001820154815260200160028201548152602001600382015481526020016004820160009054906101000a900473ffffffffffffffffffffffffffffffffffffffff1673ffffffffffffffffffffffffffffffffffffffff1673ffffffffffffffffffffffffffffffffffffffff1681526020016005820160009054906101000a900473ffffffffffffffffffffffffffffffffffffffff1673ffffffffffffffffffffffffffffffffffffffff1673ffffffffffffffffffffffffffffffffffffffff1681526020016006820154815260200160078201805461168a90614f3c565b80601f01602080910402602001604051908101604052809291908181526020018280546116b690614f3c565b80156117035780601f106116d857610100808354040283529160200191611703565b820191906000526020600020905b8154815290600101906020018083116116e657829003601f168201915b505050505081526020016008820154815250509050600061172c82604001518360600151613368565b9050600061173e83602001518361337e565b9050600260149054906101000a900460ff161561182c57600060096000600260009054906101000a900473ffffffffffffffffffffffffffffffffffffffff1673ffffffffffffffffffffffffffffffffffffffff1673ffffffffffffffffffffffffffffffffffffffff1681526020019081526020016000205490506117c58184613368565b60096000600260009054906101000a900473ffffffffffffffffffffffffffffffffffffffff1673ffffffffffffffffffffffffffffffffffffffff1673ffffffffffffffffffffffffffffffffffffffff16815260200190815260200160002081905550505b4781111561186f576040517f08c379a000000000000000000000000000000000000000000000000000000000815260040161186690614b0d565b60405180910390fd5b86600760008a815260200190815260200160002060070190805190602001906118999291906139ba565b506002600860008a815260200190815260200160002060006101000a81548160ff021916908360038111156118f7577f4e487b7100000000000000000000000000000000000000000000000000000000600052602160045260246000fd5b02179055508260a0015173ffffffffffffffffffffffffffffffffffffffff166108fc829081150290604051600060405180830381858888f19350505050158015611946573d6000803e3d6000fd5b507f95ba8896cab059cc82657df1929eaf97d25375ab7a1d7bed1531299395d78b1888886040516119789291906148cc565b60405180910390a15050505050505050565b600080600080600080600080600080600560008c815260200190815260200160002060405180610120016040529081600082015481526020016001820154815260200160028201548152602001600382015481526020016004820160009054906101000a900473ffffffffffffffffffffffffffffffffffffffff1673ffffffffffffffffffffffffffffffffffffffff1673ffffffffffffffffffffffffffffffffffffffff1681526020016005820160009054906101000a900473ffffffffffffffffffffffffffffffffffffffff1673ffffffffffffffffffffffffffffffffffffffff1673ffffffffffffffffffffffffffffffffffffffff16815260200160068201548152602001600782018054611aa690614f3c565b80601f0160208091040260200160405190810160405280929190818152602001828054611ad290614f3c565b8015611b1f5780601f10611af457610100808354040283529160200191611b1f565b820191906000526020600020905b815481529060010190602001808311611b0257829003601f168201915b5050505050815260200160088201548152505090506000600660008d815260200190815260200160002060009054906101000a900460ff16905080826000015183602001518460400151856060015186608001518760a001518860c001518961010001519a509a509a509a509a509a509a509a509a5050509193959799909294969850565b6000600960008373ffffffffffffffffffffffffffffffffffffffff1673ffffffffffffffffffffffffffffffffffffffff168152602001908152602001600020549050919050565b611bf5613394565b73ffffffffffffffffffffffffffffffffffffffff16611c1361256d565b73ffffffffffffffffffffffffffffffffffffffff1614611c69576040517f08c379a0000000000000000000000000000000000000000000000000000000008152600401611c6090614aed565b60405180910390fd5b611c7360006135fa565b565b8460006003811115611cb0577f4e487b7100000000000000000000000000000000000000000000000000000000600052602160045260246000fd5b6006600083815260200190815260200160002060009054906101000a900460ff166003811115611d09577f4e487b7100000000000000000000000000000000000000000000000000000000600052602160045260246000fd5b14611d49576040517f08c379a0000000000000000000000000000000000000000000000000000000008152600401611d4090614c0d565b60405180910390fd5b60006003811115611d83577f4e487b7100000000000000000000000000000000000000000000000000000000600052602160045260246000fd5b6006600088815260200190815260200160002060009054906101000a900460ff166003811115611ddc577f4e487b7100000000000000000000000000000000000000000000000000000000600052602160045260246000fd5b14611e1c576040517f08c379a0000000000000000000000000000000000000000000000000000000008152600401611e1390614c0d565b60405180910390fd5b6000611e288686613368565b9050348110611e6c576040517f08c379a0000000000000000000000000000000000000000000000000000000008152600401611e6390614b2d565b60405180910390fd5b600060405180610120016040528060035481526020013481526020018881526020018781526020013373ffffffffffffffffffffffffffffffffffffffff1681526020018673ffffffffffffffffffffffffffffffffffffffff168152602001858152602001600067ffffffffffffffff811115611f13577f4e487b7100000000000000000000000000000000000000000000000000000000600052604160045260246000fd5b6040519080825280601f01601f191660200182016040528015611f455781602001600182028036833780820191505090505b50815260200142815250905080600560008a81526020019081526020016000206000820151816000015560208201518160010155604082015181600201556060820151816003015560808201518160040160006101000a81548173ffffffffffffffffffffffffffffffffffffffff021916908373ffffffffffffffffffffffffffffffffffffffff16021790555060a08201518160050160006101000a81548173ffffffffffffffffffffffffffffffffffffffff021916908373ffffffffffffffffffffffffffffffffffffffff16021790555060c0820151816006015560e08201518160070190805190602001906120419291906139ba565b5061010082015181600801559050506001600660008a815260200190815260200160002060006101000a81548160ff021916908360038111156120ad577f4e487b7100000000000000000000000000000000000000000000000000000000600052602160045260246000fd5b02179055507f5faaa1cf928498f8b434c97cb1f6d72e6b65923d6fe2888feb009e3d5fe8dd2888856040516120e39291906148a3565b60405180910390a15050505050505050565b6120fe336131fb565b61213d576040517f08c379a000000000000000000000000000000000000000000000000000000000815260040161213490614b8d565b60405180910390fd5b60028161214a9190614d8d565b600381905550806004819055507f64728aea34ac309b1c81424cc427d789a01aa85691b27ebfa0be5ae8c322ca736003546040516121889190614c6d565b60405180910390a150565b80600160038111156121ce577f4e487b7100000000000000000000000000000000000000000000000000000000600052602160045260246000fd5b6006600083815260200190815260200160002060009054906101000a900460ff166003811115612227577f4e487b7100000000000000000000000000000000000000000000000000000000600052602160045260246000fd5b14612267576040517f08c379a000000000000000000000000000000000000000000000000000000000815260040161225e90614a4d565b60405180910390fd5b8142600560008381526020019081526020016000206008015460056000848152602001908152602001600020600001546122a19190614d37565b11156122e2576040517f08c379a00000000000000000000000000000000000000000000000000000000081526004016122d990614bed565b60405180910390fd5b60006005600085815260200190815260200160002060405180610120016040529081600082015481526020016001820154815260200160028201548152602001600382015481526020016004820160009054906101000a900473ffffffffffffffffffffffffffffffffffffffff1673ffffffffffffffffffffffffffffffffffffffff1673ffffffffffffffffffffffffffffffffffffffff1681526020016005820160009054906101000a900473ffffffffffffffffffffffffffffffffffffffff1673ffffffffffffffffffffffffffffffffffffffff1673ffffffffffffffffffffffffffffffffffffffff168152602001600682015481526020016007820180546123f190614f3c565b80601f016020809104026020016040519081016040528092919081815260200182805461241d90614f3c565b801561246a5780601f1061243f5761010080835404028352916020019161246a565b820191906000526020600020905b81548152906001019060200180831161244d57829003601f168201915b50505050508152602001600882015481525050905060036006600086815260200190815260200160002060006101000a81548160ff021916908360038111156124dc577f4e487b7100000000000000000000000000000000000000000000000000000000600052602160045260246000fd5b0217905550806080015173ffffffffffffffffffffffffffffffffffffffff166108fc82602001519081150290604051600060405180830381858888f1935050505015801561252f573d6000803e3d6000fd5b507f106871623781e69dca1d81068bb94c2b7cb78425866dd9a3afbe299ddb2bb8698460405161255f9190614888565b60405180910390a150505050565b6000600160009054906101000a900473ffffffffffffffffffffffffffffffffffffffff16905090565b600080600084815260200190815260200160002060000160008373ffffffffffffffffffffffffffffffffffffffff1673ffffffffffffffffffffffffffffffffffffffff16815260200190815260200160002060009054906101000a900460ff16905092915050565b6000801b81565b8160016003811115612643577f4e487b7100000000000000000000000000000000000000000000000000000000600052602160045260246000fd5b6006600083815260200190815260200160002060009054906101000a900460ff16600381111561269c577f4e487b7100000000000000000000000000000000000000000000000000000000600052602160045260246000fd5b146126dc576040517f08c379a00000000000000000000000000000000000000000000000000000000081526004016126d390614a4d565b60405180910390fd5b82826002816040516126ee91906147d8565b602060405180830381855afa15801561270b573d6000803e3d6000fd5b5050506040513d601f19601f8201168201806040525081019061272e9190613b95565b600560008481526020019081526020016000206006015414612785576040517f08c379a000000000000000000000000000000000000000000000000000000000815260040161277c90614bcd565b60405180910390fd5b600260149054906101000a900460ff1615612a265760006005600087815260200190815260200160002060405180610120016040529081600082015481526020016001820154815260200160028201548152602001600382015481526020016004820160009054906101000a900473ffffffffffffffffffffffffffffffffffffffff1673ffffffffffffffffffffffffffffffffffffffff1673ffffffffffffffffffffffffffffffffffffffff1681526020016005820160009054906101000a900473ffffffffffffffffffffffffffffffffffffffff1673ffffffffffffffffffffffffffffffffffffffff1673ffffffffffffffffffffffffffffffffffffffff168152602001600682015481526020016007820180546128a990614f3c565b80601f01602080910402602001604051908101604052809291908181526020018280546128d590614f3c565b80156129225780601f106128f757610100808354040283529160200191612922565b820191906000526020600020905b81548152906001019060200180831161290557829003601f168201915b505050505081526020016008820154815250509050600061294b82604001518360600151613368565b9050600060096000600260009054906101000a900473ffffffffffffffffffffffffffffffffffffffff1673ffffffffffffffffffffffffffffffffffffffff1673ffffffffffffffffffffffffffffffffffffffff1681526020019081526020016000205490506129bd8183613368565b60096000600260009054906101000a900473ffffffffffffffffffffffffffffffffffffffff1673ffffffffffffffffffffffffffffffffffffffff1673ffffffffffffffffffffffffffffffffffffffff168152602001908152602001600020819055505050505b83600560008781526020019081526020016000206007019080519060200190612a509291906139ba565b5060026006600087815260200190815260200160002060006101000a81548160ff02191690836003811115612aae577f4e487b7100000000000000000000000000000000000000000000000000000000600052602160045260246000fd5b02179055507f1477d37ce3a7a9aa2840d29808113cfbd3c2cc73a0d080110430dfa472d8772c8585604051612ae49291906148cc565b60405180910390a15050505050565b60096020528060005260406000206000915090505481565b60608160026003811115612b48577f4e487b7100000000000000000000000000000000000000000000000000000000600052602160045260246000fd5b6008600083815260200190815260200160002060009054906101000a900460ff166003811115612ba1577f4e487b7100000000000000000000000000000000000000000000000000000000600052602160045260246000fd5b14612be1576040517f08c379a0000000000000000000000000000000000000000000000000000000008152600401612bd890614b4d565b60405180910390fd5b60006007600085815260200190815260200160002060405180610120016040529081600082015481526020016001820154815260200160028201548152602001600382015481526020016004820160009054906101000a900473ffffffffffffffffffffffffffffffffffffffff1673ffffffffffffffffffffffffffffffffffffffff1673ffffffffffffffffffffffffffffffffffffffff1681526020016005820160009054906101000a900473ffffffffffffffffffffffffffffffffffffffff1673ffffffffffffffffffffffffffffffffffffffff1673ffffffffffffffffffffffffffffffffffffffff16815260200160068201548152602001600782018054612cf090614f3c565b80601f0160208091040260200160405190810160405280929190818152602001828054612d1c90614f3c565b8015612d695780601f10612d3e57610100808354040283529160200191612d69565b820191906000526020600020905b815481529060010190602001808311612d4c57829003601f168201915b5050505050815260200160088201548152505090508060e0015192505050919050565b612d94613394565b73ffffffffffffffffffffffffffffffffffffffff16612db261256d565b73ffffffffffffffffffffffffffffffffffffffff1614612e08576040517f08c379a0000000000000000000000000000000000000000000000000000000008152600401612dff90614aed565b60405180910390fd5b612e327f241ecf16d79d0f8dbfb92cbc07fe17840425976cf0667f022fe9877caa831b08826130b6565b50565b60608160026003811115612e72577f4e487b7100000000000000000000000000000000000000000000000000000000600052602160045260246000fd5b6006600083815260200190815260200160002060009054906101000a900460ff166003811115612ecb577f4e487b7100000000000000000000000000000000000000000000000000000000600052602160045260246000fd5b14612f0b576040517f08c379a0000000000000000000000000000000000000000000000000000000008152600401612f02906149ed565b60405180910390fd5b60006005600085815260200190815260200160002060405180610120016040529081600082015481526020016001820154815260200160028201548152602001600382015481526020016004820160009054906101000a900473ffffffffffffffffffffffffffffffffffffffff1673ffffffffffffffffffffffffffffffffffffffff1673ffffffffffffffffffffffffffffffffffffffff1681526020016005820160009054906101000a900473ffffffffffffffffffffffffffffffffffffffff1673ffffffffffffffffffffffffffffffffffffffff1673ffffffffffffffffffffffffffffffffffffffff1681526020016006820154815260200160078201805461301a90614f3c565b80601f016020809104026020016040519081016040528092919081815260200182805461304690614f3c565b80156130935780601f1061306857610100808354040283529160200191613093565b820191906000526020600020905b81548152906001019060200180831161307657829003601f168201915b5050505050815260200160088201548152505090508060e0015192505050919050565b6130bf82610e8f565b6130d0816130cb613394565b61339c565b6130da8383613519565b505050565b7f241ecf16d79d0f8dbfb92cbc07fe17840425976cf0667f022fe9877caa831b0881565b61310b613394565b73ffffffffffffffffffffffffffffffffffffffff1661312961256d565b73ffffffffffffffffffffffffffffffffffffffff161461317f576040517f08c379a000000000000000000000000000000000000000000000000000000000815260040161317690614aed565b60405180910390fd5b600073ffffffffffffffffffffffffffffffffffffffff168173ffffffffffffffffffffffffffffffffffffffff1614156131ef576040517f08c379a00000000000000000000000000000000000000000000000000000000081526004016131e690614a0d565b60405180910390fd5b6131f8816135fa565b50565b60006132277f241ecf16d79d0f8dbfb92cbc07fe17840425976cf0667f022fe9877caa831b0883612597565b9050919050565b6000600960003373ffffffffffffffffffffffffffffffffffffffff1673ffffffffffffffffffffffffffffffffffffffff16815260200190815260200160002054905061327c8134613368565b905080600960003373ffffffffffffffffffffffffffffffffffffffff1673ffffffffffffffffffffffffffffffffffffffff168152602001908152602001600020819055507f68dfc3961252b2985417f44cbe6fd4d5b04dac5c8b25b1350da2f572a4ce649933346040516132f3929190614844565b60405180910390a150565b60007f01ffc9a7000000000000000000000000000000000000000000000000000000007bffffffffffffffffffffffffffffffffffffffffffffffffffffffff1916827bffffffffffffffffffffffffffffffffffffffffffffffffffffffff1916149050919050565b600081836133769190614d37565b905092915050565b6000818361338c9190614de7565b905092915050565b600033905090565b6133a68282612597565b613435576133cb8173ffffffffffffffffffffffffffffffffffffffff1660146136c0565b6133d98360001c60206136c0565b6040516020016133ea9291906147ef565b6040516020818303038152906040526040517f08c379a000000000000000000000000000000000000000000000000000000000815260040161342c91906149ab565b60405180910390fd5b5050565b6134438282612597565b61351557600160008084815260200190815260200160002060000160008373ffffffffffffffffffffffffffffffffffffffff1673ffffffffffffffffffffffffffffffffffffffff16815260200190815260200160002060006101000a81548160ff0219169083151502179055506134ba613394565b73ffffffffffffffffffffffffffffffffffffffff168173ffffffffffffffffffffffffffffffffffffffff16837f2f8788117e7eff1d82e926ec794901d17c78024a50270940304540a733656f0d60405160405180910390a45b5050565b6135238282612597565b156135f657600080600084815260200190815260200160002060000160008373ffffffffffffffffffffffffffffffffffffffff1673ffffffffffffffffffffffffffffffffffffffff16815260200190815260200160002060006101000a81548160ff02191690831515021790555061359b613394565b73ffffffffffffffffffffffffffffffffffffffff168173ffffffffffffffffffffffffffffffffffffffff16837ff6391f5c32d9c69d2a47ea670b442974b53935d1edc7fd64eb21e047a839171b60405160405180910390a45b5050565b6000600160009054906101000a900473ffffffffffffffffffffffffffffffffffffffff16905081600160006101000a81548173ffffffffffffffffffffffffffffffffffffffff021916908373ffffffffffffffffffffffffffffffffffffffff1602179055508173ffffffffffffffffffffffffffffffffffffffff168173ffffffffffffffffffffffffffffffffffffffff167f8be0079c531659141344cd1fd0a4f28419497f9722a3daafe3b4186f6b6457e060405160405180910390a35050565b6060600060028360026136d39190614d8d565b6136dd9190614d37565b67ffffffffffffffff81111561371c577f4e487b7100000000000000000000000000000000000000000000000000000000600052604160045260246000fd5b6040519080825280601f01601f19166020018201604052801561374e5781602001600182028036833780820191505090505b5090507f3000000000000000000000000000000000000000000000000000000000000000816000815181106137ac577f4e487b7100000000000000000000000000000000000000000000000000000000600052603260045260246000fd5b60200101907effffffffffffffffffffffffffffffffffffffffffffffffffffffffffffff1916908160001a9053507f780000000000000000000000000000000000000000000000000000000000000081600181518110613836577f4e487b7100000000000000000000000000000000000000000000000000000000600052603260045260246000fd5b60200101907effffffffffffffffffffffffffffffffffffffffffffffffffffffffffffff1916908160001a905350600060018460026138769190614d8d565b6138809190614d37565b90505b600181111561396c577f3031323334353637383961626364656600000000000000000000000000000000600f8616601081106138e8577f4e487b7100000000000000000000000000000000000000000000000000000000600052603260045260246000fd5b1a60f81b828281518110613925577f4e487b7100000000000000000000000000000000000000000000000000000000600052603260045260246000fd5b60200101907effffffffffffffffffffffffffffffffffffffffffffffffffffffffffffff1916908160001a905350600485901c94508061396590614f12565b9050613883565b50600084146139b0576040517f08c379a00000000000000000000000000000000000000000000000000000000081526004016139a7906149cd565b60405180910390fd5b8091505092915050565b8280546139c690614f3c565b90600052602060002090601f0160209004810192826139e85760008555613a2f565b82601f10613a0157805160ff1916838001178555613a2f565b82800160010185558215613a2f579182015b82811115613a2e578251825591602001919060010190613a13565b5b509050613a3c9190613a40565b5090565b5b80821115613a59576000816000905550600101613a41565b5090565b6000613a70613a6b84614cb9565b614c88565b905082815260208101848484011115613a8857600080fd5b613a93848285614ed0565b509392505050565b600081359050613aaa8161504f565b92915050565b600081359050613abf81615066565b92915050565b600081359050613ad48161507d565b92915050565b600081519050613ae98161507d565b92915050565b600081359050613afe81615094565b92915050565b600082601f830112613b1557600080fd5b8135613b25848260208601613a5d565b91505092915050565b600081359050613b3d816150ab565b92915050565b600060208284031215613b5557600080fd5b6000613b6384828501613a9b565b91505092915050565b600060208284031215613b7e57600080fd5b6000613b8c84828501613ac5565b91505092915050565b600060208284031215613ba757600080fd5b6000613bb584828501613ada565b91505092915050565b60008060408385031215613bd157600080fd5b6000613bdf85828601613ac5565b9250506020613bf085828601613a9b565b9150509250929050565b60008060408385031215613c0d57600080fd5b6000613c1b85828601613ac5565b925050602083013567ffffffffffffffff811115613c3857600080fd5b613c4485828601613b04565b9150509250929050565b600080600080600060a08688031215613c6657600080fd5b6000613c7488828901613ac5565b9550506020613c8588828901613b2e565b9450506040613c9688828901613b2e565b9350506060613ca788828901613ab0565b9250506080613cb888828901613ac5565b9150509295509295909350565b600080600080600080600060e0888a031215613ce057600080fd5b6000613cee8a828b01613ac5565b9750506020613cff8a828b01613b2e565b9650506040613d108a828b01613b2e565b9550506060613d218a828b01613b2e565b9450506080613d328a828b01613ab0565b93505060a0613d438a828b01613ab0565b92505060c0613d548a828b01613ac5565b91505092959891949750929550565b600060208284031215613d7557600080fd5b6000613d8384828501613aef565b91505092915050565b600060208284031215613d9e57600080fd5b6000613dac84828501613b2e565b91505092915050565b613dbe81614e1b565b82525050565b613dcd81614e3f565b82525050565b613ddc81614e4b565b82525050565b6000613ded82614ce9565b613df78185614cff565b9350613e07818560208601614edf565b613e108161502a565b840191505092915050565b6000613e2682614ce9565b613e308185614d10565b9350613e40818560208601614edf565b80840191505092915050565b613e5581614ebe565b82525050565b6000613e6682614cf4565b613e708185614d1b565b9350613e80818560208601614edf565b613e898161502a565b840191505092915050565b6000613e9f82614cf4565b613ea98185614d2c565b9350613eb9818560208601614edf565b80840191505092915050565b6000613ed2602083614d1b565b91507f537472696e67733a20686578206c656e67746820696e73756666696369656e746000830152602082019050919050565b6000613f12602f83614d1b565b91507f546865206465706f73697420626f78206973206e6f7420636c6f73652e7c4e4f60008301527f545f434c4f53455f4445504f53495400000000000000000000000000000000006020830152604082019050919050565b6000613f78602683614d1b565b91507f4f776e61626c653a206e6577206f776e657220697320746865207a65726f206160008301527f64647265737300000000000000000000000000000000000000000000000000006020830152604082019050919050565b6000613fde602f83614d1b565b91507f54686520776974686472617720626f78206973206e6f74206f70656e2e7c4e4f60008301527f545f4f50454e5f574954484452415700000000000000000000000000000000006020830152604082019050919050565b6000614044602d83614d1b565b91507f546865206465706f73697420626f78206973206e6f74206f70656e2e7c4e4f5460008301527f5f4f50454e5f4445504f534954000000000000000000000000000000000000006020830152604082019050919050565b60006140aa603883614d1b565b91507f54686520776974686472617720626f782063616e6e6f7420626520657870697260008301527f65642e7c4e4f545f455850495245445f574954484452415700000000000000006020830152604082019050919050565b6000614110603683614d1b565b91507f54686520776974686472617720626f7820616c7265616479206578697374732e60008301527f7c414c52454144595f4f50454e5f5749544844524157000000000000000000006020830152604082019050919050565b6000614176603e83614d1b565b91507f546865206c697175696469747920697320696e73756666696369656e742e7c4960008301527f4e53554646494349454e545f4c49515549444954595f444543524541534500006020830152604082019050919050565b60006141dc603683614d1b565b91507f49742773206e6f7420746865206b657920746f2074686520776974686472617760008301527f20626f782e7c4e4f545f4b45595f5749544844524157000000000000000000006020830152604082019050919050565b6000614242602083614d1b565b91507f4f776e61626c653a2063616c6c6572206973206e6f7420746865206f776e65726000830152602082019050919050565b6000614282605883614d1b565b91507f546865206c6971756964697479206f662074686520776974686472617720626f60008301527f7820697320696e73756666696369656e742e7c494e53554646494349454e545f60208301527f4c49515549444954595f434c4f53455f574954484452415700000000000000006040830152606082019050919050565b600061430e602983614d1b565b91507f5468652066656520697320696e73756666696369656e742e7c494e535546464960008301527f4349454e545f46454500000000000000000000000000000000000000000000006020830152604082019050919050565b6000614374603183614d1b565b91507f54686520776974686472617720626f78206973206e6f7420636c6f73652e7c4e60008301527f4f545f434c4f53455f57495448445241570000000000000000000000000000006020830152604082019050919050565b60006143da604e83614d1b565b91507f546865206c6971756964697479206f6620746865207769746864726177616c2060008301527f626f7820697320696e73756666696369656e742e7c4e4f545f414c4c4f57454460208301527f5f4f50454e5f57495448445241570000000000000000000000000000000000006040830152606082019050919050565b6000614466602883614d1b565b91507f4f6e6c79206d616e61676572732063616e2063616c6c2e7c4e4f545f4d414e4160008301527f4745525f524f4c4c0000000000000000000000000000000000000000000000006020830152604082019050919050565b60006144cc603d83614d1b565b91507f54686520616d6f756e74206d7573742062652067726561746572207468616e2060008301527f7a65726f2e7c494e56414c49445f414d4f554e545f44454352454153450000006020830152604082019050919050565b6000614532603483614d1b565b91507f49742773206e6f7420746865206b657920746f20746865206465706f7369742060008301527f626f782e7c4e4f545f4b45595f4445504f5349540000000000000000000000006020830152604082019050919050565b6000614598603683614d1b565b91507f546865206465706f73697420626f782063616e6e6f742062652065787069726560008301527f642e7c4e4f545f455850495245445f4445504f534954000000000000000000006020830152604082019050919050565b60006145fe601783614d2c565b91507f416363657373436f6e74726f6c3a206163636f756e74200000000000000000006000830152601782019050919050565b600061463e603483614d1b565b91507f546865206465706f73697420626f7820616c7265616479206578697374732e7c60008301527f414c52454144595f4f50454e5f4445504f5349540000000000000000000000006020830152604082019050919050565b60006146a4601183614d2c565b91507f206973206d697373696e6720726f6c65200000000000000000000000000000006000830152601182019050919050565b60006146e4602f83614d1b565b91507f416363657373436f6e74726f6c3a2063616e206f6e6c792072656e6f756e636560008301527f20726f6c657320666f722073656c6600000000000000000000000000000000006020830152604082019050919050565b600061474a604483614d1b565b91507f546865206c6971756964697479206f66207573657220697320696e737566666960008301527f6369656e742e7c494e53554646494349454e545f42414c414e43455f4445435260208301527f45415345000000000000000000000000000000000000000000000000000000006040830152606082019050919050565b6147d281614eb4565b82525050565b60006147e48284613e1b565b915081905092915050565b60006147fa826145f1565b91506148068285613e94565b915061481182614697565b915061481d8284613e94565b91508190509392505050565b600060208201905061483e6000830184613db5565b92915050565b60006040820190506148596000830185613db5565b61486660208301846147c9565b9392505050565b60006020820190506148826000830184613dc4565b92915050565b600060208201905061489d6000830184613dd3565b92915050565b60006040820190506148b86000830185613dd3565b6148c56020830184613dd3565b9392505050565b60006040820190506148e16000830185613dd3565b81810360208301526148f38184613de2565b90509392505050565b600060208201905081810360008301526149168184613de2565b905092915050565b600061012082019050614934600083018c613e4c565b614941602083018b6147c9565b61494e604083018a6147c9565b61495b60608301896147c9565b61496860808301886147c9565b61497560a0830187613db5565b61498260c0830186613db5565b61498f60e0830185613dd3565b61499d6101008301846147c9565b9a9950505050505050505050565b600060208201905081810360008301526149c58184613e5b565b905092915050565b600060208201905081810360008301526149e681613ec5565b9050919050565b60006020820190508181036000830152614a0681613f05565b9050919050565b60006020820190508181036000830152614a2681613f6b565b9050919050565b60006020820190508181036000830152614a4681613fd1565b9050919050565b60006020820190508181036000830152614a6681614037565b9050919050565b60006020820190508181036000830152614a868161409d565b9050919050565b60006020820190508181036000830152614aa681614103565b9050919050565b60006020820190508181036000830152614ac681614169565b9050919050565b60006020820190508181036000830152614ae6816141cf565b9050919050565b60006020820190508181036000830152614b0681614235565b9050919050565b60006020820190508181036000830152614b2681614275565b9050919050565b60006020820190508181036000830152614b4681614301565b9050919050565b60006020820190508181036000830152614b6681614367565b9050919050565b60006020820190508181036000830152614b86816143cd565b9050919050565b60006020820190508181036000830152614ba681614459565b9050919050565b60006020820190508181036000830152614bc6816144bf565b9050919050565b60006020820190508181036000830152614be681614525565b9050919050565b60006020820190508181036000830152614c068161458b565b9050919050565b60006020820190508181036000830152614c2681614631565b9050919050565b60006020820190508181036000830152614c46816146d7565b9050919050565b60006020820190508181036000830152614c668161473d565b9050919050565b6000602082019050614c8260008301846147c9565b92915050565b6000604051905081810181811067ffffffffffffffff82111715614caf57614cae614ffb565b5b8060405250919050565b600067ffffffffffffffff821115614cd457614cd3614ffb565b5b601f19601f8301169050602081019050919050565b600081519050919050565b600081519050919050565b600082825260208201905092915050565b600081905092915050565b600082825260208201905092915050565b600081905092915050565b6000614d4282614eb4565b9150614d4d83614eb4565b9250827fffffffffffffffffffffffffffffffffffffffffffffffffffffffffffffffff03821115614d8257614d81614f6e565b5b828201905092915050565b6000614d9882614eb4565b9150614da383614eb4565b9250817fffffffffffffffffffffffffffffffffffffffffffffffffffffffffffffffff0483118215151615614ddc57614ddb614f6e565b5b828202905092915050565b6000614df282614eb4565b9150614dfd83614eb4565b925082821015614e1057614e0f614f6e565b5b828203905092915050565b6000614e2682614e94565b9050919050565b6000614e3882614e94565b9050919050565b60008115159050919050565b6000819050919050565b60007fffffffff0000000000000000000000000000000000000000000000000000000082169050919050565b6000819050614e8f8261503b565b919050565b600073ffffffffffffffffffffffffffffffffffffffff82169050919050565b6000819050919050565b6000614ec982614e81565b9050919050565b82818337600083830152505050565b60005b83811015614efd578082015181840152602081019050614ee2565b83811115614f0c576000848401525b50505050565b6000614f1d82614eb4565b91506000821415614f3157614f30614f6e565b5b600182039050919050565b60006002820490506001821680614f5457607f821691505b60208210811415614f6857614f67614fcc565b5b50919050565b7f4e487b7100000000000000000000000000000000000000000000000000000000600052601160045260246000fd5b7f4e487b7100000000000000000000000000000000000000000000000000000000600052602160045260246000fd5b7f4e487b7100000000000000000000000000000000000000000000000000000000600052602260045260246000fd5b7f4e487b7100000000000000000000000000000000000000000000000000000000600052604160045260246000fd5b6000601f19601f8301169050919050565b6004811061504c5761504b614f9d565b5b50565b61505881614e1b565b811461506357600080fd5b50565b61506f81614e2d565b811461507a57600080fd5b50565b61508681614e4b565b811461509157600080fd5b50565b61509d81614e55565b81146150a857600080fd5b50565b6150b481614eb4565b81146150bf57600080fd5b5056fea26469706673582212201fd827dec6668f1d0764406cfed4dbea864e5839183ce10ddad23989105d13cc64736f6c63430008000033",
  "linkReferences": {},
  "deployedLinkReferences": {}
}