{
  "_format": "hh-sol-artifact-1",
  "contractName": "BOATokenBridge",
  "sourceName": "contracts/bridge/BOATokenBridge.sol",
  "abi": [
    {
      "inputs": [
        {
          "internalType": "address",
          "name": "_tokenAddress",
          "type": "address"
        },
        {
          "internalType": "uint256",
          "name": "_timeLock",
          "type": "uint256"
        },
        {
          "internalType": "address",
          "name": "_feeManagerAddress",
          "type": "address"
        },
        {
          "internalType": "bool",
          "name": "_collectFee",
          "type": "bool"
        }
      ],
      "stateMutability": "nonpayable",
      "type": "constructor"
    },
    {
      "anonymous": false,
      "inputs": [
        {
          "indexed": false,
          "internalType": "uint256",
          "name": "_timeLock",
          "type": "uint256"
        }
      ],
      "name": "ChangeTimeLock",
      "type": "event"
    },
    {
      "anonymous": false,
      "inputs": [
        {
          "indexed": false,
          "internalType": "bytes32",
          "name": "_boxID",
          "type": "bytes32"
        },
        {
          "indexed": false,
          "internalType": "bytes",
          "name": "_secretKey",
          "type": "bytes"
        }
      ],
      "name": "CloseDeposit",
      "type": "event"
    },
    {
      "anonymous": false,
      "inputs": [
        {
          "indexed": false,
          "internalType": "bytes32",
          "name": "_boxID",
          "type": "bytes32"
        },
        {
          "indexed": false,
          "internalType": "bytes",
          "name": "_secretKey",
          "type": "bytes"
        }
      ],
      "name": "CloseWithdraw",
      "type": "event"
    },
    {
      "anonymous": false,
      "inputs": [
        {
          "indexed": false,
          "internalType": "address",
          "name": "provider",
          "type": "address"
        },
        {
          "indexed": false,
          "internalType": "uint256",
          "name": "amount",
          "type": "uint256"
        }
      ],
      "name": "DecreasedLiquidity",
      "type": "event"
    },
    {
      "anonymous": false,
      "inputs": [
        {
          "indexed": false,
          "internalType": "bytes32",
          "name": "_boxID",
          "type": "bytes32"
        }
      ],
      "name": "ExpireDeposit",
      "type": "event"
    },
    {
      "anonymous": false,
      "inputs": [
        {
          "indexed": false,
          "internalType": "bytes32",
          "name": "_boxID",
          "type": "bytes32"
        }
      ],
      "name": "ExpireWithdraw",
      "type": "event"
    },
    {
      "anonymous": false,
      "inputs": [
        {
          "indexed": false,
          "internalType": "address",
          "name": "provider",
          "type": "address"
        },
        {
          "indexed": false,
          "internalType": "uint256",
          "name": "amount",
          "type": "uint256"
        }
      ],
      "name": "IncreasedLiquidity",
      "type": "event"
    },
    {
      "anonymous": false,
      "inputs": [
        {
          "indexed": false,
          "internalType": "bytes32",
          "name": "_boxID",
          "type": "bytes32"
        },
        {
          "indexed": false,
          "internalType": "bytes32",
          "name": "_secretLock",
          "type": "bytes32"
        }
      ],
      "name": "OpenDeposit",
      "type": "event"
    },
    {
      "anonymous": false,
      "inputs": [
        {
          "indexed": false,
          "internalType": "bytes32",
          "name": "_boxID",
          "type": "bytes32"
        },
        {
          "indexed": false,
          "internalType": "bytes32",
          "name": "_secretLock",
          "type": "bytes32"
        }
      ],
      "name": "OpenWithdraw",
      "type": "event"
    },
    {
      "anonymous": false,
      "inputs": [
        {
          "indexed": true,
          "internalType": "address",
          "name": "previousOwner",
          "type": "address"
        },
        {
          "indexed": true,
          "internalType": "address",
          "name": "newOwner",
          "type": "address"
        }
      ],
      "name": "OwnershipTransferred",
      "type": "event"
    },
    {
      "anonymous": false,
      "inputs": [
        {
          "indexed": true,
          "internalType": "bytes32",
          "name": "role",
          "type": "bytes32"
        },
        {
          "indexed": true,
          "internalType": "bytes32",
          "name": "previousAdminRole",
          "type": "bytes32"
        },
        {
          "indexed": true,
          "internalType": "bytes32",
          "name": "newAdminRole",
          "type": "bytes32"
        }
      ],
      "name": "RoleAdminChanged",
      "type": "event"
    },
    {
      "anonymous": false,
      "inputs": [
        {
          "indexed": true,
          "internalType": "bytes32",
          "name": "role",
          "type": "bytes32"
        },
        {
          "indexed": true,
          "internalType": "address",
          "name": "account",
          "type": "address"
        },
        {
          "indexed": true,
          "internalType": "address",
          "name": "sender",
          "type": "address"
        }
      ],
      "name": "RoleGranted",
      "type": "event"
    },
    {
      "anonymous": false,
      "inputs": [
        {
          "indexed": true,
          "internalType": "bytes32",
          "name": "role",
          "type": "bytes32"
        },
        {
          "indexed": true,
          "internalType": "address",
          "name": "account",
          "type": "address"
        },
        {
          "indexed": true,
          "internalType": "address",
          "name": "sender",
          "type": "address"
        }
      ],
      "name": "RoleRevoked",
      "type": "event"
    },
    {
      "inputs": [],
      "name": "DEFAULT_ADMIN_ROLE",
      "outputs": [
        {
          "internalType": "bytes32",
          "name": "",
          "type": "bytes32"
        }
      ],
      "stateMutability": "view",
      "type": "function"
    },
    {
      "inputs": [],
      "name": "MANAGER_ROLE",
      "outputs": [
        {
          "internalType": "bytes32",
          "name": "",
          "type": "bytes32"
        }
      ],
      "stateMutability": "view",
      "type": "function"
    },
    {
      "inputs": [
        {
          "internalType": "address",
          "name": "account",
          "type": "address"
        }
      ],
      "name": "addManager",
      "outputs": [],
      "stateMutability": "nonpayable",
      "type": "function"
    },
    {
      "inputs": [
        {
          "internalType": "address",
          "name": "_provider",
          "type": "address"
        }
      ],
      "name": "balanceOfLiquidity",
      "outputs": [
        {
          "internalType": "uint256",
          "name": "amount",
          "type": "uint256"
        }
      ],
      "stateMutability": "view",
      "type": "function"
    },
    {
      "inputs": [
        {
          "internalType": "uint256",
          "name": "_timeLock",
          "type": "uint256"
        }
      ],
      "name": "changeTimeLock",
      "outputs": [],
      "stateMutability": "nonpayable",
      "type": "function"
    },
    {
      "inputs": [
        {
          "internalType": "bytes32",
          "name": "_boxID",
          "type": "bytes32"
        }
      ],
      "name": "checkDeposit",
      "outputs": [
        {
          "internalType": "enum BOATokenBridge.States",
          "name": "states",
          "type": "uint8"
        },
        {
          "internalType": "uint256",
          "name": "timeLock",
          "type": "uint256"
        },
        {
          "internalType": "uint256",
          "name": "amount",
          "type": "uint256"
        },
        {
          "internalType": "uint256",
          "name": "swapFee",
          "type": "uint256"
        },
        {
          "internalType": "uint256",
          "name": "txFee",
          "type": "uint256"
        },
        {
          "internalType": "address",
          "name": "traderAddress",
          "type": "address"
        },
        {
          "internalType": "address",
          "name": "withdrawAddress",
          "type": "address"
        },
        {
          "internalType": "bytes32",
          "name": "secretLock",
          "type": "bytes32"
        },
        {
          "internalType": "uint256",
          "name": "createTimestamp",
          "type": "uint256"
        }
      ],
      "stateMutability": "view",
      "type": "function"
    },
    {
      "inputs": [
        {
          "internalType": "bytes32",
          "name": "_boxID",
          "type": "bytes32"
        }
      ],
      "name": "checkSecretKeyDeposit",
      "outputs": [
        {
          "internalType": "bytes",
          "name": "secretKey",
          "type": "bytes"
        }
      ],
      "stateMutability": "view",
      "type": "function"
    },
    {
      "inputs": [
        {
          "internalType": "bytes32",
          "name": "_boxID",
          "type": "bytes32"
        }
      ],
      "name": "checkSecretKeyWithdraw",
      "outputs": [
        {
          "internalType": "bytes",
          "name": "secretKey",
          "type": "bytes"
        }
      ],
      "stateMutability": "view",
      "type": "function"
    },
    {
      "inputs": [
        {
          "internalType": "bytes32",
          "name": "_boxID",
          "type": "bytes32"
        }
      ],
      "name": "checkWithdraw",
      "outputs": [
        {
          "internalType": "enum BOATokenBridge.States",
          "name": "states",
          "type": "uint8"
        },
        {
          "internalType": "uint256",
          "name": "timeLock",
          "type": "uint256"
        },
        {
          "internalType": "uint256",
          "name": "amount",
          "type": "uint256"
        },
        {
          "internalType": "uint256",
          "name": "swapFee",
          "type": "uint256"
        },
        {
          "internalType": "uint256",
          "name": "txFee",
          "type": "uint256"
        },
        {
          "internalType": "address",
          "name": "traderAddress",
          "type": "address"
        },
        {
          "internalType": "address",
          "name": "withdrawAddress",
          "type": "address"
        },
        {
          "internalType": "bytes32",
          "name": "secretLock",
          "type": "bytes32"
        },
        {
          "internalType": "uint256",
          "name": "createTimestamp",
          "type": "uint256"
        }
      ],
      "stateMutability": "view",
      "type": "function"
    },
    {
      "inputs": [
        {
          "internalType": "bytes32",
          "name": "_boxID",
          "type": "bytes32"
        },
        {
          "internalType": "bytes",
          "name": "_secretKey",
          "type": "bytes"
        }
      ],
      "name": "closeDeposit",
      "outputs": [],
      "stateMutability": "nonpayable",
      "type": "function"
    },
    {
      "inputs": [
        {
          "internalType": "bytes32",
          "name": "_boxID",
          "type": "bytes32"
        },
        {
          "internalType": "bytes",
          "name": "_secretKey",
          "type": "bytes"
        }
      ],
      "name": "closeWithdraw",
      "outputs": [],
      "stateMutability": "nonpayable",
      "type": "function"
    },
    {
      "inputs": [
        {
          "internalType": "uint256",
          "name": "_amount",
          "type": "uint256"
        }
      ],
      "name": "decreaseLiquidity",
      "outputs": [],
      "stateMutability": "nonpayable",
      "type": "function"
    },
    {
      "inputs": [
        {
          "internalType": "bytes32",
          "name": "_boxID",
          "type": "bytes32"
        }
      ],
      "name": "expireDeposit",
      "outputs": [],
      "stateMutability": "nonpayable",
      "type": "function"
    },
    {
      "inputs": [
        {
          "internalType": "bytes32",
          "name": "_boxID",
          "type": "bytes32"
        }
      ],
      "name": "expireWithdraw",
      "outputs": [],
      "stateMutability": "nonpayable",
      "type": "function"
    },
    {
      "inputs": [
        {
          "internalType": "bytes32",
          "name": "role",
          "type": "bytes32"
        }
      ],
      "name": "getRoleAdmin",
      "outputs": [
        {
          "internalType": "bytes32",
          "name": "",
          "type": "bytes32"
        }
      ],
      "stateMutability": "view",
      "type": "function"
    },
    {
      "inputs": [
        {
          "internalType": "bytes32",
          "name": "role",
          "type": "bytes32"
        },
        {
          "internalType": "address",
          "name": "account",
          "type": "address"
        }
      ],
      "name": "grantRole",
      "outputs": [],
      "stateMutability": "nonpayable",
      "type": "function"
    },
    {
      "inputs": [
        {
          "internalType": "bytes32",
          "name": "role",
          "type": "bytes32"
        },
        {
          "internalType": "address",
          "name": "account",
          "type": "address"
        }
      ],
      "name": "hasRole",
      "outputs": [
        {
          "internalType": "bool",
          "name": "",
          "type": "bool"
        }
      ],
      "stateMutability": "view",
      "type": "function"
    },
    {
      "inputs": [
        {
          "internalType": "address",
          "name": "_provider",
          "type": "address"
        },
        {
          "internalType": "uint256",
          "name": "_amount",
          "type": "uint256"
        }
      ],
      "name": "increaseLiquidity",
      "outputs": [],
      "stateMutability": "nonpayable",
      "type": "function"
    },
    {
      "inputs": [
        {
          "internalType": "address",
          "name": "account",
          "type": "address"
        }
      ],
      "name": "isManager",
      "outputs": [
        {
          "internalType": "bool",
          "name": "",
          "type": "bool"
        }
      ],
      "stateMutability": "view",
      "type": "function"
    },
    {
      "inputs": [
        {
          "internalType": "address",
          "name": "",
          "type": "address"
        }
      ],
      "name": "liquidBalance",
      "outputs": [
        {
          "internalType": "uint256",
          "name": "",
          "type": "uint256"
        }
      ],
      "stateMutability": "view",
      "type": "function"
    },
    {
      "inputs": [
        {
          "internalType": "bytes32",
          "name": "_boxID",
          "type": "bytes32"
        },
        {
          "internalType": "uint256",
          "name": "_amount",
          "type": "uint256"
        },
        {
          "internalType": "uint256",
          "name": "_swapFee",
          "type": "uint256"
        },
        {
          "internalType": "uint256",
          "name": "_txFee",
          "type": "uint256"
        },
        {
          "internalType": "address",
          "name": "_withdrawAddress",
          "type": "address"
        },
        {
          "internalType": "bytes32",
          "name": "_secretLock",
          "type": "bytes32"
        }
      ],
      "name": "openDeposit",
      "outputs": [],
      "stateMutability": "nonpayable",
      "type": "function"
    },
    {
      "inputs": [
        {
          "internalType": "bytes32",
          "name": "_boxID",
          "type": "bytes32"
        },
        {
          "internalType": "uint256",
          "name": "_amount",
          "type": "uint256"
        },
        {
          "internalType": "uint256",
          "name": "_swapFee",
          "type": "uint256"
        },
        {
          "internalType": "uint256",
          "name": "_txFee",
          "type": "uint256"
        },
        {
          "internalType": "address",
          "name": "_traderAddress",
          "type": "address"
        },
        {
          "internalType": "address",
          "name": "_withdrawAddress",
          "type": "address"
        },
        {
          "internalType": "bytes32",
          "name": "_secretLock",
          "type": "bytes32"
        }
      ],
      "name": "openWithdraw",
      "outputs": [],
      "stateMutability": "nonpayable",
      "type": "function"
    },
    {
      "inputs": [],
      "name": "owner",
      "outputs": [
        {
          "internalType": "address",
          "name": "",
          "type": "address"
        }
      ],
      "stateMutability": "view",
      "type": "function"
    },
    {
      "inputs": [
        {
          "internalType": "address",
          "name": "account",
          "type": "address"
        }
      ],
      "name": "removeManager",
      "outputs": [],
      "stateMutability": "nonpayable",
      "type": "function"
    },
    {
      "inputs": [],
      "name": "renounceOwnership",
      "outputs": [],
      "stateMutability": "nonpayable",
      "type": "function"
    },
    {
      "inputs": [
        {
          "internalType": "bytes32",
          "name": "role",
          "type": "bytes32"
        },
        {
          "internalType": "address",
          "name": "account",
          "type": "address"
        }
      ],
      "name": "renounceRole",
      "outputs": [],
      "stateMutability": "nonpayable",
      "type": "function"
    },
    {
      "inputs": [
        {
          "internalType": "bytes32",
          "name": "role",
          "type": "bytes32"
        },
        {
          "internalType": "address",
          "name": "account",
          "type": "address"
        }
      ],
      "name": "revokeRole",
      "outputs": [],
      "stateMutability": "nonpayable",
      "type": "function"
    },
    {
      "inputs": [
        {
          "internalType": "bytes4",
          "name": "interfaceId",
          "type": "bytes4"
        }
      ],
      "name": "supportsInterface",
      "outputs": [
        {
          "internalType": "bool",
          "name": "",
          "type": "bool"
        }
      ],
      "stateMutability": "view",
      "type": "function"
    },
    {
      "inputs": [
        {
          "internalType": "address",
          "name": "newOwner",
          "type": "address"
        }
      ],
      "name": "transferOwnership",
      "outputs": [],
      "stateMutability": "nonpayable",
      "type": "function"
    }
  ],
  "bytecode": "0x60806040523480156200001157600080fd5b5060405162006422380380620064228339818101604052810190620000379190620004aa565b620000576200004b620001a460201b60201c565b620001ac60201b60201c565b6200006c6000801b336200027260201b60201c565b620000ad7f241ecf16d79d0f8dbfb92cbc07fe17840425976cf0667f022fe9877caa831b08620000a1620001a460201b60201c565b6200027260201b60201c565b620000e27f241ecf16d79d0f8dbfb92cbc07fe17840425976cf0667f022fe9877caa831b086000801b6200028860201b60201c565b83600260006101000a81548173ffffffffffffffffffffffffffffffffffffffff021916908373ffffffffffffffffffffffffffffffffffffffff16021790555060028362000132919062000516565b6004819055508260058190555081600360006101000a81548173ffffffffffffffffffffffffffffffffffffffff021916908373ffffffffffffffffffffffffffffffffffffffff16021790555080600360146101000a81548160ff021916908315150217905550505050506200063e565b600033905090565b6000600160009054906101000a900473ffffffffffffffffffffffffffffffffffffffff16905081600160006101000a81548173ffffffffffffffffffffffffffffffffffffffff021916908373ffffffffffffffffffffffffffffffffffffffff1602179055508173ffffffffffffffffffffffffffffffffffffffff168173ffffffffffffffffffffffffffffffffffffffff167f8be0079c531659141344cd1fd0a4f28419497f9722a3daafe3b4186f6b6457e060405160405180910390a35050565b620002848282620002eb60201b60201c565b5050565b60006200029b83620003dc60201b60201c565b905081600080858152602001908152602001600020600101819055508181847fbd79b86ffe0ab8e8776151514217cd7cacd52c909f66475c3af44e129f0b00ff60405160405180910390a4505050565b620002fd8282620003fb60201b60201c565b620003d857600160008084815260200190815260200160002060000160008373ffffffffffffffffffffffffffffffffffffffff1673ffffffffffffffffffffffffffffffffffffffff16815260200190815260200160002060006101000a81548160ff0219169083151502179055506200037d620001a460201b60201c565b73ffffffffffffffffffffffffffffffffffffffff168173ffffffffffffffffffffffffffffffffffffffff16837f2f8788117e7eff1d82e926ec794901d17c78024a50270940304540a733656f0d60405160405180910390a45b5050565b6000806000838152602001908152602001600020600101549050919050565b600080600084815260200190815260200160002060000160008373ffffffffffffffffffffffffffffffffffffffff1673ffffffffffffffffffffffffffffffffffffffff16815260200190815260200160002060009054906101000a900460ff16905092915050565b6000815190506200047681620005f0565b92915050565b6000815190506200048d816200060a565b92915050565b600081519050620004a48162000624565b92915050565b60008060008060808587031215620004c157600080fd5b6000620004d18782880162000465565b9450506020620004e48782880162000493565b9350506040620004f78782880162000465565b92505060606200050a878288016200047c565b91505092959194509250565b60006200052382620005b7565b91506200053083620005b7565b9250817fffffffffffffffffffffffffffffffffffffffffffffffffffffffffffffffff04831182151516156200056c576200056b620005c1565b5b828202905092915050565b6000620005848262000597565b9050919050565b60008115159050919050565b600073ffffffffffffffffffffffffffffffffffffffff82169050919050565b6000819050919050565b7f4e487b7100000000000000000000000000000000000000000000000000000000600052601160045260246000fd5b620005fb8162000577565b81146200060757600080fd5b50565b62000615816200058b565b81146200062157600080fd5b50565b6200062f81620005b7565b81146200063b57600080fd5b50565b615dd4806200064e6000396000f3fe608060405234801561001057600080fd5b50600436106101cf5760003560e01c80637ad28c5111610104578063a72fb5c0116100a2578063d547741f11610071578063d547741f14610546578063ec87621c14610562578063f2fde38b14610580578063f3ae24151461059c576101cf565b8063a72fb5c01461049a578063ab7c01a4146104ca578063ac18de43146104fa578063c7f7a1ba14610516576101cf565b80638da5cb5b116100de5780638da5cb5b1461041257806391d1485414610430578063a217fddf14610460578063a4f0abf11461047e576101cf565b80637ad28c51146103be578063808b9327146103da578063829874ca146103f6576101cf565b806336568abe1161017157806354849c9a1161014b57806354849c9a146103305780636849a3311461034c5780636e84009314610384578063715018a6146103b4576101cf565b806336568abe146102dc578063439c0e25146102f85780634909ab9e14610314576101cf565b8063248a9ca3116101ad578063248a9ca31461023c5780632d06177a1461026c5780632d860f40146102885780632f2ff15d146102c0576101cf565b806301ffc9a7146101d45780630843436d1461020457806316b9995514610220575b600080fd5b6101ee60048036038101906101e99190614442565b6105cc565b6040516101fb919061545b565b60405180910390f35b61021e6004803603810190610219919061431b565b610646565b005b61023a60048036038101906102359190614239565b610c12565b005b61025660048036038101906102519190614239565b610dff565b6040516102639190615476565b60405180910390f35b610286600480360381019061028191906141ab565b610e1e565b005b6102a2600480360381019061029d9190614239565b610ec7565b6040516102b79998979695949392919061550c565b60405180910390f35b6102da60048036038101906102d5919061428b565b6110e1565b005b6102f660048036038101906102f1919061428b565b61110a565b005b610312600480360381019061030d919061446b565b61118d565b005b61032e600480360381019061032991906142c7565b6114a3565b005b61034a600480360381019061034591906143b9565b611b64565b005b61036660048036038101906103619190614239565b6121a8565b60405161037b9998979695949392919061550c565b60405180910390f35b61039e600480360381019061039991906141ab565b6123c2565b6040516103ab919061595b565b60405180910390f35b6103bc61240b565b005b6103d860048036038101906103d3919061446b565b612493565b005b6103f460048036038101906103ef9190614239565b612531565b005b610410600480360381019061040b91906141d4565b6129b8565b005b61041a612c90565b60405161042791906153b7565b60405180910390f35b61044a6004803603810190610445919061428b565b612cba565b604051610457919061545b565b60405180910390f35b610468612d24565b6040516104759190615476565b60405180910390f35b610498600480360381019061049391906142c7565b612d2b565b005b6104b460048036038101906104af91906141ab565b613216565b6040516104c1919061595b565b60405180910390f35b6104e460048036038101906104df9190614239565b61322e565b6040516104f191906154ea565b60405180910390f35b610514600480360381019061050f91906141ab565b6134af565b005b610530600480360381019061052b9190614239565b613558565b60405161053d91906154ea565b60405180910390f35b610560600480360381019061055b919061428b565b6137d9565b005b61056a613802565b6040516105779190615476565b60405180910390f35b61059a600480360381019061059591906141ab565b613826565b005b6105b660048036038101906105b191906141ab565b61391e565b6040516105c3919061545b565b60405180910390f35b60007f7965db0b000000000000000000000000000000000000000000000000000000007bffffffffffffffffffffffffffffffffffffffffffffffffffffffff1916827bffffffffffffffffffffffffffffffffffffffffffffffffffffffff1916148061063f575061063e82613951565b5b9050919050565b61064f3361391e565b61068e576040517f08c379a00000000000000000000000000000000000000000000000000000000081526004016106859061585b565b60405180910390fd5b86600060038111156106c9577f4e487b7100000000000000000000000000000000000000000000000000000000600052602160045260246000fd5b6009600083815260200190815260200160002060009054906101000a900460ff166003811115610722577f4e487b7100000000000000000000000000000000000000000000000000000000600052602160045260246000fd5b14610762576040517f08c379a00000000000000000000000000000000000000000000000000000000081526004016107599061575b565b60405180910390fd5b6000600381111561079c577f4e487b7100000000000000000000000000000000000000000000000000000000600052602160045260246000fd5b600960008a815260200190815260200160002060009054906101000a900460ff1660038111156107f5577f4e487b7100000000000000000000000000000000000000000000000000000000600052602160045260246000fd5b14610835576040517f08c379a000000000000000000000000000000000000000000000000000000000815260040161082c9061575b565b60405180910390fd5b600061084187876139bb565b9050878110610885576040517f08c379a000000000000000000000000000000000000000000000000000000000815260040161087c906157fb565b60405180910390fd5b600061089189836139d1565b90506000600260009054906101000a900473ffffffffffffffffffffffffffffffffffffffff1690508073ffffffffffffffffffffffffffffffffffffffff166370a08231306040518263ffffffff1660e01b81526004016108f391906153b7565b60206040518083038186803b15801561090b57600080fd5b505afa15801561091f573d6000803e3d6000fd5b505050506040513d601f19601f820116820180604052508101906109439190614494565b821115610985576040517f08c379a000000000000000000000000000000000000000000000000000000000815260040161097c9061583b565b60405180910390fd5b600060405180610120016040528060055481526020018c81526020018b81526020018a81526020018973ffffffffffffffffffffffffffffffffffffffff1681526020018873ffffffffffffffffffffffffffffffffffffffff168152602001878152602001600067ffffffffffffffff811115610a2c577f4e487b7100000000000000000000000000000000000000000000000000000000600052604160045260246000fd5b6040519080825280601f01601f191660200182016040528015610a5e5781602001600182028036833780820191505090505b50815260200142815250905080600860008e81526020019081526020016000206000820151816000015560208201518160010155604082015181600201556060820151816003015560808201518160040160006101000a81548173ffffffffffffffffffffffffffffffffffffffff021916908373ffffffffffffffffffffffffffffffffffffffff16021790555060a08201518160050160006101000a81548173ffffffffffffffffffffffffffffffffffffffff021916908373ffffffffffffffffffffffffffffffffffffffff16021790555060c0820151816006015560e0820151816007019080519060200190610b5a92919061400d565b5061010082015181600801559050506001600960008e815260200190815260200160002060006101000a81548160ff02191690836003811115610bc6577f4e487b7100000000000000000000000000000000000000000000000000000000600052602160045260246000fd5b02179055507fc49c6a2e27722bfd7cff78433c963ac6ae93291acd415ce5009c1202c899bf8a8c87604051610bfc929190615491565b60405180910390a1505050505050505050505050565b8060016003811115610c4d577f4e487b7100000000000000000000000000000000000000000000000000000000600052602160045260246000fd5b6009600083815260200190815260200160002060009054906101000a900460ff166003811115610ca6577f4e487b7100000000000000000000000000000000000000000000000000000000600052602160045260246000fd5b14610ce6576040517f08c379a0000000000000000000000000000000000000000000000000000000008152600401610cdd9061567b565b60405180910390fd5b814260086000838152602001908152602001600020600801546008600084815260200190815260200160002060000154610d209190615a25565b1115610d61576040517f08c379a0000000000000000000000000000000000000000000000000000000008152600401610d589061571b565b60405180910390fd5b60036009600085815260200190815260200160002060006101000a81548160ff02191690836003811115610dbe577f4e487b7100000000000000000000000000000000000000000000000000000000600052602160045260246000fd5b02179055507f825d0863b13ffd24b85a8f9dfaa25c198f30bd39ca7928974507b4cdac588b4083604051610df29190615476565b60405180910390a1505050565b6000806000838152602001908152602001600020600101549050919050565b610e266139e7565b73ffffffffffffffffffffffffffffffffffffffff16610e44612c90565b73ffffffffffffffffffffffffffffffffffffffff1614610e9a576040517f08c379a0000000000000000000000000000000000000000000000000000000008152600401610e91906157bb565b60405180910390fd5b610ec47f241ecf16d79d0f8dbfb92cbc07fe17840425976cf0667f022fe9877caa831b08826110e1565b50565b600080600080600080600080600080600860008c815260200190815260200160002060405180610120016040529081600082015481526020016001820154815260200160028201548152602001600382015481526020016004820160009054906101000a900473ffffffffffffffffffffffffffffffffffffffff1673ffffffffffffffffffffffffffffffffffffffff1673ffffffffffffffffffffffffffffffffffffffff1681526020016005820160009054906101000a900473ffffffffffffffffffffffffffffffffffffffff1673ffffffffffffffffffffffffffffffffffffffff1673ffffffffffffffffffffffffffffffffffffffff16815260200160068201548152602001600782018054610fe390615c18565b80601f016020809104026020016040519081016040528092919081815260200182805461100f90615c18565b801561105c5780601f106110315761010080835404028352916020019161105c565b820191906000526020600020905b81548152906001019060200180831161103f57829003601f168201915b5050505050815260200160088201548152505090506000600960008d815260200190815260200160002060009054906101000a900460ff16905080826000015183602001518460400151856060015186608001518760a001518860c001518961010001519a509a509a509a509a509a509a509a509a5050509193959799909294969850565b6110ea82610dff565b6110fb816110f66139e7565b6139ef565b6111058383613a8c565b505050565b6111126139e7565b73ffffffffffffffffffffffffffffffffffffffff168173ffffffffffffffffffffffffffffffffffffffff161461117f576040517f08c379a00000000000000000000000000000000000000000000000000000000081526004016111769061591b565b60405180910390fd5b6111898282613b6c565b5050565b600081116111d0576040517f08c379a00000000000000000000000000000000000000000000000000000000081526004016111c79061587b565b60405180910390fd5b6000600a60003373ffffffffffffffffffffffffffffffffffffffff1673ffffffffffffffffffffffffffffffffffffffff16815260200190815260200160002054905080821115611257576040517f08c379a000000000000000000000000000000000000000000000000000000000815260040161124e9061593b565b60405180910390fd5b6000600260009054906101000a900473ffffffffffffffffffffffffffffffffffffffff1690508073ffffffffffffffffffffffffffffffffffffffff166370a08231306040518263ffffffff1660e01b81526004016112b791906153b7565b60206040518083038186803b1580156112cf57600080fd5b505afa1580156112e3573d6000803e3d6000fd5b505050506040513d601f19601f820116820180604052508101906113079190614494565b831115611349576040517f08c379a00000000000000000000000000000000000000000000000000000000081526004016113409061577b565b60405180910390fd5b8073ffffffffffffffffffffffffffffffffffffffff1663a9059cbb33856040518363ffffffff1660e01b8152600401611384929190615432565b602060405180830381600087803b15801561139e57600080fd5b505af11580156113b2573d6000803e3d6000fd5b505050506040513d601f19601f820116820180604052508101906113d69190614210565b611415576040517f08c379a000000000000000000000000000000000000000000000000000000000815260040161140c906156fb565b60405180910390fd5b61141f82846139d1565b915081600a60003373ffffffffffffffffffffffffffffffffffffffff1673ffffffffffffffffffffffffffffffffffffffff168152602001908152602001600020819055507f5cc7dbec835e645ab42a9b1f151d8c99c63251d19e539492b7ebb637eaf72f363384604051611496929190615432565b60405180910390a1505050565b81600160038111156114de577f4e487b7100000000000000000000000000000000000000000000000000000000600052602160045260246000fd5b6009600083815260200190815260200160002060009054906101000a900460ff166003811115611537577f4e487b7100000000000000000000000000000000000000000000000000000000600052602160045260246000fd5b14611577576040517f08c379a000000000000000000000000000000000000000000000000000000000815260040161156e9061567b565b60405180910390fd5b82826002816040516115899190615366565b602060405180830381855afa1580156115a6573d6000803e3d6000fd5b5050506040513d601f19601f820116820180604052508101906115c99190614262565b600860008481526020019081526020016000206006015414611620576040517f08c379a00000000000000000000000000000000000000000000000000000000081526004016116179061579b565b60405180910390fd5b60006008600087815260200190815260200160002060405180610120016040529081600082015481526020016001820154815260200160028201548152602001600382015481526020016004820160009054906101000a900473ffffffffffffffffffffffffffffffffffffffff1673ffffffffffffffffffffffffffffffffffffffff1673ffffffffffffffffffffffffffffffffffffffff1681526020016005820160009054906101000a900473ffffffffffffffffffffffffffffffffffffffff1673ffffffffffffffffffffffffffffffffffffffff1673ffffffffffffffffffffffffffffffffffffffff1681526020016006820154815260200160078201805461172f90615c18565b80601f016020809104026020016040519081016040528092919081815260200182805461175b90615c18565b80156117a85780601f1061177d576101008083540402835291602001916117a8565b820191906000526020600020905b81548152906001019060200180831161178b57829003601f168201915b50505050508152602001600882015481525050905060006117d1826040015183606001516139bb565b905060006117e38360200151836139d1565b9050600360149054906101000a900460ff16156118d1576000600a6000600360009054906101000a900473ffffffffffffffffffffffffffffffffffffffff1673ffffffffffffffffffffffffffffffffffffffff1673ffffffffffffffffffffffffffffffffffffffff16815260200190815260200160002054905061186a81846139bb565b600a6000600360009054906101000a900473ffffffffffffffffffffffffffffffffffffffff1673ffffffffffffffffffffffffffffffffffffffff1673ffffffffffffffffffffffffffffffffffffffff16815260200190815260200160002081905550505b6000600260009054906101000a900473ffffffffffffffffffffffffffffffffffffffff1690508073ffffffffffffffffffffffffffffffffffffffff166370a08231306040518263ffffffff1660e01b815260040161193191906153b7565b60206040518083038186803b15801561194957600080fd5b505afa15801561195d573d6000803e3d6000fd5b505050506040513d601f19601f820116820180604052508101906119819190614494565b8211156119c3576040517f08c379a00000000000000000000000000000000000000000000000000000000081526004016119ba906157db565b60405180910390fd5b87600860008b815260200190815260200160002060070190805190602001906119ed92919061400d565b506002600960008b815260200190815260200160002060006101000a81548160ff02191690836003811115611a4b577f4e487b7100000000000000000000000000000000000000000000000000000000600052602160045260246000fd5b02179055508073ffffffffffffffffffffffffffffffffffffffff1663a9059cbb8560a00151846040518363ffffffff1660e01b8152600401611a8f929190615432565b602060405180830381600087803b158015611aa957600080fd5b505af1158015611abd573d6000803e3d6000fd5b505050506040513d601f19601f82011682018060405250810190611ae19190614210565b611b20576040517f08c379a0000000000000000000000000000000000000000000000000000000008152600401611b17906156bb565b60405180910390fd5b7f95ba8896cab059cc82657df1929eaf97d25375ab7a1d7bed1531299395d78b188989604051611b519291906154ba565b60405180910390a1505050505050505050565b8560006003811115611b9f577f4e487b7100000000000000000000000000000000000000000000000000000000600052602160045260246000fd5b6007600083815260200190815260200160002060009054906101000a900460ff166003811115611bf8577f4e487b7100000000000000000000000000000000000000000000000000000000600052602160045260246000fd5b14611c38576040517f08c379a0000000000000000000000000000000000000000000000000000000008152600401611c2f906158fb565b60405180910390fd5b60006003811115611c72577f4e487b7100000000000000000000000000000000000000000000000000000000600052602160045260246000fd5b6007600089815260200190815260200160002060009054906101000a900460ff166003811115611ccb577f4e487b7100000000000000000000000000000000000000000000000000000000600052602160045260246000fd5b14611d0b576040517f08c379a0000000000000000000000000000000000000000000000000000000008152600401611d02906158fb565b60405180910390fd5b6000611d1786866139bb565b9050868110611d5b576040517f08c379a0000000000000000000000000000000000000000000000000000000008152600401611d52906157fb565b60405180910390fd5b6000600260009054906101000a900473ffffffffffffffffffffffffffffffffffffffff1690508073ffffffffffffffffffffffffffffffffffffffff1663dd62ed3e33306040518363ffffffff1660e01b8152600401611dbd9291906153d2565b60206040518083038186803b158015611dd557600080fd5b505afa158015611de9573d6000803e3d6000fd5b505050506040513d601f19601f82011682018060405250810190611e0d9190614494565b881115611e4f576040517f08c379a0000000000000000000000000000000000000000000000000000000008152600401611e469061573b565b60405180910390fd5b8073ffffffffffffffffffffffffffffffffffffffff166323b872dd33308b6040518463ffffffff1660e01b8152600401611e8c939291906153fb565b602060405180830381600087803b158015611ea657600080fd5b505af1158015611eba573d6000803e3d6000fd5b505050506040513d601f19601f82011682018060405250810190611ede9190614210565b611f1d576040517f08c379a0000000000000000000000000000000000000000000000000000000008152600401611f149061563b565b60405180910390fd5b600060405180610120016040528060045481526020018a81526020018981526020018881526020013373ffffffffffffffffffffffffffffffffffffffff1681526020018773ffffffffffffffffffffffffffffffffffffffff168152602001868152602001600067ffffffffffffffff811115611fc4577f4e487b7100000000000000000000000000000000000000000000000000000000600052604160045260246000fd5b6040519080825280601f01601f191660200182016040528015611ff65781602001600182028036833780820191505090505b50815260200142815250905080600660008c81526020019081526020016000206000820151816000015560208201518160010155604082015181600201556060820151816003015560808201518160040160006101000a81548173ffffffffffffffffffffffffffffffffffffffff021916908373ffffffffffffffffffffffffffffffffffffffff16021790555060a08201518160050160006101000a81548173ffffffffffffffffffffffffffffffffffffffff021916908373ffffffffffffffffffffffffffffffffffffffff16021790555060c0820151816006015560e08201518160070190805190602001906120f292919061400d565b5061010082015181600801559050506001600760008c815260200190815260200160002060006101000a81548160ff0219169083600381111561215e577f4e487b7100000000000000000000000000000000000000000000000000000000600052602160045260246000fd5b02179055507f5faaa1cf928498f8b434c97cb1f6d72e6b65923d6fe2888feb009e3d5fe8dd288a86604051612194929190615491565b60405180910390a150505050505050505050565b600080600080600080600080600080600660008c815260200190815260200160002060405180610120016040529081600082015481526020016001820154815260200160028201548152602001600382015481526020016004820160009054906101000a900473ffffffffffffffffffffffffffffffffffffffff1673ffffffffffffffffffffffffffffffffffffffff1673ffffffffffffffffffffffffffffffffffffffff1681526020016005820160009054906101000a900473ffffffffffffffffffffffffffffffffffffffff1673ffffffffffffffffffffffffffffffffffffffff1673ffffffffffffffffffffffffffffffffffffffff168152602001600682015481526020016007820180546122c490615c18565b80601f01602080910402602001604051908101604052809291908181526020018280546122f090615c18565b801561233d5780601f106123125761010080835404028352916020019161233d565b820191906000526020600020905b81548152906001019060200180831161232057829003601f168201915b5050505050815260200160088201548152505090506000600760008d815260200190815260200160002060009054906101000a900460ff16905080826000015183602001518460400151856060015186608001518760a001518860c001518961010001519a509a509a509a509a509a509a509a509a5050509193959799909294969850565b6000600a60008373ffffffffffffffffffffffffffffffffffffffff1673ffffffffffffffffffffffffffffffffffffffff168152602001908152602001600020549050919050565b6124136139e7565b73ffffffffffffffffffffffffffffffffffffffff16612431612c90565b73ffffffffffffffffffffffffffffffffffffffff1614612487576040517f08c379a000000000000000000000000000000000000000000000000000000000815260040161247e906157bb565b60405180910390fd5b6124916000613c4d565b565b61249c3361391e565b6124db576040517f08c379a00000000000000000000000000000000000000000000000000000000081526004016124d29061585b565b60405180910390fd5b6002816124e89190615a7b565b600481905550806005819055507f64728aea34ac309b1c81424cc427d789a01aa85691b27ebfa0be5ae8c322ca73600454604051612526919061595b565b60405180910390a150565b806001600381111561256c577f4e487b7100000000000000000000000000000000000000000000000000000000600052602160045260246000fd5b6007600083815260200190815260200160002060009054906101000a900460ff1660038111156125c5577f4e487b7100000000000000000000000000000000000000000000000000000000600052602160045260246000fd5b14612605576040517f08c379a00000000000000000000000000000000000000000000000000000000081526004016125fc9061569b565b60405180910390fd5b81426006600083815260200190815260200160002060080154600660008481526020019081526020016000206000015461263f9190615a25565b1115612680576040517f08c379a0000000000000000000000000000000000000000000000000000000008152600401612677906158db565b60405180910390fd5b60006006600085815260200190815260200160002060405180610120016040529081600082015481526020016001820154815260200160028201548152602001600382015481526020016004820160009054906101000a900473ffffffffffffffffffffffffffffffffffffffff1673ffffffffffffffffffffffffffffffffffffffff1673ffffffffffffffffffffffffffffffffffffffff1681526020016005820160009054906101000a900473ffffffffffffffffffffffffffffffffffffffff1673ffffffffffffffffffffffffffffffffffffffff1673ffffffffffffffffffffffffffffffffffffffff1681526020016006820154815260200160078201805461278f90615c18565b80601f01602080910402602001604051908101604052809291908181526020018280546127bb90615c18565b80156128085780601f106127dd57610100808354040283529160200191612808565b820191906000526020600020905b8154815290600101906020018083116127eb57829003601f168201915b50505050508152602001600882015481525050905060036007600086815260200190815260200160002060006101000a81548160ff0219169083600381111561287a577f4e487b7100000000000000000000000000000000000000000000000000000000600052602160045260246000fd5b02179055506000600260009054906101000a900473ffffffffffffffffffffffffffffffffffffffff1690508073ffffffffffffffffffffffffffffffffffffffff1663a9059cbb836080015184602001516040518363ffffffff1660e01b81526004016128e9929190615432565b602060405180830381600087803b15801561290357600080fd5b505af1158015612917573d6000803e3d6000fd5b505050506040513d601f19601f8201168201806040525081019061293b9190614210565b61297a576040517f08c379a0000000000000000000000000000000000000000000000000000000008152600401612971906158bb565b60405180910390fd5b7f106871623781e69dca1d81068bb94c2b7cb78425866dd9a3afbe299ddb2bb869856040516129a99190615476565b60405180910390a15050505050565b600081116129fb576040517f08c379a00000000000000000000000000000000000000000000000000000000081526004016129f29061561b565b60405180910390fd5b6000600260009054906101000a900473ffffffffffffffffffffffffffffffffffffffff1690508073ffffffffffffffffffffffffffffffffffffffff1663dd62ed3e84306040518363ffffffff1660e01b8152600401612a5d9291906153d2565b60206040518083038186803b158015612a7557600080fd5b505afa158015612a89573d6000803e3d6000fd5b505050506040513d601f19601f82011682018060405250810190612aad9190614494565b821115612aef576040517f08c379a0000000000000000000000000000000000000000000000000000000008152600401612ae6906156db565b60405180910390fd5b8073ffffffffffffffffffffffffffffffffffffffff166323b872dd8430856040518463ffffffff1660e01b8152600401612b2c939291906153fb565b602060405180830381600087803b158015612b4657600080fd5b505af1158015612b5a573d6000803e3d6000fd5b505050506040513d601f19601f82011682018060405250810190612b7e9190614210565b612bbd576040517f08c379a0000000000000000000000000000000000000000000000000000000008152600401612bb4906155db565b60405180910390fd5b6000600a60008573ffffffffffffffffffffffffffffffffffffffff1673ffffffffffffffffffffffffffffffffffffffff168152602001908152602001600020549050612c0b81846139bb565b905080600a60008673ffffffffffffffffffffffffffffffffffffffff1673ffffffffffffffffffffffffffffffffffffffff168152602001908152602001600020819055507f68dfc3961252b2985417f44cbe6fd4d5b04dac5c8b25b1350da2f572a4ce64998484604051612c82929190615432565b60405180910390a150505050565b6000600160009054906101000a900473ffffffffffffffffffffffffffffffffffffffff16905090565b600080600084815260200190815260200160002060000160008373ffffffffffffffffffffffffffffffffffffffff1673ffffffffffffffffffffffffffffffffffffffff16815260200190815260200160002060009054906101000a900460ff16905092915050565b6000801b81565b8160016003811115612d66577f4e487b7100000000000000000000000000000000000000000000000000000000600052602160045260246000fd5b6007600083815260200190815260200160002060009054906101000a900460ff166003811115612dbf577f4e487b7100000000000000000000000000000000000000000000000000000000600052602160045260246000fd5b14612dff576040517f08c379a0000000000000000000000000000000000000000000000000000000008152600401612df69061569b565b60405180910390fd5b8282600281604051612e119190615366565b602060405180830381855afa158015612e2e573d6000803e3d6000fd5b5050506040513d601f19601f82011682018060405250810190612e519190614262565b600660008481526020019081526020016000206006015414612ea8576040517f08c379a0000000000000000000000000000000000000000000000000000000008152600401612e9f9061589b565b60405180910390fd5b600360149054906101000a900460ff16156131495760006006600087815260200190815260200160002060405180610120016040529081600082015481526020016001820154815260200160028201548152602001600382015481526020016004820160009054906101000a900473ffffffffffffffffffffffffffffffffffffffff1673ffffffffffffffffffffffffffffffffffffffff1673ffffffffffffffffffffffffffffffffffffffff1681526020016005820160009054906101000a900473ffffffffffffffffffffffffffffffffffffffff1673ffffffffffffffffffffffffffffffffffffffff1673ffffffffffffffffffffffffffffffffffffffff16815260200160068201548152602001600782018054612fcc90615c18565b80601f0160208091040260200160405190810160405280929190818152602001828054612ff890615c18565b80156130455780601f1061301a57610100808354040283529160200191613045565b820191906000526020600020905b81548152906001019060200180831161302857829003601f168201915b505050505081526020016008820154815250509050600061306e826040015183606001516139bb565b90506000600a6000600360009054906101000a900473ffffffffffffffffffffffffffffffffffffffff1673ffffffffffffffffffffffffffffffffffffffff1673ffffffffffffffffffffffffffffffffffffffff1681526020019081526020016000205490506130e081836139bb565b600a6000600360009054906101000a900473ffffffffffffffffffffffffffffffffffffffff1673ffffffffffffffffffffffffffffffffffffffff1673ffffffffffffffffffffffffffffffffffffffff168152602001908152602001600020819055505050505b8360066000878152602001908152602001600020600701908051906020019061317392919061400d565b5060026007600087815260200190815260200160002060006101000a81548160ff021916908360038111156131d1577f4e487b7100000000000000000000000000000000000000000000000000000000600052602160045260246000fd5b02179055507f1477d37ce3a7a9aa2840d29808113cfbd3c2cc73a0d080110430dfa472d8772c85856040516132079291906154ba565b60405180910390a15050505050565b600a6020528060005260406000206000915090505481565b6060816002600381111561326b577f4e487b7100000000000000000000000000000000000000000000000000000000600052602160045260246000fd5b6009600083815260200190815260200160002060009054906101000a900460ff1660038111156132c4577f4e487b7100000000000000000000000000000000000000000000000000000000600052602160045260246000fd5b14613304576040517f08c379a00000000000000000000000000000000000000000000000000000000081526004016132fb9061581b565b60405180910390fd5b60006008600085815260200190815260200160002060405180610120016040529081600082015481526020016001820154815260200160028201548152602001600382015481526020016004820160009054906101000a900473ffffffffffffffffffffffffffffffffffffffff1673ffffffffffffffffffffffffffffffffffffffff1673ffffffffffffffffffffffffffffffffffffffff1681526020016005820160009054906101000a900473ffffffffffffffffffffffffffffffffffffffff1673ffffffffffffffffffffffffffffffffffffffff1673ffffffffffffffffffffffffffffffffffffffff1681526020016006820154815260200160078201805461341390615c18565b80601f016020809104026020016040519081016040528092919081815260200182805461343f90615c18565b801561348c5780601f106134615761010080835404028352916020019161348c565b820191906000526020600020905b81548152906001019060200180831161346f57829003601f168201915b5050505050815260200160088201548152505090508060e0015192505050919050565b6134b76139e7565b73ffffffffffffffffffffffffffffffffffffffff166134d5612c90565b73ffffffffffffffffffffffffffffffffffffffff161461352b576040517f08c379a0000000000000000000000000000000000000000000000000000000008152600401613522906157bb565b60405180910390fd5b6135557f241ecf16d79d0f8dbfb92cbc07fe17840425976cf0667f022fe9877caa831b08826137d9565b50565b60608160026003811115613595577f4e487b7100000000000000000000000000000000000000000000000000000000600052602160045260246000fd5b6007600083815260200190815260200160002060009054906101000a900460ff1660038111156135ee577f4e487b7100000000000000000000000000000000000000000000000000000000600052602160045260246000fd5b1461362e576040517f08c379a0000000000000000000000000000000000000000000000000000000008152600401613625906155fb565b60405180910390fd5b60006006600085815260200190815260200160002060405180610120016040529081600082015481526020016001820154815260200160028201548152602001600382015481526020016004820160009054906101000a900473ffffffffffffffffffffffffffffffffffffffff1673ffffffffffffffffffffffffffffffffffffffff1673ffffffffffffffffffffffffffffffffffffffff1681526020016005820160009054906101000a900473ffffffffffffffffffffffffffffffffffffffff1673ffffffffffffffffffffffffffffffffffffffff1673ffffffffffffffffffffffffffffffffffffffff1681526020016006820154815260200160078201805461373d90615c18565b80601f016020809104026020016040519081016040528092919081815260200182805461376990615c18565b80156137b65780601f1061378b576101008083540402835291602001916137b6565b820191906000526020600020905b81548152906001019060200180831161379957829003601f168201915b5050505050815260200160088201548152505090508060e0015192505050919050565b6137e282610dff565b6137f3816137ee6139e7565b6139ef565b6137fd8383613b6c565b505050565b7f241ecf16d79d0f8dbfb92cbc07fe17840425976cf0667f022fe9877caa831b0881565b61382e6139e7565b73ffffffffffffffffffffffffffffffffffffffff1661384c612c90565b73ffffffffffffffffffffffffffffffffffffffff16146138a2576040517f08c379a0000000000000000000000000000000000000000000000000000000008152600401613899906157bb565b60405180910390fd5b600073ffffffffffffffffffffffffffffffffffffffff168173ffffffffffffffffffffffffffffffffffffffff161415613912576040517f08c379a00000000000000000000000000000000000000000000000000000000081526004016139099061565b565b60405180910390fd5b61391b81613c4d565b50565b600061394a7f241ecf16d79d0f8dbfb92cbc07fe17840425976cf0667f022fe9877caa831b0883612cba565b9050919050565b60007f01ffc9a7000000000000000000000000000000000000000000000000000000007bffffffffffffffffffffffffffffffffffffffffffffffffffffffff1916827bffffffffffffffffffffffffffffffffffffffffffffffffffffffff1916149050919050565b600081836139c99190615a25565b905092915050565b600081836139df9190615ad5565b905092915050565b600033905090565b6139f98282612cba565b613a8857613a1e8173ffffffffffffffffffffffffffffffffffffffff166014613d13565b613a2c8360001c6020613d13565b604051602001613a3d92919061537d565b6040516020818303038152906040526040517f08c379a0000000000000000000000000000000000000000000000000000000008152600401613a7f9190615599565b60405180910390fd5b5050565b613a968282612cba565b613b6857600160008084815260200190815260200160002060000160008373ffffffffffffffffffffffffffffffffffffffff1673ffffffffffffffffffffffffffffffffffffffff16815260200190815260200160002060006101000a81548160ff021916908315150217905550613b0d6139e7565b73ffffffffffffffffffffffffffffffffffffffff168173ffffffffffffffffffffffffffffffffffffffff16837f2f8788117e7eff1d82e926ec794901d17c78024a50270940304540a733656f0d60405160405180910390a45b5050565b613b768282612cba565b15613c4957600080600084815260200190815260200160002060000160008373ffffffffffffffffffffffffffffffffffffffff1673ffffffffffffffffffffffffffffffffffffffff16815260200190815260200160002060006101000a81548160ff021916908315150217905550613bee6139e7565b73ffffffffffffffffffffffffffffffffffffffff168173ffffffffffffffffffffffffffffffffffffffff16837ff6391f5c32d9c69d2a47ea670b442974b53935d1edc7fd64eb21e047a839171b60405160405180910390a45b5050565b6000600160009054906101000a900473ffffffffffffffffffffffffffffffffffffffff16905081600160006101000a81548173ffffffffffffffffffffffffffffffffffffffff021916908373ffffffffffffffffffffffffffffffffffffffff1602179055508173ffffffffffffffffffffffffffffffffffffffff168173ffffffffffffffffffffffffffffffffffffffff167f8be0079c531659141344cd1fd0a4f28419497f9722a3daafe3b4186f6b6457e060405160405180910390a35050565b606060006002836002613d269190615a7b565b613d309190615a25565b67ffffffffffffffff811115613d6f577f4e487b7100000000000000000000000000000000000000000000000000000000600052604160045260246000fd5b6040519080825280601f01601f191660200182016040528015613da15781602001600182028036833780820191505090505b5090507f300000000000000000000000000000000000000000000000000000000000000081600081518110613dff577f4e487b7100000000000000000000000000000000000000000000000000000000600052603260045260246000fd5b60200101907effffffffffffffffffffffffffffffffffffffffffffffffffffffffffffff1916908160001a9053507f780000000000000000000000000000000000000000000000000000000000000081600181518110613e89577f4e487b7100000000000000000000000000000000000000000000000000000000600052603260045260246000fd5b60200101907effffffffffffffffffffffffffffffffffffffffffffffffffffffffffffff1916908160001a90535060006001846002613ec99190615a7b565b613ed39190615a25565b90505b6001811115613fbf577f3031323334353637383961626364656600000000000000000000000000000000600f861660108110613f3b577f4e487b7100000000000000000000000000000000000000000000000000000000600052603260045260246000fd5b1a60f81b828281518110613f78577f4e487b7100000000000000000000000000000000000000000000000000000000600052603260045260246000fd5b60200101907effffffffffffffffffffffffffffffffffffffffffffffffffffffffffffff1916908160001a905350600485901c945080613fb890615bee565b9050613ed6565b5060008414614003576040517f08c379a0000000000000000000000000000000000000000000000000000000008152600401613ffa906155bb565b60405180910390fd5b8091505092915050565b82805461401990615c18565b90600052602060002090601f01602090048101928261403b5760008555614082565b82601f1061405457805160ff1916838001178555614082565b82800160010185558215614082579182015b82811115614081578251825591602001919060010190614066565b5b50905061408f9190614093565b5090565b5b808211156140ac576000816000905550600101614094565b5090565b60006140c36140be846159a7565b615976565b9050828152602081018484840111156140db57600080fd5b6140e6848285615bac565b509392505050565b6000813590506140fd81615d2b565b92915050565b60008151905061411281615d42565b92915050565b60008135905061412781615d59565b92915050565b60008151905061413c81615d59565b92915050565b60008135905061415181615d70565b92915050565b600082601f83011261416857600080fd5b81356141788482602086016140b0565b91505092915050565b60008135905061419081615d87565b92915050565b6000815190506141a581615d87565b92915050565b6000602082840312156141bd57600080fd5b60006141cb848285016140ee565b91505092915050565b600080604083850312156141e757600080fd5b60006141f5858286016140ee565b925050602061420685828601614181565b9150509250929050565b60006020828403121561422257600080fd5b600061423084828501614103565b91505092915050565b60006020828403121561424b57600080fd5b600061425984828501614118565b91505092915050565b60006020828403121561427457600080fd5b60006142828482850161412d565b91505092915050565b6000806040838503121561429e57600080fd5b60006142ac85828601614118565b92505060206142bd858286016140ee565b9150509250929050565b600080604083850312156142da57600080fd5b60006142e885828601614118565b925050602083013567ffffffffffffffff81111561430557600080fd5b61431185828601614157565b9150509250929050565b600080600080600080600060e0888a03121561433657600080fd5b60006143448a828b01614118565b97505060206143558a828b01614181565b96505060406143668a828b01614181565b95505060606143778a828b01614181565b94505060806143888a828b016140ee565b93505060a06143998a828b016140ee565b92505060c06143aa8a828b01614118565b91505092959891949750929550565b60008060008060008060c087890312156143d257600080fd5b60006143e089828a01614118565b96505060206143f189828a01614181565b955050604061440289828a01614181565b945050606061441389828a01614181565b935050608061442489828a016140ee565b92505060a061443589828a01614118565b9150509295509295509295565b60006020828403121561445457600080fd5b600061446284828501614142565b91505092915050565b60006020828403121561447d57600080fd5b600061448b84828501614181565b91505092915050565b6000602082840312156144a657600080fd5b60006144b484828501614196565b91505092915050565b6144c681615b09565b82525050565b6144d581615b1b565b82525050565b6144e481615b27565b82525050565b60006144f5826159d7565b6144ff81856159ed565b935061450f818560208601615bbb565b61451881615d06565b840191505092915050565b600061452e826159d7565b61453881856159fe565b9350614548818560208601615bbb565b80840191505092915050565b61455d81615b9a565b82525050565b600061456e826159e2565b6145788185615a09565b9350614588818560208601615bbb565b61459181615d06565b840191505092915050565b60006145a7826159e2565b6145b18185615a1a565b93506145c1818560208601615bbb565b80840191505092915050565b60006145da602083615a09565b91507f537472696e67733a20686578206c656e67746820696e73756666696369656e746000830152602082019050919050565b600061461a604b83615a09565b91507f416e206572726f72206f6363757272656420647572696e67207472616e73666560008301527f7220746f20746865206c69717569646974792e7c4552524f525f5452414e534660208301527f45525f494e4352454153450000000000000000000000000000000000000000006040830152606082019050919050565b60006146a6602f83615a09565b91507f546865206465706f73697420626f78206973206e6f7420636c6f73652e7c4e4f60008301527f545f434c4f53455f4445504f53495400000000000000000000000000000000006020830152604082019050919050565b600061470c603d83615a09565b91507f54686520616d6f756e74206d7573742062652067726561746572207468616e2060008301527f7a65726f2e7c494e56414c49445f414d4f554e545f494e4352454153450000006020830152604082019050919050565b6000614772605183615a09565b91507f416e206572726f72206f6363757272656420647572696e67207472616e73666560008301527f7220746f20746865206465706f73697420626f782e7c4552524f525f5452414e60208301527f534645525f4f50454e5f4445504f5349540000000000000000000000000000006040830152606082019050919050565b60006147fe602683615a09565b91507f4f776e61626c653a206e6577206f776e657220697320746865207a65726f206160008301527f64647265737300000000000000000000000000000000000000000000000000006020830152604082019050919050565b6000614864602f83615a09565b91507f54686520776974686472617720626f78206973206e6f74206f70656e2e7c4e4f60008301527f545f4f50454e5f574954484452415700000000000000000000000000000000006020830152604082019050919050565b60006148ca602d83615a09565b91507f546865206465706f73697420626f78206973206e6f74206f70656e2e7c4e4f5460008301527f5f4f50454e5f4445504f534954000000000000000000000000000000000000006020830152604082019050919050565b6000614930606083615a09565b91507f416e206572726f72206f6363757272656420647572696e6720726566756e642060008301527f746f2074686520757365722066726f6d2074686520776974686472617720626f60208301527f782e7c4552524f525f5452414e534645525f434c4f53455f57495448445241576040830152606082019050919050565b60006149bc605e83615a09565b91507f5468652073706563696669656420616d6f756e74206973206e6f7420616c6c6f60008301527f77656420746f206265207472616e7366657272656420746f20746865206c697160208301527f7569646974792e7c4e4f545f414c4c4f57414e43455f494e43524541534500006040830152606082019050919050565b6000614a48605783615a09565b91507f416e206572726f72206f6363757272656420647572696e6720726566756e642060008301527f746f2074686520757365722066726f6d20746865206c69717569646974792e7c60208301527f4552524f525f5452414e534645525f44454352454153450000000000000000006040830152606082019050919050565b6000614ad4603883615a09565b91507f54686520776974686472617720626f782063616e6e6f7420626520657870697260008301527f65642e7c4e4f545f455850495245445f574954484452415700000000000000006020830152604082019050919050565b6000614b3a606283615a09565b91507f5468652073706563696669656420616d6f756e74206973206e6f7420616c6c6f60008301527f77656420746f206265207472616e7366657272656420746f207468652064657060208301527f6f73697420626f782e7c4e4f545f414c4c4f5745445f4f50454e5f4445504f5360408301527f49540000000000000000000000000000000000000000000000000000000000006060830152608082019050919050565b6000614bec603683615a09565b91507f54686520776974686472617720626f7820616c7265616479206578697374732e60008301527f7c414c52454144595f4f50454e5f5749544844524157000000000000000000006020830152604082019050919050565b6000614c52603e83615a09565b91507f546865206c697175696469747920697320696e73756666696369656e742e7c4960008301527f4e53554646494349454e545f4c49515549444954595f444543524541534500006020830152604082019050919050565b6000614cb8603683615a09565b91507f49742773206e6f7420746865206b657920746f2074686520776974686472617760008301527f20626f782e7c4e4f545f4b45595f5749544844524157000000000000000000006020830152604082019050919050565b6000614d1e602083615a09565b91507f4f776e61626c653a2063616c6c6572206973206e6f7420746865206f776e65726000830152602082019050919050565b6000614d5e605883615a09565b91507f546865206c6971756964697479206f662074686520776974686472617720626f60008301527f7820697320696e73756666696369656e742e7c494e53554646494349454e545f60208301527f4c49515549444954595f434c4f53455f574954484452415700000000000000006040830152606082019050919050565b6000614dea602983615a09565b91507f5468652066656520697320696e73756666696369656e742e7c494e535546464960008301527f4349454e545f46454500000000000000000000000000000000000000000000006020830152604082019050919050565b6000614e50603183615a09565b91507f54686520776974686472617720626f78206973206e6f7420636c6f73652e7c4e60008301527f4f545f434c4f53455f57495448445241570000000000000000000000000000006020830152604082019050919050565b6000614eb6604e83615a09565b91507f546865206c6971756964697479206f6620746865207769746864726177616c2060008301527f626f7820697320696e73756666696369656e742e7c4e4f545f414c4c4f57454460208301527f5f4f50454e5f57495448445241570000000000000000000000000000000000006040830152606082019050919050565b6000614f42602883615a09565b91507f4f6e6c79206d616e61676572732063616e2063616c6c2e7c4e4f545f4d414e4160008301527f4745525f524f4c4c0000000000000000000000000000000000000000000000006020830152604082019050919050565b6000614fa8603d83615a09565b91507f54686520616d6f756e74206d7573742062652067726561746572207468616e2060008301527f7a65726f2e7c494e56414c49445f414d4f554e545f44454352454153450000006020830152604082019050919050565b600061500e603483615a09565b91507f49742773206e6f7420746865206b657920746f20746865206465706f7369742060008301527f626f782e7c4e4f545f4b45595f4445504f5349540000000000000000000000006020830152604082019050919050565b6000615074606383615a09565b91507f416e206572726f72206f6363757272656420647572696e67207468652072656660008301527f756e6420746f2074686520757365722066726f6d20746865206465706f73697460208301527f20626f782e7c4552524f525f5452414e534645525f4558504952455f4445504f60408301527f53495400000000000000000000000000000000000000000000000000000000006060830152608082019050919050565b6000615126603683615a09565b91507f546865206465706f73697420626f782063616e6e6f742062652065787069726560008301527f642e7c4e4f545f455850495245445f4445504f534954000000000000000000006020830152604082019050919050565b600061518c601783615a1a565b91507f416363657373436f6e74726f6c3a206163636f756e74200000000000000000006000830152601782019050919050565b60006151cc603483615a09565b91507f546865206465706f73697420626f7820616c7265616479206578697374732e7c60008301527f414c52454144595f4f50454e5f4445504f5349540000000000000000000000006020830152604082019050919050565b6000615232601183615a1a565b91507f206973206d697373696e6720726f6c65200000000000000000000000000000006000830152601182019050919050565b6000615272602f83615a09565b91507f416363657373436f6e74726f6c3a2063616e206f6e6c792072656e6f756e636560008301527f20726f6c657320666f722073656c6600000000000000000000000000000000006020830152604082019050919050565b60006152d8604483615a09565b91507f546865206c6971756964697479206f66207573657220697320696e737566666960008301527f6369656e742e7c494e53554646494349454e545f42414c414e43455f4445435260208301527f45415345000000000000000000000000000000000000000000000000000000006040830152606082019050919050565b61536081615b90565b82525050565b60006153728284614523565b915081905092915050565b60006153888261517f565b9150615394828561459c565b915061539f82615225565b91506153ab828461459c565b91508190509392505050565b60006020820190506153cc60008301846144bd565b92915050565b60006040820190506153e760008301856144bd565b6153f460208301846144bd565b9392505050565b600060608201905061541060008301866144bd565b61541d60208301856144bd565b61542a6040830184615357565b949350505050565b600060408201905061544760008301856144bd565b6154546020830184615357565b9392505050565b600060208201905061547060008301846144cc565b92915050565b600060208201905061548b60008301846144db565b92915050565b60006040820190506154a660008301856144db565b6154b360208301846144db565b9392505050565b60006040820190506154cf60008301856144db565b81810360208301526154e181846144ea565b90509392505050565b6000602082019050818103600083015261550481846144ea565b905092915050565b600061012082019050615522600083018c614554565b61552f602083018b615357565b61553c604083018a615357565b6155496060830189615357565b6155566080830188615357565b61556360a08301876144bd565b61557060c08301866144bd565b61557d60e08301856144db565b61558b610100830184615357565b9a9950505050505050505050565b600060208201905081810360008301526155b38184614563565b905092915050565b600060208201905081810360008301526155d4816145cd565b9050919050565b600060208201905081810360008301526155f48161460d565b9050919050565b6000602082019050818103600083015261561481614699565b9050919050565b60006020820190508181036000830152615634816146ff565b9050919050565b6000602082019050818103600083015261565481614765565b9050919050565b60006020820190508181036000830152615674816147f1565b9050919050565b6000602082019050818103600083015261569481614857565b9050919050565b600060208201905081810360008301526156b4816148bd565b9050919050565b600060208201905081810360008301526156d481614923565b9050919050565b600060208201905081810360008301526156f4816149af565b9050919050565b6000602082019050818103600083015261571481614a3b565b9050919050565b6000602082019050818103600083015261573481614ac7565b9050919050565b6000602082019050818103600083015261575481614b2d565b9050919050565b6000602082019050818103600083015261577481614bdf565b9050919050565b6000602082019050818103600083015261579481614c45565b9050919050565b600060208201905081810360008301526157b481614cab565b9050919050565b600060208201905081810360008301526157d481614d11565b9050919050565b600060208201905081810360008301526157f481614d51565b9050919050565b6000602082019050818103600083015261581481614ddd565b9050919050565b6000602082019050818103600083015261583481614e43565b9050919050565b6000602082019050818103600083015261585481614ea9565b9050919050565b6000602082019050818103600083015261587481614f35565b9050919050565b6000602082019050818103600083015261589481614f9b565b9050919050565b600060208201905081810360008301526158b481615001565b9050919050565b600060208201905081810360008301526158d481615067565b9050919050565b600060208201905081810360008301526158f481615119565b9050919050565b60006020820190508181036000830152615914816151bf565b9050919050565b6000602082019050818103600083015261593481615265565b9050919050565b60006020820190508181036000830152615954816152cb565b9050919050565b60006020820190506159706000830184615357565b92915050565b6000604051905081810181811067ffffffffffffffff8211171561599d5761599c615cd7565b5b8060405250919050565b600067ffffffffffffffff8211156159c2576159c1615cd7565b5b601f19601f8301169050602081019050919050565b600081519050919050565b600081519050919050565b600082825260208201905092915050565b600081905092915050565b600082825260208201905092915050565b600081905092915050565b6000615a3082615b90565b9150615a3b83615b90565b9250827fffffffffffffffffffffffffffffffffffffffffffffffffffffffffffffffff03821115615a7057615a6f615c4a565b5b828201905092915050565b6000615a8682615b90565b9150615a9183615b90565b9250817fffffffffffffffffffffffffffffffffffffffffffffffffffffffffffffffff0483118215151615615aca57615ac9615c4a565b5b828202905092915050565b6000615ae082615b90565b9150615aeb83615b90565b925082821015615afe57615afd615c4a565b5b828203905092915050565b6000615b1482615b70565b9050919050565b60008115159050919050565b6000819050919050565b60007fffffffff0000000000000000000000000000000000000000000000000000000082169050919050565b6000819050615b6b82615d17565b919050565b600073ffffffffffffffffffffffffffffffffffffffff82169050919050565b6000819050919050565b6000615ba582615b5d565b9050919050565b82818337600083830152505050565b60005b83811015615bd9578082015181840152602081019050615bbe565b83811115615be8576000848401525b50505050565b6000615bf982615b90565b91506000821415615c0d57615c0c615c4a565b5b600182039050919050565b60006002820490506001821680615c3057607f821691505b60208210811415615c4457615c43615ca8565b5b50919050565b7f4e487b7100000000000000000000000000000000000000000000000000000000600052601160045260246000fd5b7f4e487b7100000000000000000000000000000000000000000000000000000000600052602160045260246000fd5b7f4e487b7100000000000000000000000000000000000000000000000000000000600052602260045260246000fd5b7f4e487b7100000000000000000000000000000000000000000000000000000000600052604160045260246000fd5b6000601f19601f8301169050919050565b60048110615d2857615d27615c79565b5b50565b615d3481615b09565b8114615d3f57600080fd5b50565b615d4b81615b1b565b8114615d5657600080fd5b50565b615d6281615b27565b8114615d6d57600080fd5b50565b615d7981615b31565b8114615d8457600080fd5b50565b615d9081615b90565b8114615d9b57600080fd5b5056fea2646970667358221220e8b223ed6fced66fe9f1c4f88fb7c46e5f50d39a0cee456b351710c644255dd064736f6c63430008000033",
  "linkReferences": {},
  "deployedLinkReferences": {}
}