{
  "_format": "hh-sol-artifact-1",
  "contractName": "PointTokenSwap",
  "sourceName": "contracts/swap/PointTokenSwap.sol",
  "abi": [
    {
      "inputs": [
        {
          "internalType": "address",
          "name": "_tokenContractAddress",
          "type": "address"
        },
        {
          "internalType": "address",
          "name": "_pointContractAddress",
          "type": "address"
        }
      ],
      "stateMutability": "nonpayable",
      "type": "constructor"
    },
    {
      "anonymous": false,
      "inputs": [
        {
          "indexed": false,
          "internalType": "uint256",
          "name": "amount",
          "type": "uint256"
        }
      ],
      "name": "ChangeSwapLimitPerDayAmount",
      "type": "event"
    },
    {
      "anonymous": false,
      "inputs": [],
      "name": "DisabledSwapLimitPerDay",
      "type": "event"
    },
    {
      "anonymous": false,
      "inputs": [],
      "name": "EnabledSwapLimitPerDay",
      "type": "event"
    },
    {
      "anonymous": false,
      "inputs": [
        {
          "indexed": true,
          "internalType": "address",
          "name": "previousOwner",
          "type": "address"
        },
        {
          "indexed": true,
          "internalType": "address",
          "name": "newOwner",
          "type": "address"
        }
      ],
      "name": "OwnershipTransferred",
      "type": "event"
    },
    {
      "anonymous": false,
      "inputs": [
        {
          "indexed": false,
          "internalType": "address",
          "name": "account",
          "type": "address"
        }
      ],
      "name": "Paused",
      "type": "event"
    },
    {
      "anonymous": false,
      "inputs": [
        {
          "indexed": false,
          "internalType": "uint256",
          "name": "amount",
          "type": "uint256"
        }
      ],
      "name": "ResetTodaySwapLimitAmount",
      "type": "event"
    },
    {
      "anonymous": false,
      "inputs": [
        {
          "indexed": true,
          "internalType": "bytes32",
          "name": "role",
          "type": "bytes32"
        },
        {
          "indexed": true,
          "internalType": "bytes32",
          "name": "previousAdminRole",
          "type": "bytes32"
        },
        {
          "indexed": true,
          "internalType": "bytes32",
          "name": "newAdminRole",
          "type": "bytes32"
        }
      ],
      "name": "RoleAdminChanged",
      "type": "event"
    },
    {
      "anonymous": false,
      "inputs": [
        {
          "indexed": true,
          "internalType": "bytes32",
          "name": "role",
          "type": "bytes32"
        },
        {
          "indexed": true,
          "internalType": "address",
          "name": "account",
          "type": "address"
        },
        {
          "indexed": true,
          "internalType": "address",
          "name": "sender",
          "type": "address"
        }
      ],
      "name": "RoleGranted",
      "type": "event"
    },
    {
      "anonymous": false,
      "inputs": [
        {
          "indexed": true,
          "internalType": "bytes32",
          "name": "role",
          "type": "bytes32"
        },
        {
          "indexed": true,
          "internalType": "address",
          "name": "account",
          "type": "address"
        },
        {
          "indexed": true,
          "internalType": "address",
          "name": "sender",
          "type": "address"
        }
      ],
      "name": "RoleRevoked",
      "type": "event"
    },
    {
      "anonymous": false,
      "inputs": [
        {
          "indexed": false,
          "internalType": "address",
          "name": "account",
          "type": "address"
        }
      ],
      "name": "Unpaused",
      "type": "event"
    },
    {
      "inputs": [],
      "name": "DEFAULT_ADMIN_ROLE",
      "outputs": [
        {
          "internalType": "bytes32",
          "name": "",
          "type": "bytes32"
        }
      ],
      "stateMutability": "view",
      "type": "function"
    },
    {
      "inputs": [],
      "name": "MANAGER_ROLE",
      "outputs": [
        {
          "internalType": "bytes32",
          "name": "",
          "type": "bytes32"
        }
      ],
      "stateMutability": "view",
      "type": "function"
    },
    {
      "inputs": [
        {
          "internalType": "address",
          "name": "account",
          "type": "address"
        }
      ],
      "name": "addManager",
      "outputs": [],
      "stateMutability": "nonpayable",
      "type": "function"
    },
    {
      "inputs": [],
      "name": "disableAllowManagerIncludedTransfer",
      "outputs": [],
      "stateMutability": "nonpayable",
      "type": "function"
    },
    {
      "inputs": [],
      "name": "disableSwapLimitPerDay",
      "outputs": [],
      "stateMutability": "nonpayable",
      "type": "function"
    },
    {
      "inputs": [],
      "name": "enableAllowManagerIncludedTransfer",
      "outputs": [],
      "stateMutability": "nonpayable",
      "type": "function"
    },
    {
      "inputs": [],
      "name": "enableSwapLimitPerDay",
      "outputs": [],
      "stateMutability": "nonpayable",
      "type": "function"
    },
    {
      "inputs": [
        {
          "internalType": "bytes32",
          "name": "role",
          "type": "bytes32"
        }
      ],
      "name": "getRoleAdmin",
      "outputs": [
        {
          "internalType": "bytes32",
          "name": "",
          "type": "bytes32"
        }
      ],
      "stateMutability": "view",
      "type": "function"
    },
    {
      "inputs": [],
      "name": "getTodaySwappableAmount",
      "outputs": [
        {
          "internalType": "uint256",
          "name": "",
          "type": "uint256"
        }
      ],
      "stateMutability": "view",
      "type": "function"
    },
    {
      "inputs": [],
      "name": "getTodaySwappedAmount",
      "outputs": [
        {
          "internalType": "uint256",
          "name": "",
          "type": "uint256"
        }
      ],
      "stateMutability": "view",
      "type": "function"
    },
    {
      "inputs": [
        {
          "internalType": "bytes32",
          "name": "role",
          "type": "bytes32"
        },
        {
          "internalType": "address",
          "name": "account",
          "type": "address"
        }
      ],
      "name": "grantRole",
      "outputs": [],
      "stateMutability": "nonpayable",
      "type": "function"
    },
    {
      "inputs": [
        {
          "internalType": "bytes32",
          "name": "role",
          "type": "bytes32"
        },
        {
          "internalType": "address",
          "name": "account",
          "type": "address"
        }
      ],
      "name": "hasRole",
      "outputs": [
        {
          "internalType": "bool",
          "name": "",
          "type": "bool"
        }
      ],
      "stateMutability": "view",
      "type": "function"
    },
    {
      "inputs": [],
      "name": "isAllowManagerIncludedTransfer",
      "outputs": [
        {
          "internalType": "bool",
          "name": "",
          "type": "bool"
        }
      ],
      "stateMutability": "view",
      "type": "function"
    },
    {
      "inputs": [
        {
          "internalType": "address",
          "name": "account",
          "type": "address"
        }
      ],
      "name": "isManager",
      "outputs": [
        {
          "internalType": "bool",
          "name": "",
          "type": "bool"
        }
      ],
      "stateMutability": "view",
      "type": "function"
    },
    {
      "inputs": [],
      "name": "isSwapLimitPerDay",
      "outputs": [
        {
          "internalType": "bool",
          "name": "",
          "type": "bool"
        }
      ],
      "stateMutability": "view",
      "type": "function"
    },
    {
      "inputs": [],
      "name": "owner",
      "outputs": [
        {
          "internalType": "address",
          "name": "",
          "type": "address"
        }
      ],
      "stateMutability": "view",
      "type": "function"
    },
    {
      "inputs": [],
      "name": "pause",
      "outputs": [],
      "stateMutability": "nonpayable",
      "type": "function"
    },
    {
      "inputs": [],
      "name": "paused",
      "outputs": [
        {
          "internalType": "bool",
          "name": "",
          "type": "bool"
        }
      ],
      "stateMutability": "view",
      "type": "function"
    },
    {
      "inputs": [
        {
          "internalType": "address",
          "name": "account",
          "type": "address"
        }
      ],
      "name": "removeManager",
      "outputs": [],
      "stateMutability": "nonpayable",
      "type": "function"
    },
    {
      "inputs": [],
      "name": "renounceOwnership",
      "outputs": [],
      "stateMutability": "nonpayable",
      "type": "function"
    },
    {
      "inputs": [
        {
          "internalType": "bytes32",
          "name": "role",
          "type": "bytes32"
        },
        {
          "internalType": "address",
          "name": "account",
          "type": "address"
        }
      ],
      "name": "renounceRole",
      "outputs": [],
      "stateMutability": "nonpayable",
      "type": "function"
    },
    {
      "inputs": [],
      "name": "resetTodaySwapAmount",
      "outputs": [],
      "stateMutability": "nonpayable",
      "type": "function"
    },
    {
      "inputs": [
        {
          "internalType": "bytes32",
          "name": "role",
          "type": "bytes32"
        },
        {
          "internalType": "address",
          "name": "account",
          "type": "address"
        }
      ],
      "name": "revokeRole",
      "outputs": [],
      "stateMutability": "nonpayable",
      "type": "function"
    },
    {
      "inputs": [
        {
          "internalType": "uint256",
          "name": "amount",
          "type": "uint256"
        }
      ],
      "name": "setSwapLimitPerDayAmount",
      "outputs": [],
      "stateMutability": "nonpayable",
      "type": "function"
    },
    {
      "inputs": [
        {
          "internalType": "bytes4",
          "name": "interfaceId",
          "type": "bytes4"
        }
      ],
      "name": "supportsInterface",
      "outputs": [
        {
          "internalType": "bool",
          "name": "",
          "type": "bool"
        }
      ],
      "stateMutability": "view",
      "type": "function"
    },
    {
      "inputs": [
        {
          "internalType": "uint256",
          "name": "_amount",
          "type": "uint256"
        }
      ],
      "name": "swapToPoint",
      "outputs": [],
      "stateMutability": "nonpayable",
      "type": "function"
    },
    {
      "inputs": [
        {
          "internalType": "uint256",
          "name": "_amount",
          "type": "uint256"
        }
      ],
      "name": "swapToToken",
      "outputs": [],
      "stateMutability": "nonpayable",
      "type": "function"
    },
    {
      "inputs": [
        {
          "internalType": "address",
          "name": "newOwner",
          "type": "address"
        }
      ],
      "name": "transferOwnership",
      "outputs": [],
      "stateMutability": "nonpayable",
      "type": "function"
    },
    {
      "inputs": [],
      "name": "unpause",
      "outputs": [],
      "stateMutability": "nonpayable",
      "type": "function"
    }
  ],
  "bytecode": "0x608060405260006002553480156200001657600080fd5b506040516200309b3803806200309b83398181016040528101906200003c919062000568565b6200005c620000506200027960201b60201c565b6200028160201b60201c565b60018060146101000a81548160ff0219169083151502179055506200008b6000801b336200034760201b60201c565b620000cc7f241ecf16d79d0f8dbfb92cbc07fe17840425976cf0667f022fe9877caa831b08620000c06200027960201b60201c565b6200034760201b60201c565b620001017f241ecf16d79d0f8dbfb92cbc07fe17840425976cf0667f022fe9877caa831b086000801b6200035d60201b60201c565b6000600160156101000a81548160ff0219169083151502179055506000600460006101000a81548160ff02191690831515021790555081600760006101000a81548173ffffffffffffffffffffffffffffffffffffffff021916908373ffffffffffffffffffffffffffffffffffffffff16021790555080600660006101000a81548173ffffffffffffffffffffffffffffffffffffffff021916908373ffffffffffffffffffffffffffffffffffffffff160217905550600760009054906101000a900473ffffffffffffffffffffffffffffffffffffffff1673ffffffffffffffffffffffffffffffffffffffff1663313ce5676040518163ffffffff1660e01b815260040160206040518083038186803b1580156200022257600080fd5b505afa15801562000237573d6000803e3d6000fd5b505050506040513d601f19601f820116820180604052508101906200025d9190620005a9565b600a6200026b919062000630565b600581905550505062000828565b600033905090565b6000600160009054906101000a900473ffffffffffffffffffffffffffffffffffffffff16905081600160006101000a81548173ffffffffffffffffffffffffffffffffffffffff021916908373ffffffffffffffffffffffffffffffffffffffff1602179055508173ffffffffffffffffffffffffffffffffffffffff168173ffffffffffffffffffffffffffffffffffffffff167f8be0079c531659141344cd1fd0a4f28419497f9722a3daafe3b4186f6b6457e060405160405180910390a35050565b620003598282620003c060201b60201c565b5050565b60006200037083620004b160201b60201c565b905081600080858152602001908152602001600020600101819055508181847fbd79b86ffe0ab8e8776151514217cd7cacd52c909f66475c3af44e129f0b00ff60405160405180910390a4505050565b620003d28282620004d060201b60201c565b620004ad57600160008084815260200190815260200160002060000160008373ffffffffffffffffffffffffffffffffffffffff1673ffffffffffffffffffffffffffffffffffffffff16815260200190815260200160002060006101000a81548160ff021916908315150217905550620004526200027960201b60201c565b73ffffffffffffffffffffffffffffffffffffffff168173ffffffffffffffffffffffffffffffffffffffff16837f2f8788117e7eff1d82e926ec794901d17c78024a50270940304540a733656f0d60405160405180910390a45b5050565b6000806000838152602001908152602001600020600101549050919050565b600080600084815260200190815260200160002060000160008373ffffffffffffffffffffffffffffffffffffffff1673ffffffffffffffffffffffffffffffffffffffff16815260200190815260200160002060009054906101000a900460ff16905092915050565b6000815190506200054b81620007f4565b92915050565b60008151905062000562816200080e565b92915050565b600080604083850312156200057c57600080fd5b60006200058c858286016200053a565b92505060206200059f858286016200053a565b9150509250929050565b600060208284031215620005bc57600080fd5b6000620005cc8482850162000551565b91505092915050565b6000808291508390505b60018511156200062757808604811115620005ff57620005fe620007b8565b5b60018516156200060f5780820291505b80810290506200061f85620007e7565b9450620005df565b94509492505050565b60006200063d82620007a1565b91506200064a83620007ab565b9250620006797fffffffffffffffffffffffffffffffffffffffffffffffffffffffffffffffff848462000681565b905092915050565b60008262000693576001905062000766565b81620006a3576000905062000766565b8160018114620006bc5760028114620006c757620006fd565b600191505062000766565b60ff841115620006dc57620006db620007b8565b5b8360020a915084821115620006f657620006f5620007b8565b5b5062000766565b5060208310610133831016604e8410600b8410161715620007375782820a905083811115620007315762000730620007b8565b5b62000766565b620007468484846001620005d5565b9250905081840481111562000760576200075f620007b8565b5b81810290505b9392505050565b60006200077a8262000781565b9050919050565b600073ffffffffffffffffffffffffffffffffffffffff82169050919050565b6000819050919050565b600060ff82169050919050565b7f4e487b7100000000000000000000000000000000000000000000000000000000600052601160045260246000fd5b60008160011c9050919050565b620007ff816200076d565b81146200080b57600080fd5b50565b6200081981620007ab565b81146200082557600080fd5b50565b61286380620008386000396000f3fe608060405234801561001057600080fd5b50600436106101cf5760003560e01c8063805b970311610104578063b4caa35f116100a2578063eb64710511610071578063eb6471051461045c578063ec87621c14610466578063f2fde38b14610484578063f3ae2415146104a0576101cf565b8063b4caa35f146103fa578063bb59f67d14610418578063d547741f14610436578063db9fe59514610452576101cf565b806391d14854116100de57806391d148541461037257806399cad166146103a2578063a217fddf146103c0578063ac18de43146103de576101cf565b8063805b97031461032e5780638456cb591461034a5780638da5cb5b14610354576101cf565b80633b4b8ce6116101715780635825a13b1161014b5780635825a13b146102de5780635c975abb146102fc5780636c76607e1461031a578063715018a614610324576101cf565b80633b4b8ce6146102c05780633f4ba83a146102ca57806347d30a9f146102d4576101cf565b80632d06177a116101ad5780632d06177a146102505780632f2ff15d1461026c57806331ff6d9d1461028857806336568abe146102a4576101cf565b806301ffc9a7146101d4578063248a9ca3146102045780632cc8390d14610234575b600080fd5b6101ee60048036038101906101e99190611e4a565b6104d0565b6040516101fb91906123a1565b60405180910390f35b61021e60048036038101906102199190611de5565b61054a565b60405161022b91906123bc565b60405180910390f35b61024e60048036038101906102499190611e73565b610569565b005b61026a60048036038101906102659190611d93565b6105df565b005b61028660048036038101906102819190611e0e565b610688565b005b6102a2600480360381019061029d9190611e73565b6106b1565b005b6102be60048036038101906102b99190611e0e565b610a98565b005b6102c8610b1b565b005b6102d2610b96565b005b6102dc610bd3565b005b6102e6610c23565b6040516102f391906123a1565b60405180910390f35b610304610c3a565b60405161031191906123a1565b60405180910390f35b610322610c51565b005b61032c610ccd565b005b61034860048036038101906103439190611e73565b610d55565b005b6103526110ba565b005b61035c6110f7565b60405161036991906122fd565b60405180910390f35b61038c60048036038101906103879190611e0e565b611121565b60405161039991906123a1565b60405180910390f35b6103aa61118b565b6040516103b791906123a1565b60405180910390f35b6103c86111a2565b6040516103d591906123bc565b60405180910390f35b6103f860048036038101906103f39190611d93565b6111a9565b005b610402611252565b60405161040f9190612519565b60405180910390f35b610420611274565b60405161042d9190612519565b60405180910390f35b610450600480360381019061044b9190611e0e565b6112bd565b005b61045a6112e6565b005b61046461138c565b005b61046e6113db565b60405161047b91906123bc565b60405180910390f35b61049e60048036038101906104999190611d93565b6113ff565b005b6104ba60048036038101906104b59190611d93565b6114f7565b6040516104c791906123a1565b60405180910390f35b60007f7965db0b000000000000000000000000000000000000000000000000000000007bffffffffffffffffffffffffffffffffffffffffffffffffffffffff1916827bffffffffffffffffffffffffffffffffffffffffffffffffffffffff1916148061054357506105428261152a565b5b9050919050565b6000806000838152602001908152602001600020600101549050919050565b7f241ecf16d79d0f8dbfb92cbc07fe17840425976cf0667f022fe9877caa831b0861059b81610596611594565b61159c565b816002819055507f5c9258b969308ea8dba92fdea18389b483de25d15247d171049b8736f417841a6002546040516105d39190612519565b60405180910390a15050565b6105e7611594565b73ffffffffffffffffffffffffffffffffffffffff166106056110f7565b73ffffffffffffffffffffffffffffffffffffffff161461065b576040517f08c379a0000000000000000000000000000000000000000000000000000000008152600401610652906124b9565b60405180910390fd5b6106857f241ecf16d79d0f8dbfb92cbc07fe17840425976cf0667f022fe9877caa831b0882610688565b50565b6106918261054a565b6106a28161069d611594565b61159c565b6106ac8383611639565b505050565b6106b9610c3a565b156106f9576040517f08c379a00000000000000000000000000000000000000000000000000000000081526004016106f090612479565b60405180910390fd5b80600160159054906101000a900460ff161561077a57806003600061071c611719565b815260200190815260200160002054610735919061255b565b6002541015610779576040517f08c379a000000000000000000000000000000000000000000000000000000000815260040161077090612499565b60405180910390fd5b5b6000600760009054906101000a900473ffffffffffffffffffffffffffffffffffffffff1690506000600660009054906101000a900473ffffffffffffffffffffffffffffffffffffffff1690508073ffffffffffffffffffffffffffffffffffffffff1663dd62ed3e33306040518363ffffffff1660e01b8152600401610803929190612318565b60206040518083038186803b15801561081b57600080fd5b505afa15801561082f573d6000803e3d6000fd5b505050506040513d601f19601f820116820180604052508101906108539190611e9c565b841115610895576040517f08c379a000000000000000000000000000000000000000000000000000000000815260040161088c90612459565b60405180910390fd5b8073ffffffffffffffffffffffffffffffffffffffff166323b872dd3330876040518463ffffffff1660e01b81526004016108d293929190612341565b602060405180830381600087803b1580156108ec57600080fd5b505af1158015610900573d6000803e3d6000fd5b505050506040513d601f19601f820116820180604052508101906109249190611dbc565b610963576040517f08c379a000000000000000000000000000000000000000000000000000000000815260040161095a906124d9565b60405180910390fd5b60006005548561097391906125e2565b90508173ffffffffffffffffffffffffffffffffffffffff16639dc29fac30876040518363ffffffff1660e01b81526004016109b0929190612378565b602060405180830381600087803b1580156109ca57600080fd5b505af11580156109de573d6000803e3d6000fd5b505050506040513d601f19601f82011682018060405250810190610a029190611dbc565b508273ffffffffffffffffffffffffffffffffffffffff166340c10f1933836040518363ffffffff1660e01b8152600401610a3e929190612378565b602060405180830381600087803b158015610a5857600080fd5b505af1158015610a6c573d6000803e3d6000fd5b505050506040513d601f19601f82011682018060405250810190610a909190611dbc565b505050505050565b610aa0611594565b73ffffffffffffffffffffffffffffffffffffffff168173ffffffffffffffffffffffffffffffffffffffff1614610b0d576040517f08c379a0000000000000000000000000000000000000000000000000000000008152600401610b04906124f9565b60405180910390fd5b610b17828261172f565b5050565b7f241ecf16d79d0f8dbfb92cbc07fe17840425976cf0667f022fe9877caa831b08610b4d81610b48611594565b61159c565b60018060156101000a81548160ff0219169083151502179055507fdb7601dc5e4c98f2b88d43953d505562663428f27a4b2a3286136d4dcbefe70d60405160405180910390a150565b7f241ecf16d79d0f8dbfb92cbc07fe17840425976cf0667f022fe9877caa831b08610bc881610bc3611594565b61159c565b610bd0611810565b50565b7f241ecf16d79d0f8dbfb92cbc07fe17840425976cf0667f022fe9877caa831b08610c0581610c00611594565b61159c565b6000600160146101000a81548160ff02191690831515021790555050565b6000600160149054906101000a900460ff16905090565b6000600460009054906101000a900460ff16905090565b7f241ecf16d79d0f8dbfb92cbc07fe17840425976cf0667f022fe9877caa831b08610c8381610c7e611594565b61159c565b6000600160156101000a81548160ff0219169083151502179055507f840c4a662bd11006ea7b9fd52a7dfdf6ea0793189300c047184f78393e3402ca60405160405180910390a150565b610cd5611594565b73ffffffffffffffffffffffffffffffffffffffff16610cf36110f7565b73ffffffffffffffffffffffffffffffffffffffff1614610d49576040517f08c379a0000000000000000000000000000000000000000000000000000000008152600401610d40906124b9565b60405180910390fd5b610d5360006118b2565b565b610d5d610c3a565b15610d9d576040517f08c379a0000000000000000000000000000000000000000000000000000000008152600401610d9490612479565b60405180910390fd5b6000600760009054906101000a900473ffffffffffffffffffffffffffffffffffffffff1690506000600660009054906101000a900473ffffffffffffffffffffffffffffffffffffffff1690508173ffffffffffffffffffffffffffffffffffffffff1663dd62ed3e33306040518363ffffffff1660e01b8152600401610e26929190612318565b60206040518083038186803b158015610e3e57600080fd5b505afa158015610e52573d6000803e3d6000fd5b505050506040513d601f19601f82011682018060405250810190610e769190611e9c565b831115610eb8576040517f08c379a0000000000000000000000000000000000000000000000000000000008152600401610eaf90612459565b60405180910390fd5b8173ffffffffffffffffffffffffffffffffffffffff166323b872dd3330866040518463ffffffff1660e01b8152600401610ef593929190612341565b602060405180830381600087803b158015610f0f57600080fd5b505af1158015610f23573d6000803e3d6000fd5b505050506040513d601f19601f82011682018060405250810190610f479190611dbc565b610f86576040517f08c379a0000000000000000000000000000000000000000000000000000000008152600401610f7d906124d9565b60405180910390fd5b600060055484610f9691906125b1565b90508273ffffffffffffffffffffffffffffffffffffffff16639dc29fac30866040518363ffffffff1660e01b8152600401610fd3929190612378565b602060405180830381600087803b158015610fed57600080fd5b505af1158015611001573d6000803e3d6000fd5b505050506040513d601f19601f820116820180604052508101906110259190611dbc565b508173ffffffffffffffffffffffffffffffffffffffff166340c10f1933836040518363ffffffff1660e01b8152600401611061929190612378565b602060405180830381600087803b15801561107b57600080fd5b505af115801561108f573d6000803e3d6000fd5b505050506040513d601f19601f820116820180604052508101906110b39190611dbc565b5050505050565b7f241ecf16d79d0f8dbfb92cbc07fe17840425976cf0667f022fe9877caa831b086110ec816110e7611594565b61159c565b6110f4611978565b50565b6000600160009054906101000a900473ffffffffffffffffffffffffffffffffffffffff16905090565b600080600084815260200190815260200160002060000160008373ffffffffffffffffffffffffffffffffffffffff1673ffffffffffffffffffffffffffffffffffffffff16815260200190815260200160002060009054906101000a900460ff16905092915050565b6000600160159054906101000a900460ff16905090565b6000801b81565b6111b1611594565b73ffffffffffffffffffffffffffffffffffffffff166111cf6110f7565b73ffffffffffffffffffffffffffffffffffffffff1614611225576040517f08c379a000000000000000000000000000000000000000000000000000000000815260040161121c906124b9565b60405180910390fd5b61124f7f241ecf16d79d0f8dbfb92cbc07fe17840425976cf0667f022fe9877caa831b08826112bd565b50565b600060036000611260611719565b815260200190815260200160002054905090565b60008060036000611283611719565b81526020019081526020016000205490508060025410156112a85760009150506112ba565b806002546112b6919061263c565b9150505b90565b6112c68261054a565b6112d7816112d2611594565b61159c565b6112e1838361172f565b505050565b7f241ecf16d79d0f8dbfb92cbc07fe17840425976cf0667f022fe9877caa831b0861131881611313611594565b61159c565b600060036000611326611719565b8152602001908152602001600020819055507fed1db08df9c5381d3c45b01cf679bffe62b2324a629abb509be8dcf113a6234360036000611365611719565b8152602001908152602001600020546040516113819190612519565b60405180910390a150565b7f241ecf16d79d0f8dbfb92cbc07fe17840425976cf0667f022fe9877caa831b086113be816113b9611594565b61159c565b60018060146101000a81548160ff02191690831515021790555050565b7f241ecf16d79d0f8dbfb92cbc07fe17840425976cf0667f022fe9877caa831b0881565b611407611594565b73ffffffffffffffffffffffffffffffffffffffff166114256110f7565b73ffffffffffffffffffffffffffffffffffffffff161461147b576040517f08c379a0000000000000000000000000000000000000000000000000000000008152600401611472906124b9565b60405180910390fd5b600073ffffffffffffffffffffffffffffffffffffffff168173ffffffffffffffffffffffffffffffffffffffff1614156114eb576040517f08c379a00000000000000000000000000000000000000000000000000000000081526004016114e290612439565b60405180910390fd5b6114f4816118b2565b50565b60006115237f241ecf16d79d0f8dbfb92cbc07fe17840425976cf0667f022fe9877caa831b0883611121565b9050919050565b60007f01ffc9a7000000000000000000000000000000000000000000000000000000007bffffffffffffffffffffffffffffffffffffffffffffffffffffffff1916827bffffffffffffffffffffffffffffffffffffffffffffffffffffffff1916149050919050565b600033905090565b6115a68282611121565b611635576115cb8173ffffffffffffffffffffffffffffffffffffffff166014611a1b565b6115d98360001c6020611a1b565b6040516020016115ea9291906122c3565b6040516020818303038152906040526040517f08c379a000000000000000000000000000000000000000000000000000000000815260040161162c91906123d7565b60405180910390fd5b5050565b6116438282611121565b61171557600160008084815260200190815260200160002060000160008373ffffffffffffffffffffffffffffffffffffffff1673ffffffffffffffffffffffffffffffffffffffff16815260200190815260200160002060006101000a81548160ff0219169083151502179055506116ba611594565b73ffffffffffffffffffffffffffffffffffffffff168173ffffffffffffffffffffffffffffffffffffffff16837f2f8788117e7eff1d82e926ec794901d17c78024a50270940304540a733656f0d60405160405180910390a45b5050565b6000620151804261172a91906125b1565b905090565b6117398282611121565b1561180c57600080600084815260200190815260200160002060000160008373ffffffffffffffffffffffffffffffffffffffff1673ffffffffffffffffffffffffffffffffffffffff16815260200190815260200160002060006101000a81548160ff0219169083151502179055506117b1611594565b73ffffffffffffffffffffffffffffffffffffffff168173ffffffffffffffffffffffffffffffffffffffff16837ff6391f5c32d9c69d2a47ea670b442974b53935d1edc7fd64eb21e047a839171b60405160405180910390a45b5050565b611818610c3a565b611857576040517f08c379a000000000000000000000000000000000000000000000000000000000815260040161184e90612419565b60405180910390fd5b6000600460006101000a81548160ff0219169083151502179055507f5db9ee0a495bf2e6ff9c91a7834c1ba4fdd244a5e8aa4e537bd38aeae4b073aa61189b611594565b6040516118a891906122fd565b60405180910390a1565b6000600160009054906101000a900473ffffffffffffffffffffffffffffffffffffffff16905081600160006101000a81548173ffffffffffffffffffffffffffffffffffffffff021916908373ffffffffffffffffffffffffffffffffffffffff1602179055508173ffffffffffffffffffffffffffffffffffffffff168173ffffffffffffffffffffffffffffffffffffffff167f8be0079c531659141344cd1fd0a4f28419497f9722a3daafe3b4186f6b6457e060405160405180910390a35050565b611980610c3a565b156119c0576040517f08c379a00000000000000000000000000000000000000000000000000000000081526004016119b790612479565b60405180910390fd5b6001600460006101000a81548160ff0219169083151502179055507f62e78cea01bee320cd4e420270b5ea74000d11b0c9f74754ebdbfc544b05a258611a04611594565b604051611a1191906122fd565b60405180910390a1565b606060006002836002611a2e91906125e2565b611a38919061255b565b67ffffffffffffffff811115611a77577f4e487b7100000000000000000000000000000000000000000000000000000000600052604160045260246000fd5b6040519080825280601f01601f191660200182016040528015611aa95781602001600182028036833780820191505090505b5090507f300000000000000000000000000000000000000000000000000000000000000081600081518110611b07577f4e487b7100000000000000000000000000000000000000000000000000000000600052603260045260246000fd5b60200101907effffffffffffffffffffffffffffffffffffffffffffffffffffffffffffff1916908160001a9053507f780000000000000000000000000000000000000000000000000000000000000081600181518110611b91577f4e487b7100000000000000000000000000000000000000000000000000000000600052603260045260246000fd5b60200101907effffffffffffffffffffffffffffffffffffffffffffffffffffffffffffff1916908160001a90535060006001846002611bd191906125e2565b611bdb919061255b565b90505b6001811115611cc7577f3031323334353637383961626364656600000000000000000000000000000000600f861660108110611c43577f4e487b7100000000000000000000000000000000000000000000000000000000600052603260045260246000fd5b1a60f81b828281518110611c80577f4e487b7100000000000000000000000000000000000000000000000000000000600052603260045260246000fd5b60200101907effffffffffffffffffffffffffffffffffffffffffffffffffffffffffffff1916908160001a905350600485901c945080611cc090612721565b9050611bde565b5060008414611d0b576040517f08c379a0000000000000000000000000000000000000000000000000000000008152600401611d02906123f9565b60405180910390fd5b8091505092915050565b600081359050611d24816127ba565b92915050565b600081519050611d39816127d1565b92915050565b600081359050611d4e816127e8565b92915050565b600081359050611d63816127ff565b92915050565b600081359050611d7881612816565b92915050565b600081519050611d8d81612816565b92915050565b600060208284031215611da557600080fd5b6000611db384828501611d15565b91505092915050565b600060208284031215611dce57600080fd5b6000611ddc84828501611d2a565b91505092915050565b600060208284031215611df757600080fd5b6000611e0584828501611d3f565b91505092915050565b60008060408385031215611e2157600080fd5b6000611e2f85828601611d3f565b9250506020611e4085828601611d15565b9150509250929050565b600060208284031215611e5c57600080fd5b6000611e6a84828501611d54565b91505092915050565b600060208284031215611e8557600080fd5b6000611e9384828501611d69565b91505092915050565b600060208284031215611eae57600080fd5b6000611ebc84828501611d7e565b91505092915050565b611ece81612670565b82525050565b611edd81612682565b82525050565b611eec8161268e565b82525050565b6000611efd82612534565b611f07818561253f565b9350611f178185602086016126ee565b611f20816127a9565b840191505092915050565b6000611f3682612534565b611f408185612550565b9350611f508185602086016126ee565b80840191505092915050565b6000611f6960208361253f565b91507f537472696e67733a20686578206c656e67746820696e73756666696369656e746000830152602082019050919050565b6000611fa960148361253f565b91507f5061757361626c653a206e6f74207061757365640000000000000000000000006000830152602082019050919050565b6000611fe960268361253f565b91507f4f776e61626c653a206e6577206f776e657220697320746865207a65726f206160008301527f64647265737300000000000000000000000000000000000000000000000000006020830152604082019050919050565b600061204f601f8361253f565b91507f446f206e6f7420617070726f766520666f722053776170436f6e7472616374006000830152602082019050919050565b600061208f60108361253f565b91507f5061757361626c653a20706175736564000000000000000000000000000000006000830152602082019050919050565b60006120cf60278361253f565b91507f53776170436f6e74726f6c3a204461696c792053776170204c696d697420457860008301527f6365656465642e000000000000000000000000000000000000000000000000006020830152604082019050919050565b600061213560208361253f565b91507f4f776e61626c653a2063616c6c6572206973206e6f7420746865206f776e65726000830152602082019050919050565b6000612175601783612550565b91507f416363657373436f6e74726f6c3a206163636f756e74200000000000000000006000830152601782019050919050565b60006121b560258361253f565b91507f4661696c656420746f2067657420746f6b656e20696e746f2053776170436f6e60008301527f74726163740000000000000000000000000000000000000000000000000000006020830152604082019050919050565b600061221b601183612550565b91507f206973206d697373696e6720726f6c65200000000000000000000000000000006000830152601182019050919050565b600061225b602f8361253f565b91507f416363657373436f6e74726f6c3a2063616e206f6e6c792072656e6f756e636560008301527f20726f6c657320666f722073656c6600000000000000000000000000000000006020830152604082019050919050565b6122bd816126e4565b82525050565b60006122ce82612168565b91506122da8285611f2b565b91506122e58261220e565b91506122f18284611f2b565b91508190509392505050565b60006020820190506123126000830184611ec5565b92915050565b600060408201905061232d6000830185611ec5565b61233a6020830184611ec5565b9392505050565b60006060820190506123566000830186611ec5565b6123636020830185611ec5565b61237060408301846122b4565b949350505050565b600060408201905061238d6000830185611ec5565b61239a60208301846122b4565b9392505050565b60006020820190506123b66000830184611ed4565b92915050565b60006020820190506123d16000830184611ee3565b92915050565b600060208201905081810360008301526123f18184611ef2565b905092915050565b6000602082019050818103600083015261241281611f5c565b9050919050565b6000602082019050818103600083015261243281611f9c565b9050919050565b6000602082019050818103600083015261245281611fdc565b9050919050565b6000602082019050818103600083015261247281612042565b9050919050565b6000602082019050818103600083015261249281612082565b9050919050565b600060208201905081810360008301526124b2816120c2565b9050919050565b600060208201905081810360008301526124d281612128565b9050919050565b600060208201905081810360008301526124f2816121a8565b9050919050565b600060208201905081810360008301526125128161224e565b9050919050565b600060208201905061252e60008301846122b4565b92915050565b600081519050919050565b600082825260208201905092915050565b600081905092915050565b6000612566826126e4565b9150612571836126e4565b9250827fffffffffffffffffffffffffffffffffffffffffffffffffffffffffffffffff038211156125a6576125a561274b565b5b828201905092915050565b60006125bc826126e4565b91506125c7836126e4565b9250826125d7576125d661277a565b5b828204905092915050565b60006125ed826126e4565b91506125f8836126e4565b9250817fffffffffffffffffffffffffffffffffffffffffffffffffffffffffffffffff04831182151516156126315761263061274b565b5b828202905092915050565b6000612647826126e4565b9150612652836126e4565b9250828210156126655761266461274b565b5b828203905092915050565b600061267b826126c4565b9050919050565b60008115159050919050565b6000819050919050565b60007fffffffff0000000000000000000000000000000000000000000000000000000082169050919050565b600073ffffffffffffffffffffffffffffffffffffffff82169050919050565b6000819050919050565b60005b8381101561270c5780820151818401526020810190506126f1565b8381111561271b576000848401525b50505050565b600061272c826126e4565b915060008214156127405761273f61274b565b5b600182039050919050565b7f4e487b7100000000000000000000000000000000000000000000000000000000600052601160045260246000fd5b7f4e487b7100000000000000000000000000000000000000000000000000000000600052601260045260246000fd5b6000601f19601f8301169050919050565b6127c381612670565b81146127ce57600080fd5b50565b6127da81612682565b81146127e557600080fd5b50565b6127f18161268e565b81146127fc57600080fd5b50565b61280881612698565b811461281357600080fd5b50565b61281f816126e4565b811461282a57600080fd5b5056fea2646970667358221220c800469660f8606d383915c3a78bdf97369ce5754f86bd19530d69d8e674b51d64736f6c63430008000033",
  "linkReferences": {},
  "deployedLinkReferences": {}
}