{
  "_format": "hh-sol-artifact-1",
  "contractName": "PointCoinSwap",
  "sourceName": "contracts/swap/PointCoinSwap.sol",
  "abi": [
    {
      "inputs": [
        {
          "internalType": "address",
          "name": "_pointContractAddress",
          "type": "address"
        },
        {
          "internalType": "address",
          "name": "_swapFeeManagerAddress",
          "type": "address"
        },
        {
          "internalType": "uint256",
          "name": "_defaultSwapFeeRate",
          "type": "uint256"
        }
      ],
      "stateMutability": "nonpayable",
      "type": "constructor"
    },
    {
      "anonymous": false,
      "inputs": [
        {
          "indexed": false,
          "internalType": "address",
          "name": "newManager",
          "type": "address"
        },
        {
          "indexed": false,
          "internalType": "uint256",
          "name": "liquidBalance",
          "type": "uint256"
        }
      ],
      "name": "ChangeSwapFeeManager",
      "type": "event"
    },
    {
      "anonymous": false,
      "inputs": [
        {
          "indexed": false,
          "internalType": "address",
          "name": "provider",
          "type": "address"
        },
        {
          "indexed": false,
          "internalType": "uint256",
          "name": "amount",
          "type": "uint256"
        }
      ],
      "name": "DecreasedCoinLiquidity",
      "type": "event"
    },
    {
      "anonymous": false,
      "inputs": [
        {
          "indexed": false,
          "internalType": "address",
          "name": "provider",
          "type": "address"
        },
        {
          "indexed": false,
          "internalType": "uint256",
          "name": "amount",
          "type": "uint256"
        }
      ],
      "name": "DecreasedPointLiquidity",
      "type": "event"
    },
    {
      "anonymous": false,
      "inputs": [
        {
          "indexed": false,
          "internalType": "address",
          "name": "provider",
          "type": "address"
        },
        {
          "indexed": false,
          "internalType": "uint256",
          "name": "amount",
          "type": "uint256"
        }
      ],
      "name": "IncreasedCoinLiquidity",
      "type": "event"
    },
    {
      "anonymous": false,
      "inputs": [
        {
          "indexed": false,
          "internalType": "address",
          "name": "provider",
          "type": "address"
        },
        {
          "indexed": false,
          "internalType": "uint256",
          "name": "amount",
          "type": "uint256"
        }
      ],
      "name": "IncreasedPointLiquidity",
      "type": "event"
    },
    {
      "anonymous": false,
      "inputs": [
        {
          "indexed": true,
          "internalType": "address",
          "name": "previousOwner",
          "type": "address"
        },
        {
          "indexed": true,
          "internalType": "address",
          "name": "newOwner",
          "type": "address"
        }
      ],
      "name": "OwnershipTransferred",
      "type": "event"
    },
    {
      "anonymous": false,
      "inputs": [
        {
          "indexed": false,
          "internalType": "address",
          "name": "account",
          "type": "address"
        }
      ],
      "name": "Paused",
      "type": "event"
    },
    {
      "anonymous": false,
      "inputs": [
        {
          "indexed": true,
          "internalType": "bytes32",
          "name": "role",
          "type": "bytes32"
        },
        {
          "indexed": true,
          "internalType": "bytes32",
          "name": "previousAdminRole",
          "type": "bytes32"
        },
        {
          "indexed": true,
          "internalType": "bytes32",
          "name": "newAdminRole",
          "type": "bytes32"
        }
      ],
      "name": "RoleAdminChanged",
      "type": "event"
    },
    {
      "anonymous": false,
      "inputs": [
        {
          "indexed": true,
          "internalType": "bytes32",
          "name": "role",
          "type": "bytes32"
        },
        {
          "indexed": true,
          "internalType": "address",
          "name": "account",
          "type": "address"
        },
        {
          "indexed": true,
          "internalType": "address",
          "name": "sender",
          "type": "address"
        }
      ],
      "name": "RoleGranted",
      "type": "event"
    },
    {
      "anonymous": false,
      "inputs": [
        {
          "indexed": true,
          "internalType": "bytes32",
          "name": "role",
          "type": "bytes32"
        },
        {
          "indexed": true,
          "internalType": "address",
          "name": "account",
          "type": "address"
        },
        {
          "indexed": true,
          "internalType": "address",
          "name": "sender",
          "type": "address"
        }
      ],
      "name": "RoleRevoked",
      "type": "event"
    },
    {
      "anonymous": false,
      "inputs": [
        {
          "indexed": false,
          "internalType": "address",
          "name": "account",
          "type": "address"
        }
      ],
      "name": "Unpaused",
      "type": "event"
    },
    {
      "inputs": [],
      "name": "DEFAULT_ADMIN_ROLE",
      "outputs": [
        {
          "internalType": "bytes32",
          "name": "",
          "type": "bytes32"
        }
      ],
      "stateMutability": "view",
      "type": "function"
    },
    {
      "inputs": [],
      "name": "MANAGER_ROLE",
      "outputs": [
        {
          "internalType": "bytes32",
          "name": "",
          "type": "bytes32"
        }
      ],
      "stateMutability": "view",
      "type": "function"
    },
    {
      "inputs": [
        {
          "internalType": "address",
          "name": "account",
          "type": "address"
        }
      ],
      "name": "addManager",
      "outputs": [],
      "stateMutability": "nonpayable",
      "type": "function"
    },
    {
      "inputs": [
        {
          "internalType": "address",
          "name": "_provider",
          "type": "address"
        }
      ],
      "name": "balanceOfCoinLiquidity",
      "outputs": [
        {
          "internalType": "uint256",
          "name": "amount",
          "type": "uint256"
        }
      ],
      "stateMutability": "view",
      "type": "function"
    },
    {
      "inputs": [
        {
          "internalType": "address",
          "name": "_provider",
          "type": "address"
        }
      ],
      "name": "balanceOfPointLiquidity",
      "outputs": [
        {
          "internalType": "uint256",
          "name": "amount",
          "type": "uint256"
        }
      ],
      "stateMutability": "view",
      "type": "function"
    },
    {
      "inputs": [
        {
          "internalType": "uint256",
          "name": "_amount",
          "type": "uint256"
        }
      ],
      "name": "decreaseCoinLiquidity",
      "outputs": [],
      "stateMutability": "nonpayable",
      "type": "function"
    },
    {
      "inputs": [
        {
          "internalType": "uint256",
          "name": "_amount",
          "type": "uint256"
        }
      ],
      "name": "decreasePointLiquidity",
      "outputs": [],
      "stateMutability": "nonpayable",
      "type": "function"
    },
    {
      "inputs": [],
      "name": "disableAllowManagerIncludedTransfer",
      "outputs": [],
      "stateMutability": "nonpayable",
      "type": "function"
    },
    {
      "inputs": [],
      "name": "enableAllowManagerIncludedTransfer",
      "outputs": [],
      "stateMutability": "nonpayable",
      "type": "function"
    },
    {
      "inputs": [],
      "name": "getBoaPrice",
      "outputs": [
        {
          "internalType": "uint256",
          "name": "",
          "type": "uint256"
        }
      ],
      "stateMutability": "view",
      "type": "function"
    },
    {
      "inputs": [
        {
          "internalType": "bytes32",
          "name": "role",
          "type": "bytes32"
        }
      ],
      "name": "getRoleAdmin",
      "outputs": [
        {
          "internalType": "bytes32",
          "name": "",
          "type": "bytes32"
        }
      ],
      "stateMutability": "view",
      "type": "function"
    },
    {
      "inputs": [],
      "name": "getSwapFeeManager",
      "outputs": [
        {
          "internalType": "address",
          "name": "",
          "type": "address"
        }
      ],
      "stateMutability": "view",
      "type": "function"
    },
    {
      "inputs": [],
      "name": "getSwapFeeRate",
      "outputs": [
        {
          "internalType": "uint256",
          "name": "",
          "type": "uint256"
        }
      ],
      "stateMutability": "view",
      "type": "function"
    },
    {
      "inputs": [
        {
          "internalType": "bytes32",
          "name": "role",
          "type": "bytes32"
        },
        {
          "internalType": "address",
          "name": "account",
          "type": "address"
        }
      ],
      "name": "grantRole",
      "outputs": [],
      "stateMutability": "nonpayable",
      "type": "function"
    },
    {
      "inputs": [
        {
          "internalType": "bytes32",
          "name": "role",
          "type": "bytes32"
        },
        {
          "internalType": "address",
          "name": "account",
          "type": "address"
        }
      ],
      "name": "hasRole",
      "outputs": [
        {
          "internalType": "bool",
          "name": "",
          "type": "bool"
        }
      ],
      "stateMutability": "view",
      "type": "function"
    },
    {
      "inputs": [],
      "name": "increaseCoinLiquidity",
      "outputs": [],
      "stateMutability": "payable",
      "type": "function"
    },
    {
      "inputs": [
        {
          "internalType": "uint256",
          "name": "_amount",
          "type": "uint256"
        }
      ],
      "name": "increasePointLiquidity",
      "outputs": [],
      "stateMutability": "nonpayable",
      "type": "function"
    },
    {
      "inputs": [],
      "name": "isAllowManagerIncludedTransfer",
      "outputs": [
        {
          "internalType": "bool",
          "name": "",
          "type": "bool"
        }
      ],
      "stateMutability": "view",
      "type": "function"
    },
    {
      "inputs": [
        {
          "internalType": "address",
          "name": "account",
          "type": "address"
        }
      ],
      "name": "isManager",
      "outputs": [
        {
          "internalType": "bool",
          "name": "",
          "type": "bool"
        }
      ],
      "stateMutability": "view",
      "type": "function"
    },
    {
      "inputs": [
        {
          "internalType": "address",
          "name": "",
          "type": "address"
        }
      ],
      "name": "liquidCoinBalance",
      "outputs": [
        {
          "internalType": "uint256",
          "name": "",
          "type": "uint256"
        }
      ],
      "stateMutability": "view",
      "type": "function"
    },
    {
      "inputs": [
        {
          "internalType": "address",
          "name": "",
          "type": "address"
        }
      ],
      "name": "liquidPointBalance",
      "outputs": [
        {
          "internalType": "uint256",
          "name": "",
          "type": "uint256"
        }
      ],
      "stateMutability": "view",
      "type": "function"
    },
    {
      "inputs": [],
      "name": "owner",
      "outputs": [
        {
          "internalType": "address",
          "name": "",
          "type": "address"
        }
      ],
      "stateMutability": "view",
      "type": "function"
    },
    {
      "inputs": [],
      "name": "pause",
      "outputs": [],
      "stateMutability": "nonpayable",
      "type": "function"
    },
    {
      "inputs": [],
      "name": "paused",
      "outputs": [
        {
          "internalType": "bool",
          "name": "",
          "type": "bool"
        }
      ],
      "stateMutability": "view",
      "type": "function"
    },
    {
      "inputs": [
        {
          "internalType": "address",
          "name": "account",
          "type": "address"
        }
      ],
      "name": "removeManager",
      "outputs": [],
      "stateMutability": "nonpayable",
      "type": "function"
    },
    {
      "inputs": [],
      "name": "renounceOwnership",
      "outputs": [],
      "stateMutability": "nonpayable",
      "type": "function"
    },
    {
      "inputs": [
        {
          "internalType": "bytes32",
          "name": "role",
          "type": "bytes32"
        },
        {
          "internalType": "address",
          "name": "account",
          "type": "address"
        }
      ],
      "name": "renounceRole",
      "outputs": [],
      "stateMutability": "nonpayable",
      "type": "function"
    },
    {
      "inputs": [
        {
          "internalType": "bytes32",
          "name": "role",
          "type": "bytes32"
        },
        {
          "internalType": "address",
          "name": "account",
          "type": "address"
        }
      ],
      "name": "revokeRole",
      "outputs": [],
      "stateMutability": "nonpayable",
      "type": "function"
    },
    {
      "inputs": [
        {
          "internalType": "uint256",
          "name": "_boaPrice",
          "type": "uint256"
        }
      ],
      "name": "setBoaPrice",
      "outputs": [],
      "stateMutability": "nonpayable",
      "type": "function"
    },
    {
      "inputs": [
        {
          "internalType": "address",
          "name": "_swapFeeManagerAddress",
          "type": "address"
        }
      ],
      "name": "setSwapFeeManager",
      "outputs": [],
      "stateMutability": "nonpayable",
      "type": "function"
    },
    {
      "inputs": [
        {
          "internalType": "uint256",
          "name": "_swapFeeRate",
          "type": "uint256"
        }
      ],
      "name": "setSwapFeeRate",
      "outputs": [],
      "stateMutability": "nonpayable",
      "type": "function"
    },
    {
      "inputs": [
        {
          "internalType": "bytes4",
          "name": "interfaceId",
          "type": "bytes4"
        }
      ],
      "name": "supportsInterface",
      "outputs": [
        {
          "internalType": "bool",
          "name": "",
          "type": "bool"
        }
      ],
      "stateMutability": "view",
      "type": "function"
    },
    {
      "inputs": [
        {
          "internalType": "uint256",
          "name": "_point_amount",
          "type": "uint256"
        }
      ],
      "name": "swapToCoin",
      "outputs": [],
      "stateMutability": "nonpayable",
      "type": "function"
    },
    {
      "inputs": [],
      "name": "swapToPoint",
      "outputs": [],
      "stateMutability": "payable",
      "type": "function"
    },
    {
      "inputs": [
        {
          "internalType": "address",
          "name": "newOwner",
          "type": "address"
        }
      ],
      "name": "transferOwnership",
      "outputs": [],
      "stateMutability": "nonpayable",
      "type": "function"
    },
    {
      "inputs": [],
      "name": "unpause",
      "outputs": [],
      "stateMutability": "nonpayable",
      "type": "function"
    }
  ],
  "bytecode": "0x6080604052670de0b6b3a76400006002553480156200001d57600080fd5b5060405162003d5438038062003d548339818101604052810190620000439190620004a4565b6200006362000057620001b560201b60201c565b620001bd60201b60201c565b60018060146101000a81548160ff021916908315150217905550620000926000801b336200028360201b60201c565b620000d37f241ecf16d79d0f8dbfb92cbc07fe17840425976cf0667f022fe9877caa831b08620000c7620001b560201b60201c565b6200028360201b60201c565b620001087f241ecf16d79d0f8dbfb92cbc07fe17840425976cf0667f022fe9877caa831b086000801b6200029960201b60201c565b6000600160156101000a81548160ff02191690831515021790555082600460006101000a81548173ffffffffffffffffffffffffffffffffffffffff021916908373ffffffffffffffffffffffffffffffffffffffff16021790555081600360006101000a81548173ffffffffffffffffffffffffffffffffffffffff021916908373ffffffffffffffffffffffffffffffffffffffff160217905550806006819055505050506200056c565b600033905090565b6000600160009054906101000a900473ffffffffffffffffffffffffffffffffffffffff16905081600160006101000a81548173ffffffffffffffffffffffffffffffffffffffff021916908373ffffffffffffffffffffffffffffffffffffffff1602179055508173ffffffffffffffffffffffffffffffffffffffff168173ffffffffffffffffffffffffffffffffffffffff167f8be0079c531659141344cd1fd0a4f28419497f9722a3daafe3b4186f6b6457e060405160405180910390a35050565b620002958282620002fc60201b60201c565b5050565b6000620002ac83620003ed60201b60201c565b905081600080858152602001908152602001600020600101819055508181847fbd79b86ffe0ab8e8776151514217cd7cacd52c909f66475c3af44e129f0b00ff60405160405180910390a4505050565b6200030e82826200040c60201b60201c565b620003e957600160008084815260200190815260200160002060000160008373ffffffffffffffffffffffffffffffffffffffff1673ffffffffffffffffffffffffffffffffffffffff16815260200190815260200160002060006101000a81548160ff0219169083151502179055506200038e620001b560201b60201c565b73ffffffffffffffffffffffffffffffffffffffff168173ffffffffffffffffffffffffffffffffffffffff16837f2f8788117e7eff1d82e926ec794901d17c78024a50270940304540a733656f0d60405160405180910390a45b5050565b6000806000838152602001908152602001600020600101549050919050565b600080600084815260200190815260200160002060000160008373ffffffffffffffffffffffffffffffffffffffff1673ffffffffffffffffffffffffffffffffffffffff16815260200190815260200160002060009054906101000a900460ff16905092915050565b600081519050620004878162000538565b92915050565b6000815190506200049e8162000552565b92915050565b600080600060608486031215620004ba57600080fd5b6000620004ca8682870162000476565b9350506020620004dd8682870162000476565b9250506040620004f0868287016200048d565b9150509250925092565b600062000507826200050e565b9050919050565b600073ffffffffffffffffffffffffffffffffffffffff82169050919050565b6000819050919050565b6200054381620004fa565b81146200054f57600080fd5b50565b6200055d816200052e565b81146200056957600080fd5b50565b6137d8806200057c6000396000f3fe60806040526004361061020f5760003560e01c8063a217fddf11610118578063e512e06f116100a0578063ec87621c1161006f578063ec87621c1461070d578063ef2ee70d14610738578063f2fde38b14610761578063f3ae24151461078a578063ffb4d9d1146107c75761020f565b8063e512e06f14610686578063e95901f514610690578063eb647105146106cd578063ebbc035b146106e45761020f565b8063d547741f116100e7578063d547741f146105c2578063d7bebff1146105eb578063d946693914610628578063da37bb3614610653578063dc79be631461065d5761020f565b8063a217fddf1461051c578063ac18de4314610547578063c888064e14610570578063d1154ff0146105995761020f565b80635825a13b1161019b5780638456cb591161016a5780638456cb59146104475780638bfb38341461045e5780638da5cb5b1461048957806391d14854146104b457806392eb2f76146104f15761020f565b80635825a13b146103b15780635c975abb146103dc578063715018a6146104075780637d13e5811461041e5761020f565b8063317a9182116101e2578063317a9182146102e057806336568abe1461031d5780633f4ba83a1461034657806347d30a9f1461035d57806348b7c43a146103745761020f565b806301ffc9a714610214578063248a9ca3146102515780632d06177a1461028e5780632f2ff15d146102b7575b600080fd5b34801561022057600080fd5b5061023b60048036038101906102369190612a75565b6107f0565b6040516102489190613256565b60405180910390f35b34801561025d57600080fd5b5061027860048036038101906102739190612a10565b61086a565b6040516102859190613271565b60405180910390f35b34801561029a57600080fd5b506102b560048036038101906102b091906129be565b610889565b005b3480156102c357600080fd5b506102de60048036038101906102d99190612a39565b610932565b005b3480156102ec57600080fd5b50610307600480360381019061030291906129be565b61095b565b604051610314919061348e565b60405180910390f35b34801561032957600080fd5b50610344600480360381019061033f9190612a39565b610973565b005b34801561035257600080fd5b5061035b6109f6565b005b34801561036957600080fd5b50610372610a4f565b005b34801561038057600080fd5b5061039b600480360381019061039691906129be565b610a9f565b6040516103a8919061348e565b60405180910390f35b3480156103bd57600080fd5b506103c6610ab7565b6040516103d39190613256565b60405180910390f35b3480156103e857600080fd5b506103f1610ace565b6040516103fe9190613256565b60405180910390f35b34801561041357600080fd5b5061041c610ae5565b005b34801561042a57600080fd5b5061044560048036038101906104409190612a9e565b610b6d565b005b34801561045357600080fd5b5061045c610e46565b005b34801561046a57600080fd5b50610473610e9f565b604051610480919061348e565b60405180910390f35b34801561049557600080fd5b5061049e610ea9565b6040516104ab91906131b2565b60405180910390f35b3480156104c057600080fd5b506104db60048036038101906104d69190612a39565b610ed3565b6040516104e89190613256565b60405180910390f35b3480156104fd57600080fd5b50610506610f3d565b60405161051391906131b2565b60405180910390f35b34801561052857600080fd5b50610531610f67565b60405161053e9190613271565b60405180910390f35b34801561055357600080fd5b5061056e600480360381019061056991906129be565b610f6e565b005b34801561057c57600080fd5b5061059760048036038101906105929190612a9e565b611017565b005b3480156105a557600080fd5b506105c060048036038101906105bb9190612a9e565b611306565b005b3480156105ce57600080fd5b506105e960048036038101906105e49190612a39565b61135f565b005b3480156105f757600080fd5b50610612600480360381019061060d91906129be565b611388565b60405161061f919061348e565b60405180910390f35b34801561063457600080fd5b5061063d6113d1565b60405161064a919061348e565b60405180910390f35b61065b6113db565b005b34801561066957600080fd5b50610684600480360381019061067f9190612a9e565b6114ad565b005b61068e6117c5565b005b34801561069c57600080fd5b506106b760048036038101906106b291906129be565b611a53565b6040516106c4919061348e565b60405180910390f35b3480156106d957600080fd5b506106e2611a9c565b005b3480156106f057600080fd5b5061070b60048036038101906107069190612a9e565b611aeb565b005b34801561071957600080fd5b50610722611cce565b60405161072f9190613271565b60405180910390f35b34801561074457600080fd5b5061075f600480360381019061075a9190612a9e565b611cf2565b005b34801561076d57600080fd5b50610788600480360381019061078391906129be565b611d4b565b005b34801561079657600080fd5b506107b160048036038101906107ac91906129be565b611e43565b6040516107be9190613256565b60405180910390f35b3480156107d357600080fd5b506107ee60048036038101906107e991906129be565b611e76565b005b60007f7965db0b000000000000000000000000000000000000000000000000000000007bffffffffffffffffffffffffffffffffffffffffffffffffffffffff1916827bffffffffffffffffffffffffffffffffffffffffffffffffffffffff19161480610863575061086282612148565b5b9050919050565b6000806000838152602001908152602001600020600101549050919050565b6108916121b2565b73ffffffffffffffffffffffffffffffffffffffff166108af610ea9565b73ffffffffffffffffffffffffffffffffffffffff1614610905576040517f08c379a00000000000000000000000000000000000000000000000000000000081526004016108fc906133ce565b60405180910390fd5b61092f7f241ecf16d79d0f8dbfb92cbc07fe17840425976cf0667f022fe9877caa831b0882610932565b50565b61093b8261086a565b61094c816109476121b2565b6121ba565b6109568383612257565b505050565b60076020528060005260406000206000915090505481565b61097b6121b2565b73ffffffffffffffffffffffffffffffffffffffff168173ffffffffffffffffffffffffffffffffffffffff16146109e8576040517f08c379a00000000000000000000000000000000000000000000000000000000081526004016109df9061346e565b60405180910390fd5b6109f28282612337565b5050565b610a06610a016121b2565b611e43565b610a45576040517f08c379a0000000000000000000000000000000000000000000000000000000008152600401610a3c906132ee565b60405180910390fd5b610a4d612418565b565b7f241ecf16d79d0f8dbfb92cbc07fe17840425976cf0667f022fe9877caa831b08610a8181610a7c6121b2565b6121ba565b6000600160146101000a81548160ff02191690831515021790555050565b60086020528060005260406000206000915090505481565b6000600160149054906101000a900460ff16905090565b6000600160159054906101000a900460ff16905090565b610aed6121b2565b73ffffffffffffffffffffffffffffffffffffffff16610b0b610ea9565b73ffffffffffffffffffffffffffffffffffffffff1614610b61576040517f08c379a0000000000000000000000000000000000000000000000000000000008152600401610b58906133ce565b60405180910390fd5b610b6b60006124ba565b565b60008111610bb0576040517f08c379a0000000000000000000000000000000000000000000000000000000008152600401610ba79061336e565b60405180910390fd5b6000600460009054906101000a900473ffffffffffffffffffffffffffffffffffffffff1690508073ffffffffffffffffffffffffffffffffffffffff1663dd62ed3e33306040518363ffffffff1660e01b8152600401610c129291906131cd565b60206040518083038186803b158015610c2a57600080fd5b505afa158015610c3e573d6000803e3d6000fd5b505050506040513d601f19601f82011682018060405250810190610c629190612ac7565b821115610ca4576040517f08c379a0000000000000000000000000000000000000000000000000000000008152600401610c9b9061338e565b60405180910390fd5b8073ffffffffffffffffffffffffffffffffffffffff166323b872dd3330856040518463ffffffff1660e01b8152600401610ce1939291906131f6565b602060405180830381600087803b158015610cfb57600080fd5b505af1158015610d0f573d6000803e3d6000fd5b505050506040513d601f19601f82011682018060405250810190610d3391906129e7565b610d72576040517f08c379a0000000000000000000000000000000000000000000000000000000008152600401610d699061344e565b60405180910390fd5b6000600860003373ffffffffffffffffffffffffffffffffffffffff1673ffffffffffffffffffffffffffffffffffffffff1681526020019081526020016000205490508281610dc291906134d0565b905080600860003373ffffffffffffffffffffffffffffffffffffffff1673ffffffffffffffffffffffffffffffffffffffff168152602001908152602001600020819055507fdd05df4f9311554311b0c6b001d0cf9ce5300f3d7d4dcd784de85b2a8008796f3384604051610e3992919061322d565b60405180910390a1505050565b610e56610e516121b2565b611e43565b610e95576040517f08c379a0000000000000000000000000000000000000000000000000000000008152600401610e8c906132ee565b60405180910390fd5b610e9d612580565b565b6000600554905090565b6000600160009054906101000a900473ffffffffffffffffffffffffffffffffffffffff16905090565b600080600084815260200190815260200160002060000160008373ffffffffffffffffffffffffffffffffffffffff1673ffffffffffffffffffffffffffffffffffffffff16815260200190815260200160002060009054906101000a900460ff16905092915050565b6000600360009054906101000a900473ffffffffffffffffffffffffffffffffffffffff16905090565b6000801b81565b610f766121b2565b73ffffffffffffffffffffffffffffffffffffffff16610f94610ea9565b73ffffffffffffffffffffffffffffffffffffffff1614610fea576040517f08c379a0000000000000000000000000000000000000000000000000000000008152600401610fe1906133ce565b60405180910390fd5b6110147f241ecf16d79d0f8dbfb92cbc07fe17840425976cf0667f022fe9877caa831b088261135f565b50565b6000600460009054906101000a900473ffffffffffffffffffffffffffffffffffffffff1690508073ffffffffffffffffffffffffffffffffffffffff1663dd62ed3e33306040518363ffffffff1660e01b81526004016110799291906131cd565b60206040518083038186803b15801561109157600080fd5b505afa1580156110a5573d6000803e3d6000fd5b505050506040513d601f19601f820116820180604052508101906110c99190612ac7565b8211156110d557600080fd5b8073ffffffffffffffffffffffffffffffffffffffff166323b872dd3330856040518463ffffffff1660e01b8152600401611112939291906131f6565b602060405180830381600087803b15801561112c57600080fd5b505af1158015611140573d6000803e3d6000fd5b505050506040513d601f19601f8201168201806040525081019061116491906129e7565b61116d57600080fd5b600061117883612622565b90506000600254600554838661118e91906135b1565b6111989190613526565b6111a29190613557565b9050478111156111e7576040517f08c379a00000000000000000000000000000000000000000000000000000000081526004016111de9061332e565b60405180910390fd5b8160086000600360009054906101000a900473ffffffffffffffffffffffffffffffffffffffff1673ffffffffffffffffffffffffffffffffffffffff1673ffffffffffffffffffffffffffffffffffffffff1681526020019081526020016000205461125491906134d0565b60086000600360009054906101000a900473ffffffffffffffffffffffffffffffffffffffff1673ffffffffffffffffffffffffffffffffffffffff1673ffffffffffffffffffffffffffffffffffffffff168152602001908152602001600020819055503373ffffffffffffffffffffffffffffffffffffffff166108fc829081150290604051600060405180830381858888f193505050501580156112ff573d6000803e3d6000fd5b5050505050565b6113166113116121b2565b611e43565b611355576040517f08c379a000000000000000000000000000000000000000000000000000000000815260040161134c906132ee565b60405180910390fd5b8060068190555050565b6113688261086a565b611379816113746121b2565b6121ba565b6113838383612337565b505050565b6000600860008373ffffffffffffffffffffffffffffffffffffffff1673ffffffffffffffffffffffffffffffffffffffff168152602001908152602001600020549050919050565b6000600654905090565b6000600760003373ffffffffffffffffffffffffffffffffffffffff1673ffffffffffffffffffffffffffffffffffffffff168152602001908152602001600020549050348161142b91906134d0565b905080600760003373ffffffffffffffffffffffffffffffffffffffff1673ffffffffffffffffffffffffffffffffffffffff168152602001908152602001600020819055507fcb99829fcd64a3eaf742ee1bd54b41c1c84e230a2ec9b5fd88e96b6044c2574933346040516114a292919061322d565b60405180910390a150565b600081116114f0576040517f08c379a00000000000000000000000000000000000000000000000000000000081526004016114e79061336e565b60405180910390fd5b6000600860003373ffffffffffffffffffffffffffffffffffffffff1673ffffffffffffffffffffffffffffffffffffffff16815260200190815260200160002054905080821115611577576040517f08c379a000000000000000000000000000000000000000000000000000000000815260040161156e906133ae565b60405180910390fd5b6000600460009054906101000a900473ffffffffffffffffffffffffffffffffffffffff1690508073ffffffffffffffffffffffffffffffffffffffff166370a08231306040518263ffffffff1660e01b81526004016115d791906131b2565b60206040518083038186803b1580156115ef57600080fd5b505afa158015611603573d6000803e3d6000fd5b505050506040513d601f19601f820116820180604052508101906116279190612ac7565b831115611669576040517f08c379a00000000000000000000000000000000000000000000000000000000081526004016116609061342e565b60405180910390fd5b8073ffffffffffffffffffffffffffffffffffffffff1663a9059cbb33856040518363ffffffff1660e01b81526004016116a492919061322d565b602060405180830381600087803b1580156116be57600080fd5b505af11580156116d2573d6000803e3d6000fd5b505050506040513d601f19601f820116820180604052508101906116f691906129e7565b611735576040517f08c379a000000000000000000000000000000000000000000000000000000000815260040161172c9061340e565b60405180910390fd5b828261174191906135b1565b915081600860003373ffffffffffffffffffffffffffffffffffffffff1673ffffffffffffffffffffffffffffffffffffffff168152602001908152602001600020819055507f0f89f66905d086975c3068dc9c65718780d908f4069dbf43853025975010f3a233846040516117b892919061322d565b60405180910390a1505050565b6000600460009054906101000a900473ffffffffffffffffffffffffffffffffffffffff16905060006117f734612622565b90506000600254600554833461180d91906135b1565b6118179190613557565b6118219190613526565b90508273ffffffffffffffffffffffffffffffffffffffff166370a08231306040518263ffffffff1660e01b815260040161185c91906131b2565b60206040518083038186803b15801561187457600080fd5b505afa158015611888573d6000803e3d6000fd5b505050506040513d601f19601f820116820180604052508101906118ac9190612ac7565b8111156118ee576040517f08c379a00000000000000000000000000000000000000000000000000000000081526004016118e5906133ee565b60405180910390fd5b8160076000600360009054906101000a900473ffffffffffffffffffffffffffffffffffffffff1673ffffffffffffffffffffffffffffffffffffffff1673ffffffffffffffffffffffffffffffffffffffff1681526020019081526020016000205461195b91906134d0565b60076000600360009054906101000a900473ffffffffffffffffffffffffffffffffffffffff1673ffffffffffffffffffffffffffffffffffffffff1673ffffffffffffffffffffffffffffffffffffffff168152602001908152602001600020819055508273ffffffffffffffffffffffffffffffffffffffff1663a9059cbb33836040518363ffffffff1660e01b81526004016119fb92919061322d565b602060405180830381600087803b158015611a1557600080fd5b505af1158015611a29573d6000803e3d6000fd5b505050506040513d601f19601f82011682018060405250810190611a4d91906129e7565b50505050565b6000600760008373ffffffffffffffffffffffffffffffffffffffff1673ffffffffffffffffffffffffffffffffffffffff168152602001908152602001600020549050919050565b7f241ecf16d79d0f8dbfb92cbc07fe17840425976cf0667f022fe9877caa831b08611ace81611ac96121b2565b6121ba565b60018060146101000a81548160ff02191690831515021790555050565b60008111611b2e576040517f08c379a0000000000000000000000000000000000000000000000000000000008152600401611b259061336e565b60405180910390fd5b6000600760003373ffffffffffffffffffffffffffffffffffffffff1673ffffffffffffffffffffffffffffffffffffffff16815260200190815260200160002054905080821115611bb5576040517f08c379a0000000000000000000000000000000000000000000000000000000008152600401611bac906133ae565b60405180910390fd5b47821115611bf8576040517f08c379a0000000000000000000000000000000000000000000000000000000008152600401611bef9061342e565b60405180910390fd5b3373ffffffffffffffffffffffffffffffffffffffff166108fc839081150290604051600060405180830381858888f19350505050158015611c3e573d6000803e3d6000fd5b508181611c4b91906135b1565b905080600760003373ffffffffffffffffffffffffffffffffffffffff1673ffffffffffffffffffffffffffffffffffffffff168152602001908152602001600020819055507f952ae2cd960fc35abc7812a3785793a996a8ab81e4d0bc765e3260cd65c65a233383604051611cc292919061322d565b60405180910390a15050565b7f241ecf16d79d0f8dbfb92cbc07fe17840425976cf0667f022fe9877caa831b0881565b611d02611cfd6121b2565b611e43565b611d41576040517f08c379a0000000000000000000000000000000000000000000000000000000008152600401611d38906132ee565b60405180910390fd5b8060058190555050565b611d536121b2565b73ffffffffffffffffffffffffffffffffffffffff16611d71610ea9565b73ffffffffffffffffffffffffffffffffffffffff1614611dc7576040517f08c379a0000000000000000000000000000000000000000000000000000000008152600401611dbe906133ce565b60405180910390fd5b600073ffffffffffffffffffffffffffffffffffffffff168173ffffffffffffffffffffffffffffffffffffffff161415611e37576040517f08c379a0000000000000000000000000000000000000000000000000000000008152600401611e2e9061330e565b60405180910390fd5b611e40816124ba565b50565b6000611e6f7f241ecf16d79d0f8dbfb92cbc07fe17840425976cf0667f022fe9877caa831b0883610ed3565b9050919050565b611e7e6121b2565b73ffffffffffffffffffffffffffffffffffffffff16611e9c610ea9565b73ffffffffffffffffffffffffffffffffffffffff1614611ef2576040517f08c379a0000000000000000000000000000000000000000000000000000000008152600401611ee9906133ce565b60405180910390fd5b60076000600360009054906101000a900473ffffffffffffffffffffffffffffffffffffffff1673ffffffffffffffffffffffffffffffffffffffff1673ffffffffffffffffffffffffffffffffffffffff16815260200190815260200160002054600760008373ffffffffffffffffffffffffffffffffffffffff1673ffffffffffffffffffffffffffffffffffffffff16815260200190815260200160002054611f9e91906134d0565b600760008373ffffffffffffffffffffffffffffffffffffffff1673ffffffffffffffffffffffffffffffffffffffff16815260200190815260200160002081905550600060076000600360009054906101000a900473ffffffffffffffffffffffffffffffffffffffff1673ffffffffffffffffffffffffffffffffffffffff1673ffffffffffffffffffffffffffffffffffffffff1681526020019081526020016000208190555080600360006101000a81548173ffffffffffffffffffffffffffffffffffffffff021916908373ffffffffffffffffffffffffffffffffffffffff1602179055507f447fb0e311829f768c180cfc408eae78a0f1971069b110492e40e426b47e49b9600360009054906101000a900473ffffffffffffffffffffffffffffffffffffffff1660076000600360009054906101000a900473ffffffffffffffffffffffffffffffffffffffff1673ffffffffffffffffffffffffffffffffffffffff1673ffffffffffffffffffffffffffffffffffffffff1681526020019081526020016000205460405161213d92919061322d565b60405180910390a150565b60007f01ffc9a7000000000000000000000000000000000000000000000000000000007bffffffffffffffffffffffffffffffffffffffffffffffffffffffff1916827bffffffffffffffffffffffffffffffffffffffffffffffffffffffff1916149050919050565b600033905090565b6121c48282610ed3565b612253576121e98173ffffffffffffffffffffffffffffffffffffffff166014612646565b6121f78360001c6020612646565b604051602001612208929190613178565b6040516020818303038152906040526040517f08c379a000000000000000000000000000000000000000000000000000000000815260040161224a919061328c565b60405180910390fd5b5050565b6122618282610ed3565b61233357600160008084815260200190815260200160002060000160008373ffffffffffffffffffffffffffffffffffffffff1673ffffffffffffffffffffffffffffffffffffffff16815260200190815260200160002060006101000a81548160ff0219169083151502179055506122d86121b2565b73ffffffffffffffffffffffffffffffffffffffff168173ffffffffffffffffffffffffffffffffffffffff16837f2f8788117e7eff1d82e926ec794901d17c78024a50270940304540a733656f0d60405160405180910390a45b5050565b6123418282610ed3565b1561241457600080600084815260200190815260200160002060000160008373ffffffffffffffffffffffffffffffffffffffff1673ffffffffffffffffffffffffffffffffffffffff16815260200190815260200160002060006101000a81548160ff0219169083151502179055506123b96121b2565b73ffffffffffffffffffffffffffffffffffffffff168173ffffffffffffffffffffffffffffffffffffffff16837ff6391f5c32d9c69d2a47ea670b442974b53935d1edc7fd64eb21e047a839171b60405160405180910390a45b5050565b612420610ace565b61245f576040517f08c379a0000000000000000000000000000000000000000000000000000000008152600401612456906132ce565b60405180910390fd5b6000600160156101000a81548160ff0219169083151502179055507f5db9ee0a495bf2e6ff9c91a7834c1ba4fdd244a5e8aa4e537bd38aeae4b073aa6124a36121b2565b6040516124b091906131b2565b60405180910390a1565b6000600160009054906101000a900473ffffffffffffffffffffffffffffffffffffffff16905081600160006101000a81548173ffffffffffffffffffffffffffffffffffffffff021916908373ffffffffffffffffffffffffffffffffffffffff1602179055508173ffffffffffffffffffffffffffffffffffffffff168173ffffffffffffffffffffffffffffffffffffffff167f8be0079c531659141344cd1fd0a4f28419497f9722a3daafe3b4186f6b6457e060405160405180910390a35050565b612588610ace565b156125c8576040517f08c379a00000000000000000000000000000000000000000000000000000000081526004016125bf9061334e565b60405180910390fd5b60018060156101000a81548160ff0219169083151502179055507f62e78cea01bee320cd4e420270b5ea74000d11b0c9f74754ebdbfc544b05a25861260b6121b2565b60405161261891906131b2565b60405180910390a1565b6000612710600654836126359190613557565b61263f9190613526565b9050919050565b6060600060028360026126599190613557565b61266391906134d0565b67ffffffffffffffff8111156126a2577f4e487b7100000000000000000000000000000000000000000000000000000000600052604160045260246000fd5b6040519080825280601f01601f1916602001820160405280156126d45781602001600182028036833780820191505090505b5090507f300000000000000000000000000000000000000000000000000000000000000081600081518110612732577f4e487b7100000000000000000000000000000000000000000000000000000000600052603260045260246000fd5b60200101907effffffffffffffffffffffffffffffffffffffffffffffffffffffffffffff1916908160001a9053507f7800000000000000000000000000000000000000000000000000000000000000816001815181106127bc577f4e487b7100000000000000000000000000000000000000000000000000000000600052603260045260246000fd5b60200101907effffffffffffffffffffffffffffffffffffffffffffffffffffffffffffff1916908160001a905350600060018460026127fc9190613557565b61280691906134d0565b90505b60018111156128f2577f3031323334353637383961626364656600000000000000000000000000000000600f86166010811061286e577f4e487b7100000000000000000000000000000000000000000000000000000000600052603260045260246000fd5b1a60f81b8282815181106128ab577f4e487b7100000000000000000000000000000000000000000000000000000000600052603260045260246000fd5b60200101907effffffffffffffffffffffffffffffffffffffffffffffffffffffffffffff1916908160001a905350600485901c9450806128eb90613696565b9050612809565b5060008414612936576040517f08c379a000000000000000000000000000000000000000000000000000000000815260040161292d906132ae565b60405180910390fd5b8091505092915050565b60008135905061294f8161372f565b92915050565b60008151905061296481613746565b92915050565b6000813590506129798161375d565b92915050565b60008135905061298e81613774565b92915050565b6000813590506129a38161378b565b92915050565b6000815190506129b88161378b565b92915050565b6000602082840312156129d057600080fd5b60006129de84828501612940565b91505092915050565b6000602082840312156129f957600080fd5b6000612a0784828501612955565b91505092915050565b600060208284031215612a2257600080fd5b6000612a308482850161296a565b91505092915050565b60008060408385031215612a4c57600080fd5b6000612a5a8582860161296a565b9250506020612a6b85828601612940565b9150509250929050565b600060208284031215612a8757600080fd5b6000612a958482850161297f565b91505092915050565b600060208284031215612ab057600080fd5b6000612abe84828501612994565b91505092915050565b600060208284031215612ad957600080fd5b6000612ae7848285016129a9565b91505092915050565b612af9816135e5565b82525050565b612b08816135f7565b82525050565b612b1781613603565b82525050565b6000612b28826134a9565b612b3281856134b4565b9350612b42818560208601613663565b612b4b8161371e565b840191505092915050565b6000612b61826134a9565b612b6b81856134c5565b9350612b7b818560208601613663565b80840191505092915050565b6000612b946020836134b4565b91507f537472696e67733a20686578206c656e67746820696e73756666696369656e746000830152602082019050919050565b6000612bd46014836134b4565b91507f5061757361626c653a206e6f74207061757365640000000000000000000000006000830152602082019050919050565b6000612c146029836134b4565b91507f4d616e61676572436f6e74726f6c3a2063616c6c6572206973206e6f7420746860008301527f65206d616e6167657200000000000000000000000000000000000000000000006020830152604082019050919050565b6000612c7a6026836134b4565b91507f4f776e61626c653a206e6577206f776e657220697320746865207a65726f206160008301527f64647265737300000000000000000000000000000000000000000000000000006020830152604082019050919050565b6000612ce06023836134b4565b91507f54686520636f696e206c697175696469747920697320696e737566666963696560008301527f6e742e00000000000000000000000000000000000000000000000000000000006020830152604082019050919050565b6000612d466010836134b4565b91507f5061757361626c653a20706175736564000000000000000000000000000000006000830152602082019050919050565b6000612d866025836134b4565b91507f54686520616d6f756e74206d7573742062652067726561746572207468616e2060008301527f7a65726f2e0000000000000000000000000000000000000000000000000000006020830152604082019050919050565b6000612dec6047836134b4565b91507f5468652073706563696669656420616d6f756e74206973206e6f7420616c6c6f60008301527f77656420746f206265207472616e7366657272656420746f20746865206c697160208301527f7569646974792e000000000000000000000000000000000000000000000000006040830152606082019050919050565b6000612e786026836134b4565b91507f546865206c6971756964697479206f66207573657220697320696e737566666960008301527f6369656e742e00000000000000000000000000000000000000000000000000006020830152604082019050919050565b6000612ede6020836134b4565b91507f4f776e61626c653a2063616c6c6572206973206e6f7420746865206f776e65726000830152602082019050919050565b6000612f1e6024836134b4565b91507f54686520706f696e74206c697175696469747920697320696e7375666669636960008301527f656e742e000000000000000000000000000000000000000000000000000000006020830152604082019050919050565b6000612f84603f836134b4565b91507f416e206572726f72206f6363757272656420647572696e6720726566756e642060008301527f746f2074686520757365722066726f6d20746865206c69717569646974792e006020830152604082019050919050565b6000612fea6017836134c5565b91507f416363657373436f6e74726f6c3a206163636f756e74200000000000000000006000830152601782019050919050565b600061302a601e836134b4565b91507f546865206c697175696469747920697320696e73756666696369656e742e00006000830152602082019050919050565b600061306a6033836134b4565b91507f416e206572726f72206f6363757272656420647572696e67207472616e73666560008301527f7220746f20746865206c69717569646974792e000000000000000000000000006020830152604082019050919050565b60006130d06011836134c5565b91507f206973206d697373696e6720726f6c65200000000000000000000000000000006000830152601182019050919050565b6000613110602f836134b4565b91507f416363657373436f6e74726f6c3a2063616e206f6e6c792072656e6f756e636560008301527f20726f6c657320666f722073656c6600000000000000000000000000000000006020830152604082019050919050565b61317281613659565b82525050565b600061318382612fdd565b915061318f8285612b56565b915061319a826130c3565b91506131a68284612b56565b91508190509392505050565b60006020820190506131c76000830184612af0565b92915050565b60006040820190506131e26000830185612af0565b6131ef6020830184612af0565b9392505050565b600060608201905061320b6000830186612af0565b6132186020830185612af0565b6132256040830184613169565b949350505050565b60006040820190506132426000830185612af0565b61324f6020830184613169565b9392505050565b600060208201905061326b6000830184612aff565b92915050565b60006020820190506132866000830184612b0e565b92915050565b600060208201905081810360008301526132a68184612b1d565b905092915050565b600060208201905081810360008301526132c781612b87565b9050919050565b600060208201905081810360008301526132e781612bc7565b9050919050565b6000602082019050818103600083015261330781612c07565b9050919050565b6000602082019050818103600083015261332781612c6d565b9050919050565b6000602082019050818103600083015261334781612cd3565b9050919050565b6000602082019050818103600083015261336781612d39565b9050919050565b6000602082019050818103600083015261338781612d79565b9050919050565b600060208201905081810360008301526133a781612ddf565b9050919050565b600060208201905081810360008301526133c781612e6b565b9050919050565b600060208201905081810360008301526133e781612ed1565b9050919050565b6000602082019050818103600083015261340781612f11565b9050919050565b6000602082019050818103600083015261342781612f77565b9050919050565b600060208201905081810360008301526134478161301d565b9050919050565b600060208201905081810360008301526134678161305d565b9050919050565b6000602082019050818103600083015261348781613103565b9050919050565b60006020820190506134a36000830184613169565b92915050565b600081519050919050565b600082825260208201905092915050565b600081905092915050565b60006134db82613659565b91506134e683613659565b9250827fffffffffffffffffffffffffffffffffffffffffffffffffffffffffffffffff0382111561351b5761351a6136c0565b5b828201905092915050565b600061353182613659565b915061353c83613659565b92508261354c5761354b6136ef565b5b828204905092915050565b600061356282613659565b915061356d83613659565b9250817fffffffffffffffffffffffffffffffffffffffffffffffffffffffffffffffff04831182151516156135a6576135a56136c0565b5b828202905092915050565b60006135bc82613659565b91506135c783613659565b9250828210156135da576135d96136c0565b5b828203905092915050565b60006135f082613639565b9050919050565b60008115159050919050565b6000819050919050565b60007fffffffff0000000000000000000000000000000000000000000000000000000082169050919050565b600073ffffffffffffffffffffffffffffffffffffffff82169050919050565b6000819050919050565b60005b83811015613681578082015181840152602081019050613666565b83811115613690576000848401525b50505050565b60006136a182613659565b915060008214156136b5576136b46136c0565b5b600182039050919050565b7f4e487b7100000000000000000000000000000000000000000000000000000000600052601160045260246000fd5b7f4e487b7100000000000000000000000000000000000000000000000000000000600052601260045260246000fd5b6000601f19601f8301169050919050565b613738816135e5565b811461374357600080fd5b50565b61374f816135f7565b811461375a57600080fd5b50565b61376681613603565b811461377157600080fd5b50565b61377d8161360d565b811461378857600080fd5b50565b61379481613659565b811461379f57600080fd5b5056fea2646970667358221220c93e7507086c8af1016a896b2e4be314876baf20b31b937f56687ce191604f6964736f6c63430008000033",
  "linkReferences": {},
  "deployedLinkReferences": {}
}