{
  "_format": "hh-sol-artifact-1",
  "contractName": "TokenBridge",
  "sourceName": "contracts/bridge/TokenBridge.sol",
  "abi": [
    {
      "inputs": [
        {
          "internalType": "uint256",
          "name": "_timeLock",
          "type": "uint256"
        }
      ],
      "stateMutability": "nonpayable",
      "type": "constructor"
    },
    {
      "anonymous": false,
      "inputs": [
        {
          "indexed": false,
          "internalType": "bool",
          "name": "",
          "type": "bool"
        }
      ],
      "name": "ChangeActive",
      "type": "event"
    },
    {
      "anonymous": false,
      "inputs": [
        {
          "indexed": false,
          "internalType": "uint256",
          "name": "_timeLock",
          "type": "uint256"
        }
      ],
      "name": "ChangeTimeLock",
      "type": "event"
    },
    {
      "anonymous": false,
      "inputs": [
        {
          "indexed": false,
          "internalType": "bytes32",
          "name": "_boxID",
          "type": "bytes32"
        },
        {
          "indexed": false,
          "internalType": "bytes",
          "name": "_secretKey",
          "type": "bytes"
        }
      ],
      "name": "CloseDeposit",
      "type": "event"
    },
    {
      "anonymous": false,
      "inputs": [
        {
          "indexed": false,
          "internalType": "bytes32",
          "name": "_boxID",
          "type": "bytes32"
        },
        {
          "indexed": false,
          "internalType": "bytes",
          "name": "_secretKey",
          "type": "bytes"
        }
      ],
      "name": "CloseWithdraw",
      "type": "event"
    },
    {
      "anonymous": false,
      "inputs": [
        {
          "indexed": false,
          "internalType": "bytes32",
          "name": "tokenId",
          "type": "bytes32"
        },
        {
          "indexed": false,
          "internalType": "address",
          "name": "provider",
          "type": "address"
        },
        {
          "indexed": false,
          "internalType": "uint256",
          "name": "amount",
          "type": "uint256"
        }
      ],
      "name": "DecreasedLiquidity",
      "type": "event"
    },
    {
      "anonymous": false,
      "inputs": [
        {
          "indexed": false,
          "internalType": "bytes32",
          "name": "_boxID",
          "type": "bytes32"
        }
      ],
      "name": "ExpireDeposit",
      "type": "event"
    },
    {
      "anonymous": false,
      "inputs": [
        {
          "indexed": false,
          "internalType": "bytes32",
          "name": "_boxID",
          "type": "bytes32"
        }
      ],
      "name": "ExpireWithdraw",
      "type": "event"
    },
    {
      "anonymous": false,
      "inputs": [
        {
          "indexed": false,
          "internalType": "bytes32",
          "name": "tokenId",
          "type": "bytes32"
        },
        {
          "indexed": false,
          "internalType": "address",
          "name": "provider",
          "type": "address"
        },
        {
          "indexed": false,
          "internalType": "uint256",
          "name": "amount",
          "type": "uint256"
        }
      ],
      "name": "IncreasedLiquidity",
      "type": "event"
    },
    {
      "anonymous": false,
      "inputs": [
        {
          "indexed": false,
          "internalType": "bytes32",
          "name": "_boxID",
          "type": "bytes32"
        },
        {
          "indexed": false,
          "internalType": "bytes32",
          "name": "_secretLock",
          "type": "bytes32"
        }
      ],
      "name": "OpenDeposit",
      "type": "event"
    },
    {
      "anonymous": false,
      "inputs": [
        {
          "indexed": false,
          "internalType": "bytes32",
          "name": "_boxID",
          "type": "bytes32"
        },
        {
          "indexed": false,
          "internalType": "bytes32",
          "name": "_secretLock",
          "type": "bytes32"
        }
      ],
      "name": "OpenWithdraw",
      "type": "event"
    },
    {
      "anonymous": false,
      "inputs": [
        {
          "indexed": true,
          "internalType": "address",
          "name": "previousOwner",
          "type": "address"
        },
        {
          "indexed": true,
          "internalType": "address",
          "name": "newOwner",
          "type": "address"
        }
      ],
      "name": "OwnershipTransferred",
      "type": "event"
    },
    {
      "anonymous": false,
      "inputs": [
        {
          "indexed": true,
          "internalType": "bytes32",
          "name": "role",
          "type": "bytes32"
        },
        {
          "indexed": true,
          "internalType": "bytes32",
          "name": "previousAdminRole",
          "type": "bytes32"
        },
        {
          "indexed": true,
          "internalType": "bytes32",
          "name": "newAdminRole",
          "type": "bytes32"
        }
      ],
      "name": "RoleAdminChanged",
      "type": "event"
    },
    {
      "anonymous": false,
      "inputs": [
        {
          "indexed": true,
          "internalType": "bytes32",
          "name": "role",
          "type": "bytes32"
        },
        {
          "indexed": true,
          "internalType": "address",
          "name": "account",
          "type": "address"
        },
        {
          "indexed": true,
          "internalType": "address",
          "name": "sender",
          "type": "address"
        }
      ],
      "name": "RoleGranted",
      "type": "event"
    },
    {
      "anonymous": false,
      "inputs": [
        {
          "indexed": true,
          "internalType": "bytes32",
          "name": "role",
          "type": "bytes32"
        },
        {
          "indexed": true,
          "internalType": "address",
          "name": "account",
          "type": "address"
        },
        {
          "indexed": true,
          "internalType": "address",
          "name": "sender",
          "type": "address"
        }
      ],
      "name": "RoleRevoked",
      "type": "event"
    },
    {
      "anonymous": false,
      "inputs": [
        {
          "indexed": false,
          "internalType": "bytes32",
          "name": "tokenId",
          "type": "bytes32"
        },
        {
          "indexed": false,
          "internalType": "address",
          "name": "tokenAddress",
          "type": "address"
        }
      ],
      "name": "TokenRegistered",
      "type": "event"
    },
    {
      "inputs": [],
      "name": "DEFAULT_ADMIN_ROLE",
      "outputs": [
        {
          "internalType": "bytes32",
          "name": "",
          "type": "bytes32"
        }
      ],
      "stateMutability": "view",
      "type": "function"
    },
    {
      "inputs": [],
      "name": "MANAGER_ROLE",
      "outputs": [
        {
          "internalType": "bytes32",
          "name": "",
          "type": "bytes32"
        }
      ],
      "stateMutability": "view",
      "type": "function"
    },
    {
      "inputs": [],
      "name": "active",
      "outputs": [
        {
          "internalType": "bool",
          "name": "",
          "type": "bool"
        }
      ],
      "stateMutability": "view",
      "type": "function"
    },
    {
      "inputs": [
        {
          "internalType": "address",
          "name": "account",
          "type": "address"
        }
      ],
      "name": "addManager",
      "outputs": [],
      "stateMutability": "nonpayable",
      "type": "function"
    },
    {
      "inputs": [
        {
          "internalType": "bytes32",
          "name": "_tokenId",
          "type": "bytes32"
        },
        {
          "internalType": "address",
          "name": "_provider",
          "type": "address"
        }
      ],
      "name": "balanceOfLiquidity",
      "outputs": [
        {
          "internalType": "uint256",
          "name": "amount",
          "type": "uint256"
        }
      ],
      "stateMutability": "view",
      "type": "function"
    },
    {
      "inputs": [
        {
          "internalType": "uint256",
          "name": "_timeLock",
          "type": "uint256"
        }
      ],
      "name": "changeTimeLock",
      "outputs": [],
      "stateMutability": "nonpayable",
      "type": "function"
    },
    {
      "inputs": [
        {
          "internalType": "bytes32",
          "name": "_boxID",
          "type": "bytes32"
        }
      ],
      "name": "checkDeposit",
      "outputs": [
        {
          "internalType": "enum TokenBridge.States",
          "name": "states",
          "type": "uint8"
        },
        {
          "internalType": "bytes32",
          "name": "tokenId",
          "type": "bytes32"
        },
        {
          "internalType": "uint256",
          "name": "timeLock",
          "type": "uint256"
        },
        {
          "internalType": "uint256",
          "name": "amount",
          "type": "uint256"
        },
        {
          "internalType": "uint256",
          "name": "txFee",
          "type": "uint256"
        },
        {
          "internalType": "address",
          "name": "traderAddress",
          "type": "address"
        },
        {
          "internalType": "address",
          "name": "withdrawAddress",
          "type": "address"
        },
        {
          "internalType": "bytes32",
          "name": "secretLock",
          "type": "bytes32"
        },
        {
          "internalType": "uint256",
          "name": "createTimestamp",
          "type": "uint256"
        }
      ],
      "stateMutability": "view",
      "type": "function"
    },
    {
      "inputs": [
        {
          "internalType": "bytes32",
          "name": "_boxID",
          "type": "bytes32"
        }
      ],
      "name": "checkSecretKeyDeposit",
      "outputs": [
        {
          "internalType": "bytes",
          "name": "secretKey",
          "type": "bytes"
        }
      ],
      "stateMutability": "view",
      "type": "function"
    },
    {
      "inputs": [
        {
          "internalType": "bytes32",
          "name": "_boxID",
          "type": "bytes32"
        }
      ],
      "name": "checkSecretKeyWithdraw",
      "outputs": [
        {
          "internalType": "bytes",
          "name": "secretKey",
          "type": "bytes"
        }
      ],
      "stateMutability": "view",
      "type": "function"
    },
    {
      "inputs": [
        {
          "internalType": "bytes32",
          "name": "_boxID",
          "type": "bytes32"
        }
      ],
      "name": "checkWithdraw",
      "outputs": [
        {
          "internalType": "enum TokenBridge.States",
          "name": "states",
          "type": "uint8"
        },
        {
          "internalType": "bytes32",
          "name": "tokenId",
          "type": "bytes32"
        },
        {
          "internalType": "uint256",
          "name": "timeLock",
          "type": "uint256"
        },
        {
          "internalType": "uint256",
          "name": "amount",
          "type": "uint256"
        },
        {
          "internalType": "address",
          "name": "traderAddress",
          "type": "address"
        },
        {
          "internalType": "address",
          "name": "withdrawAddress",
          "type": "address"
        },
        {
          "internalType": "bytes32",
          "name": "secretLock",
          "type": "bytes32"
        },
        {
          "internalType": "uint256",
          "name": "createTimestamp",
          "type": "uint256"
        }
      ],
      "stateMutability": "view",
      "type": "function"
    },
    {
      "inputs": [
        {
          "internalType": "bytes32",
          "name": "_boxID",
          "type": "bytes32"
        },
        {
          "internalType": "bytes",
          "name": "_secretKey",
          "type": "bytes"
        }
      ],
      "name": "closeDeposit",
      "outputs": [],
      "stateMutability": "nonpayable",
      "type": "function"
    },
    {
      "inputs": [
        {
          "internalType": "bytes32",
          "name": "_boxID",
          "type": "bytes32"
        },
        {
          "internalType": "bytes",
          "name": "_secretKey",
          "type": "bytes"
        }
      ],
      "name": "closeWithdraw",
      "outputs": [],
      "stateMutability": "nonpayable",
      "type": "function"
    },
    {
      "inputs": [
        {
          "internalType": "bytes32",
          "name": "_tokenId",
          "type": "bytes32"
        },
        {
          "internalType": "uint256",
          "name": "_amount",
          "type": "uint256"
        }
      ],
      "name": "decreaseLiquidity",
      "outputs": [],
      "stateMutability": "nonpayable",
      "type": "function"
    },
    {
      "inputs": [],
      "name": "depositTimeLock",
      "outputs": [
        {
          "internalType": "uint256",
          "name": "",
          "type": "uint256"
        }
      ],
      "stateMutability": "view",
      "type": "function"
    },
    {
      "inputs": [
        {
          "internalType": "bytes32",
          "name": "_boxID",
          "type": "bytes32"
        }
      ],
      "name": "expireDeposit",
      "outputs": [],
      "stateMutability": "nonpayable",
      "type": "function"
    },
    {
      "inputs": [
        {
          "internalType": "bytes32",
          "name": "_boxID",
          "type": "bytes32"
        }
      ],
      "name": "expireWithdraw",
      "outputs": [],
      "stateMutability": "nonpayable",
      "type": "function"
    },
    {
      "inputs": [
        {
          "internalType": "bytes32",
          "name": "role",
          "type": "bytes32"
        }
      ],
      "name": "getRoleAdmin",
      "outputs": [
        {
          "internalType": "bytes32",
          "name": "",
          "type": "bytes32"
        }
      ],
      "stateMutability": "view",
      "type": "function"
    },
    {
      "inputs": [
        {
          "internalType": "bytes32",
          "name": "role",
          "type": "bytes32"
        },
        {
          "internalType": "address",
          "name": "account",
          "type": "address"
        }
      ],
      "name": "grantRole",
      "outputs": [],
      "stateMutability": "nonpayable",
      "type": "function"
    },
    {
      "inputs": [
        {
          "internalType": "bytes32",
          "name": "role",
          "type": "bytes32"
        },
        {
          "internalType": "address",
          "name": "account",
          "type": "address"
        }
      ],
      "name": "hasRole",
      "outputs": [
        {
          "internalType": "bool",
          "name": "",
          "type": "bool"
        }
      ],
      "stateMutability": "view",
      "type": "function"
    },
    {
      "inputs": [
        {
          "internalType": "bytes32",
          "name": "_tokenId",
          "type": "bytes32"
        },
        {
          "internalType": "uint256",
          "name": "_amount",
          "type": "uint256"
        }
      ],
      "name": "increaseLiquidity",
      "outputs": [],
      "stateMutability": "nonpayable",
      "type": "function"
    },
    {
      "inputs": [
        {
          "internalType": "address",
          "name": "account",
          "type": "address"
        }
      ],
      "name": "isManager",
      "outputs": [
        {
          "internalType": "bool",
          "name": "",
          "type": "bool"
        }
      ],
      "stateMutability": "view",
      "type": "function"
    },
    {
      "inputs": [
        {
          "internalType": "address",
          "name": "account",
          "type": "address"
        }
      ],
      "name": "isOwner",
      "outputs": [
        {
          "internalType": "bool",
          "name": "",
          "type": "bool"
        }
      ],
      "stateMutability": "view",
      "type": "function"
    },
    {
      "inputs": [
        {
          "internalType": "bytes32",
          "name": "_tokenId",
          "type": "bytes32"
        },
        {
          "internalType": "bytes32",
          "name": "_boxID",
          "type": "bytes32"
        },
        {
          "internalType": "uint256",
          "name": "_amount",
          "type": "uint256"
        },
        {
          "internalType": "address",
          "name": "_withdrawAddress",
          "type": "address"
        },
        {
          "internalType": "bytes32",
          "name": "_secretLock",
          "type": "bytes32"
        }
      ],
      "name": "openDeposit",
      "outputs": [],
      "stateMutability": "payable",
      "type": "function"
    },
    {
      "inputs": [
        {
          "internalType": "bytes32",
          "name": "_tokenId",
          "type": "bytes32"
        },
        {
          "internalType": "bytes32",
          "name": "_boxID",
          "type": "bytes32"
        },
        {
          "internalType": "uint256",
          "name": "_amount",
          "type": "uint256"
        },
        {
          "internalType": "address",
          "name": "_traderAddress",
          "type": "address"
        },
        {
          "internalType": "address",
          "name": "_withdrawAddress",
          "type": "address"
        },
        {
          "internalType": "bytes32",
          "name": "_secretLock",
          "type": "bytes32"
        }
      ],
      "name": "openWithdraw",
      "outputs": [],
      "stateMutability": "nonpayable",
      "type": "function"
    },
    {
      "inputs": [],
      "name": "owner",
      "outputs": [
        {
          "internalType": "address",
          "name": "",
          "type": "address"
        }
      ],
      "stateMutability": "view",
      "type": "function"
    },
    {
      "inputs": [
        {
          "internalType": "bytes32",
          "name": "_tokenId",
          "type": "bytes32"
        },
        {
          "internalType": "address",
          "name": "_tokenAddress",
          "type": "address"
        }
      ],
      "name": "registerToken",
      "outputs": [],
      "stateMutability": "nonpayable",
      "type": "function"
    },
    {
      "inputs": [
        {
          "internalType": "address",
          "name": "account",
          "type": "address"
        }
      ],
      "name": "removeManager",
      "outputs": [],
      "stateMutability": "nonpayable",
      "type": "function"
    },
    {
      "inputs": [],
      "name": "renounceOwnership",
      "outputs": [],
      "stateMutability": "nonpayable",
      "type": "function"
    },
    {
      "inputs": [
        {
          "internalType": "bytes32",
          "name": "role",
          "type": "bytes32"
        },
        {
          "internalType": "address",
          "name": "account",
          "type": "address"
        }
      ],
      "name": "renounceRole",
      "outputs": [],
      "stateMutability": "nonpayable",
      "type": "function"
    },
    {
      "inputs": [
        {
          "internalType": "bytes32",
          "name": "role",
          "type": "bytes32"
        },
        {
          "internalType": "address",
          "name": "account",
          "type": "address"
        }
      ],
      "name": "revokeRole",
      "outputs": [],
      "stateMutability": "nonpayable",
      "type": "function"
    },
    {
      "inputs": [
        {
          "internalType": "bool",
          "name": "_value",
          "type": "bool"
        }
      ],
      "name": "setActive",
      "outputs": [],
      "stateMutability": "nonpayable",
      "type": "function"
    },
    {
      "inputs": [
        {
          "internalType": "bytes4",
          "name": "interfaceId",
          "type": "bytes4"
        }
      ],
      "name": "supportsInterface",
      "outputs": [
        {
          "internalType": "bool",
          "name": "",
          "type": "bool"
        }
      ],
      "stateMutability": "view",
      "type": "function"
    },
    {
      "inputs": [
        {
          "internalType": "bytes32",
          "name": "",
          "type": "bytes32"
        }
      ],
      "name": "tokens",
      "outputs": [
        {
          "internalType": "contract ERC20",
          "name": "token",
          "type": "address"
        },
        {
          "internalType": "address",
          "name": "tokenAddress",
          "type": "address"
        },
        {
          "internalType": "enum TokenBridge.TokenStatus",
          "name": "status",
          "type": "uint8"
        }
      ],
      "stateMutability": "view",
      "type": "function"
    },
    {
      "inputs": [
        {
          "internalType": "address",
          "name": "newOwner",
          "type": "address"
        }
      ],
      "name": "transferOwnership",
      "outputs": [],
      "stateMutability": "nonpayable",
      "type": "function"
    },
    {
      "inputs": [],
      "name": "withdrawTimeLock",
      "outputs": [
        {
          "internalType": "uint256",
          "name": "",
          "type": "uint256"
        }
      ],
      "stateMutability": "view",
      "type": "function"
    },
    {
      "inputs": [],
      "name": "withdrawTxFee",
      "outputs": [],
      "stateMutability": "nonpayable",
      "type": "function"
    }
  ],
  "bytecode": "0x60806040523480156200001157600080fd5b5060405162005f2338038062005f238339818101604052810190620000379190620003b7565b620000576200004b620000df60201b60201c565b620000e760201b60201c565b6200006c6000801b33620001ad60201b60201c565b620000a17f241ecf16d79d0f8dbfb92cbc07fe17840425976cf0667f022fe9877caa831b086000801b620001c360201b60201c565b600281620000b09190620003e3565b600381905550806004819055506001600560006101000a81548160ff0219169083151502179055505062000497565b600033905090565b6000600160009054906101000a900473ffffffffffffffffffffffffffffffffffffffff16905081600160006101000a81548173ffffffffffffffffffffffffffffffffffffffff021916908373ffffffffffffffffffffffffffffffffffffffff1602179055508173ffffffffffffffffffffffffffffffffffffffff168173ffffffffffffffffffffffffffffffffffffffff167f8be0079c531659141344cd1fd0a4f28419497f9722a3daafe3b4186f6b6457e060405160405180910390a35050565b620001bf82826200022660201b60201c565b5050565b6000620001d6836200031760201b60201c565b905081600080858152602001908152602001600020600101819055508181847fbd79b86ffe0ab8e8776151514217cd7cacd52c909f66475c3af44e129f0b00ff60405160405180910390a4505050565b6200023882826200033660201b60201c565b6200031357600160008084815260200190815260200160002060000160008373ffffffffffffffffffffffffffffffffffffffff1673ffffffffffffffffffffffffffffffffffffffff16815260200190815260200160002060006101000a81548160ff021916908315150217905550620002b8620000df60201b60201c565b73ffffffffffffffffffffffffffffffffffffffff168173ffffffffffffffffffffffffffffffffffffffff16837f2f8788117e7eff1d82e926ec794901d17c78024a50270940304540a733656f0d60405160405180910390a45b5050565b6000806000838152602001908152602001600020600101549050919050565b600080600084815260200190815260200160002060000160008373ffffffffffffffffffffffffffffffffffffffff1673ffffffffffffffffffffffffffffffffffffffff16815260200190815260200160002060009054906101000a900460ff16905092915050565b600081519050620003b1816200047d565b92915050565b600060208284031215620003ca57600080fd5b6000620003da84828501620003a0565b91505092915050565b6000620003f08262000444565b9150620003fd8362000444565b9250817fffffffffffffffffffffffffffffffffffffffffffffffffffffffffffffffff04831182151516156200043957620004386200044e565b5b828202905092915050565b6000819050919050565b7f4e487b7100000000000000000000000000000000000000000000000000000000600052601160045260246000fd5b620004888162000444565b81146200049457600080fd5b50565b615a7c80620004a76000396000f3fe60806040526004361061020f5760003560e01c806375338fb411610118578063ac18de43116100a0578063c7f7a1ba1161006f578063c7f7a1ba146107a9578063d547741f146107e6578063ec87621c1461080f578063f2fde38b1461083a578063f3ae2415146108635761020f565b8063ac18de43146106f1578063acec338a1461071a578063ae2e39ca14610743578063b5d323f4146107805761020f565b8063904194a3116100e7578063904194a3146105e457806391d1485414610623578063a217fddf14610660578063a4f0abf11461068b578063ab7c01a4146106b45761020f565b806375338fb41461053e5780637ad28c5114610567578063808b9327146105905780638da5cb5b146105b95761020f565b80632ded0fb51161019b5780634909ab9e1161016a5780634909ab9e1461047257806350e9b3981461049b5780636344e5c9146104b75780636849a331146104e2578063715018a6146105275761020f565b80632ded0fb5146103ba5780632f2ff15d146103e35780632f54bf6e1461040c57806336568abe146104495761020f565b80632330182f116101e25780632330182f146102bc578063248a9ca3146102e55780632c2b3cc6146103225780632d06177a1461034d5780632d860f40146103765761020f565b806301ffc9a71461021457806302fb0c5e14610251578063070f468d1461027c57806316b9995514610293575b600080fd5b34801561022057600080fd5b5061023b60048036038101906102369190614b5e565b6108a0565b60405161024891906151c0565b60405180910390f35b34801561025d57600080fd5b5061026661091a565b60405161027391906151c0565b60405180910390f35b34801561028857600080fd5b5061029161092d565b005b34801561029f57600080fd5b506102ba60048036038101906102b59190614940565b6109be565b005b3480156102c857600080fd5b506102e360048036038101906102de9190614b22565b610bab565b005b3480156102f157600080fd5b5061030c60048036038101906103079190614940565b610f59565b60405161031991906151db565b60405180910390f35b34801561032e57600080fd5b50610337610f78565b6040516103449190615575565b60405180910390f35b34801561035957600080fd5b50610374600480360381019061036f91906148c5565b610f7e565b005b34801561038257600080fd5b5061039d60048036038101906103989190614940565b611027565b6040516103b1989796959493929190615308565b60405180910390f35b3480156103c657600080fd5b506103e160048036038101906103dc9190614992565b61122c565b005b3480156103ef57600080fd5b5061040a60048036038101906104059190614992565b611558565b005b34801561041857600080fd5b50610433600480360381019061042e91906148c5565b611579565b60405161044091906151c0565b60405180910390f35b34801561045557600080fd5b50610470600480360381019061046b9190614992565b6115b8565b005b34801561047e57600080fd5b5061049960048036038101906104949190614ace565b61163b565b005b6104b560048036038101906104b09190614a57565b611bbe565b005b3480156104c357600080fd5b506104cc61228f565b6040516104d99190615575565b60405180910390f35b3480156104ee57600080fd5b5061050960048036038101906105049190614940565b612295565b60405161051e99989796959493929190615386565b60405180910390f35b34801561053357600080fd5b5061053c6124af565b005b34801561054a57600080fd5b5061056560048036038101906105609190614b22565b612537565b005b34801561057357600080fd5b5061058e60048036038101906105899190614b87565b612924565b005b34801561059c57600080fd5b506105b760048036038101906105b29190614940565b6129c2565b005b3480156105c557600080fd5b506105ce612e23565b6040516105db919061511c565b60405180910390f35b3480156105f057600080fd5b5061060b60048036038101906106069190614940565b612e4d565b60405161061a939291906152d1565b60405180910390f35b34801561062f57600080fd5b5061064a60048036038101906106459190614992565b612ec4565b60405161065791906151c0565b60405180910390f35b34801561066c57600080fd5b50610675612f2e565b60405161068291906151db565b60405180910390f35b34801561069757600080fd5b506106b260048036038101906106ad9190614ace565b612f35565b005b3480156106c057600080fd5b506106db60048036038101906106d69190614940565b61317f565b6040516106e891906152af565b60405180910390f35b3480156106fd57600080fd5b50610718600480360381019061071391906148c5565b6133f6565b005b34801561072657600080fd5b50610741600480360381019061073c91906148ee565b61349f565b005b34801561074f57600080fd5b5061076a60048036038101906107659190614992565b61353b565b6040516107779190615575565b60405180910390f35b34801561078c57600080fd5b506107a760048036038101906107a291906149ce565b613670565b005b3480156107b557600080fd5b506107d060048036038101906107cb9190614940565b613c56565b6040516107dd91906152af565b60405180910390f35b3480156107f257600080fd5b5061080d60048036038101906108089190614992565b613ed7565b005b34801561081b57600080fd5b50610824613ef8565b60405161083191906151db565b60405180910390f35b34801561084657600080fd5b50610861600480360381019061085c91906148c5565b613f1c565b005b34801561086f57600080fd5b5061088a600480360381019061088591906148c5565b61403b565b60405161089791906151c0565b60405180910390f35b60007f7965db0b000000000000000000000000000000000000000000000000000000007bffffffffffffffffffffffffffffffffffffffffffffffffffffffff1916827bffffffffffffffffffffffffffffffffffffffffffffffffffffffff1916148061091357506109128261406e565b5b9050919050565b600560009054906101000a900460ff1681565b6109363361403b565b610975576040517f08c379a000000000000000000000000000000000000000000000000000000000815260040161096c90615515565b60405180910390fd5b3373ffffffffffffffffffffffffffffffffffffffff166108fc479081150290604051600060405180830381858888f193505050501580156109bb573d6000803e3d6000fd5b50565b80600160038111156109f9577f4e487b7100000000000000000000000000000000000000000000000000000000600052602160045260246000fd5b6009600083815260200190815260200160002060009054906101000a900460ff166003811115610a52577f4e487b7100000000000000000000000000000000000000000000000000000000600052602160045260246000fd5b14610a92576040517f08c379a0000000000000000000000000000000000000000000000000000000008152600401610a89906154d5565b60405180910390fd5b814260086000838152602001908152602001600020600701546008600084815260200190815260200160002060010154610acc919061563f565b1115610b0d576040517f08c379a0000000000000000000000000000000000000000000000000000000008152600401610b04906154d5565b60405180910390fd5b60036009600085815260200190815260200160002060006101000a81548160ff02191690836003811115610b6a577f4e487b7100000000000000000000000000000000000000000000000000000000600052602160045260246000fd5b02179055507f825d0863b13ffd24b85a8f9dfaa25c198f30bd39ca7928974507b4cdac588b4083604051610b9e91906151db565b60405180910390a1505050565b81600180811115610be5577f4e487b7100000000000000000000000000000000000000000000000000000000600052602160045260246000fd5b6002600083815260200190815260200160002060010160149054906101000a900460ff166001811115610c41577f4e487b7100000000000000000000000000000000000000000000000000000000600052602160045260246000fd5b14610c81576040517f08c379a0000000000000000000000000000000000000000000000000000000008152600401610c7890615495565b60405180910390fd5b60008211610cc4576040517f08c379a0000000000000000000000000000000000000000000000000000000008152600401610cbb90615455565b60405180910390fd5b60006002600085815260200190815260200160002060000160009054906101000a900473ffffffffffffffffffffffffffffffffffffffff1690508073ffffffffffffffffffffffffffffffffffffffff1663dd62ed3e33306040518363ffffffff1660e01b8152600401610d3a929190615137565b60206040518083038186803b158015610d5257600080fd5b505afa158015610d66573d6000803e3d6000fd5b505050506040513d601f19601f82011682018060405250810190610d8a9190614bb0565b831115610dcc576040517f08c379a0000000000000000000000000000000000000000000000000000000008152600401610dc390615535565b60405180910390fd5b8073ffffffffffffffffffffffffffffffffffffffff166323b872dd3330866040518463ffffffff1660e01b8152600401610e0993929190615160565b602060405180830381600087803b158015610e2357600080fd5b505af1158015610e37573d6000803e3d6000fd5b505050506040513d601f19601f82011682018060405250810190610e5b9190614917565b5060006002600086815260200190815260200160002060020160003373ffffffffffffffffffffffffffffffffffffffff1673ffffffffffffffffffffffffffffffffffffffff1681526020019081526020016000205490508381610ec0919061563f565b6002600087815260200190815260200160002060020160003373ffffffffffffffffffffffffffffffffffffffff1673ffffffffffffffffffffffffffffffffffffffff168152602001908152602001600020819055507fe3d44428627675f176f19f575c29dae0b7aad0750eafb759458b6e23e5768a22853386604051610f4a9392919061521f565b60405180910390a15050505050565b6000806000838152602001908152602001600020600101549050919050565b60045481565b610f866140d8565b73ffffffffffffffffffffffffffffffffffffffff16610fa4612e23565b73ffffffffffffffffffffffffffffffffffffffff1614610ffa576040517f08c379a0000000000000000000000000000000000000000000000000000000008152600401610ff1906154f5565b60405180910390fd5b6110247f241ecf16d79d0f8dbfb92cbc07fe17840425976cf0667f022fe9877caa831b0882611558565b50565b6000806000806000806000806000600860008b8152602001908152602001600020604051806101000160405290816000820154815260200160018201548152602001600282015481526020016003820160009054906101000a900473ffffffffffffffffffffffffffffffffffffffff1673ffffffffffffffffffffffffffffffffffffffff1673ffffffffffffffffffffffffffffffffffffffff1681526020016004820160009054906101000a900473ffffffffffffffffffffffffffffffffffffffff1673ffffffffffffffffffffffffffffffffffffffff1673ffffffffffffffffffffffffffffffffffffffff168152602001600582015481526020016006820180546111389061587b565b80601f01602080910402602001604051908101604052809291908181526020018280546111649061587b565b80156111b15780601f10611186576101008083540402835291602001916111b1565b820191906000526020600020905b81548152906001019060200180831161119457829003601f168201915b5050505050815260200160078201548152505090506000600960008c815260200190815260200160002060009054906101000a900460ff16905080826000015183602001518460400151856060015186608001518760a001518860e00151995099509950995099509950995099505050919395975091939597565b6112353361403b565b611274576040517f08c379a000000000000000000000000000000000000000000000000000000000815260040161126b90615515565b60405180910390fd5b600073ffffffffffffffffffffffffffffffffffffffff168173ffffffffffffffffffffffffffffffffffffffff1614156112e4576040517f08c379a00000000000000000000000000000000000000000000000000000000081526004016112db90615455565b60405180910390fd5b600081905060006002308460405160200161130092919061509f565b60405160208183030381529060405260405161131c91906150cb565b602060405180830381855afa158015611339573d6000803e3d6000fd5b5050506040513d601f19601f8201168201806040525081019061135c9190614969565b905083811461136a57600080fd5b600060018111156113a4577f4e487b7100000000000000000000000000000000000000000000000000000000600052602160045260246000fd5b6002600086815260200190815260200160002060010160149054906101000a900460ff166001811115611400577f4e487b7100000000000000000000000000000000000000000000000000000000600052602160045260246000fd5b1461140a57600080fd5b816002600086815260200190815260200160002060000160006101000a81548173ffffffffffffffffffffffffffffffffffffffff021916908373ffffffffffffffffffffffffffffffffffffffff160217905550826002600086815260200190815260200160002060010160006101000a81548173ffffffffffffffffffffffffffffffffffffffff021916908373ffffffffffffffffffffffffffffffffffffffff16021790555060016002600086815260200190815260200160002060010160146101000a81548160ff02191690836001811115611514577f4e487b7100000000000000000000000000000000000000000000000000000000600052602160045260246000fd5b02179055507f5480718cbffecdb87b0dda598e1ec366b45a645327b3d98494a91e9594981f04848460405161154a9291906151f6565b60405180910390a150505050565b61156182610f59565b61156a816140e0565b61157483836140f4565b505050565b60008173ffffffffffffffffffffffffffffffffffffffff1661159a612e23565b73ffffffffffffffffffffffffffffffffffffffff16149050919050565b6115c06140d8565b73ffffffffffffffffffffffffffffffffffffffff168173ffffffffffffffffffffffffffffffffffffffff161461162d576040517f08c379a000000000000000000000000000000000000000000000000000000000815260040161162490615555565b60405180910390fd5b61163782826141d4565b5050565b8160016003811115611676577f4e487b7100000000000000000000000000000000000000000000000000000000600052602160045260246000fd5b6009600083815260200190815260200160002060009054906101000a900460ff1660038111156116cf577f4e487b7100000000000000000000000000000000000000000000000000000000600052602160045260246000fd5b1461170f576040517f08c379a0000000000000000000000000000000000000000000000000000000008152600401611706906154d5565b60405180910390fd5b828260028160405161172191906150cb565b602060405180830381855afa15801561173e573d6000803e3d6000fd5b5050506040513d601f19601f820116820180604052508101906117619190614969565b6008600084815260200190815260200160002060050154146117b8576040517f08c379a00000000000000000000000000000000000000000000000000000000081526004016117af906154d5565b60405180910390fd5b600060086000878152602001908152602001600020604051806101000160405290816000820154815260200160018201548152602001600282015481526020016003820160009054906101000a900473ffffffffffffffffffffffffffffffffffffffff1673ffffffffffffffffffffffffffffffffffffffff1673ffffffffffffffffffffffffffffffffffffffff1681526020016004820160009054906101000a900473ffffffffffffffffffffffffffffffffffffffff1673ffffffffffffffffffffffffffffffffffffffff1673ffffffffffffffffffffffffffffffffffffffff168152602001600582015481526020016006820180546118bd9061587b565b80601f01602080910402602001604051908101604052809291908181526020018280546118e99061587b565b80156119365780601f1061190b57610100808354040283529160200191611936565b820191906000526020600020905b81548152906001019060200180831161191957829003601f168201915b5050505050815260200160078201548152505090506000600260008360000151815260200190815260200160002060000160009054906101000a900473ffffffffffffffffffffffffffffffffffffffff1690508073ffffffffffffffffffffffffffffffffffffffff166370a08231306040518263ffffffff1660e01b81526004016119c3919061511c565b60206040518083038186803b1580156119db57600080fd5b505afa1580156119ef573d6000803e3d6000fd5b505050506040513d601f19601f82011682018060405250810190611a139190614bb0565b82604001511115611a59576040517f08c379a0000000000000000000000000000000000000000000000000000000008152600401611a5090615535565b60405180910390fd5b85600860008981526020019081526020016000206006019080519060200190611a83929190614712565b5060026009600089815260200190815260200160002060006101000a81548160ff02191690836003811115611ae1577f4e487b7100000000000000000000000000000000000000000000000000000000600052602160045260246000fd5b02179055508073ffffffffffffffffffffffffffffffffffffffff1663a9059cbb836080015184604001516040518363ffffffff1660e01b8152600401611b29929190615197565b602060405180830381600087803b158015611b4357600080fd5b505af1158015611b57573d6000803e3d6000fd5b505050506040513d601f19601f82011682018060405250810190611b7b9190614917565b507f95ba8896cab059cc82657df1929eaf97d25375ab7a1d7bed1531299395d78b188787604051611bad92919061527f565b60405180910390a150505050505050565b8360006003811115611bf9577f4e487b7100000000000000000000000000000000000000000000000000000000600052602160045260246000fd5b6007600083815260200190815260200160002060009054906101000a900460ff166003811115611c52577f4e487b7100000000000000000000000000000000000000000000000000000000600052602160045260246000fd5b14611c92576040517f08c379a0000000000000000000000000000000000000000000000000000000008152600401611c89906154b5565b60405180910390fd5b85600180811115611ccc577f4e487b7100000000000000000000000000000000000000000000000000000000600052602160045260246000fd5b6002600083815260200190815260200160002060010160149054906101000a900460ff166001811115611d28577f4e487b7100000000000000000000000000000000000000000000000000000000600052602160045260246000fd5b14611d68576040517f08c379a0000000000000000000000000000000000000000000000000000000008152600401611d5f90615495565b60405180910390fd5b600560009054906101000a900460ff16611db7576040517f08c379a0000000000000000000000000000000000000000000000000000000008152600401611dae90615495565b60405180910390fd5b600073ffffffffffffffffffffffffffffffffffffffff168473ffffffffffffffffffffffffffffffffffffffff161415611e27576040517f08c379a0000000000000000000000000000000000000000000000000000000008152600401611e1e90615455565b60405180910390fd5b633b9aca003411611e6d576040517f08c379a0000000000000000000000000000000000000000000000000000000008152600401611e6490615455565b60405180910390fd5b60006002600089815260200190815260200160002060000160009054906101000a900473ffffffffffffffffffffffffffffffffffffffff1690508073ffffffffffffffffffffffffffffffffffffffff1663dd62ed3e33306040518363ffffffff1660e01b8152600401611ee3929190615137565b60206040518083038186803b158015611efb57600080fd5b505afa158015611f0f573d6000803e3d6000fd5b505050506040513d601f19601f82011682018060405250810190611f339190614bb0565b861115611f75576040517f08c379a0000000000000000000000000000000000000000000000000000000008152600401611f6c90615455565b60405180910390fd5b8073ffffffffffffffffffffffffffffffffffffffff166323b872dd3330896040518463ffffffff1660e01b8152600401611fb293929190615160565b602060405180830381600087803b158015611fcc57600080fd5b505af1158015611fe0573d6000803e3d6000fd5b505050506040513d601f19601f820116820180604052508101906120049190614917565b5060006040518061012001604052808a815260200160035481526020018881526020013481526020013373ffffffffffffffffffffffffffffffffffffffff1681526020018773ffffffffffffffffffffffffffffffffffffffff168152602001868152602001600067ffffffffffffffff8111156120ac577f4e487b7100000000000000000000000000000000000000000000000000000000600052604160045260246000fd5b6040519080825280601f01601f1916602001820160405280156120de5781602001600182028036833780820191505090505b50815260200142815250905080600660008a81526020019081526020016000206000820151816000015560208201518160010155604082015181600201556060820151816003015560808201518160040160006101000a81548173ffffffffffffffffffffffffffffffffffffffff021916908373ffffffffffffffffffffffffffffffffffffffff16021790555060a08201518160050160006101000a81548173ffffffffffffffffffffffffffffffffffffffff021916908373ffffffffffffffffffffffffffffffffffffffff16021790555060c0820151816006015560e08201518160070190805190602001906121da929190614712565b5061010082015181600801559050506001600760008a815260200190815260200160002060006101000a81548160ff02191690836003811115612246577f4e487b7100000000000000000000000000000000000000000000000000000000600052602160045260246000fd5b02179055507f5faaa1cf928498f8b434c97cb1f6d72e6b65923d6fe2888feb009e3d5fe8dd28888660405161227c929190615256565b60405180910390a1505050505050505050565b60035481565b600080600080600080600080600080600660008c815260200190815260200160002060405180610120016040529081600082015481526020016001820154815260200160028201548152602001600382015481526020016004820160009054906101000a900473ffffffffffffffffffffffffffffffffffffffff1673ffffffffffffffffffffffffffffffffffffffff1673ffffffffffffffffffffffffffffffffffffffff1681526020016005820160009054906101000a900473ffffffffffffffffffffffffffffffffffffffff1673ffffffffffffffffffffffffffffffffffffffff1673ffffffffffffffffffffffffffffffffffffffff168152602001600682015481526020016007820180546123b19061587b565b80601f01602080910402602001604051908101604052809291908181526020018280546123dd9061587b565b801561242a5780601f106123ff5761010080835404028352916020019161242a565b820191906000526020600020905b81548152906001019060200180831161240d57829003601f168201915b5050505050815260200160088201548152505090506000600760008d815260200190815260200160002060009054906101000a900460ff16905080826000015183602001518460400151856060015186608001518760a001518860c001518961010001519a509a509a509a509a509a509a509a509a5050509193959799909294969850565b6124b76140d8565b73ffffffffffffffffffffffffffffffffffffffff166124d5612e23565b73ffffffffffffffffffffffffffffffffffffffff161461252b576040517f08c379a0000000000000000000000000000000000000000000000000000000008152600401612522906154f5565b60405180910390fd5b61253560006142b5565b565b81600180811115612571577f4e487b7100000000000000000000000000000000000000000000000000000000600052602160045260246000fd5b6002600083815260200190815260200160002060010160149054906101000a900460ff1660018111156125cd577f4e487b7100000000000000000000000000000000000000000000000000000000600052602160045260246000fd5b1461260d576040517f08c379a000000000000000000000000000000000000000000000000000000000815260040161260490615495565b60405180910390fd5b60008211612650576040517f08c379a000000000000000000000000000000000000000000000000000000000815260040161264790615455565b60405180910390fd5b60006002600085815260200190815260200160002060000160009054906101000a900473ffffffffffffffffffffffffffffffffffffffff16905060006002600086815260200190815260200160002060020160003373ffffffffffffffffffffffffffffffffffffffff1673ffffffffffffffffffffffffffffffffffffffff16815260200190815260200160002054905080841115612726576040517f08c379a000000000000000000000000000000000000000000000000000000000815260040161271d90615535565b60405180910390fd5b8173ffffffffffffffffffffffffffffffffffffffff166370a08231306040518263ffffffff1660e01b815260040161275f919061511c565b60206040518083038186803b15801561277757600080fd5b505afa15801561278b573d6000803e3d6000fd5b505050506040513d601f19601f820116820180604052508101906127af9190614bb0565b8411156127f1576040517f08c379a00000000000000000000000000000000000000000000000000000000081526004016127e890615535565b60405180910390fd5b83816127fd91906156ef565b6002600087815260200190815260200160002060020160003373ffffffffffffffffffffffffffffffffffffffff1673ffffffffffffffffffffffffffffffffffffffff168152602001908152602001600020819055508173ffffffffffffffffffffffffffffffffffffffff1663a9059cbb33866040518363ffffffff1660e01b815260040161288f929190615197565b602060405180830381600087803b1580156128a957600080fd5b505af11580156128bd573d6000803e3d6000fd5b505050506040513d601f19601f820116820180604052508101906128e19190614917565b507f09a6a33bc7e44eb8dcc8288998d477be28ffdd060f80f9e096b5cd5544cd4dcd8533866040516129159392919061521f565b60405180910390a15050505050565b61292d3361403b565b61296c576040517f08c379a000000000000000000000000000000000000000000000000000000000815260040161296390615515565b60405180910390fd5b6002816129799190615695565b600381905550806004819055507f64728aea34ac309b1c81424cc427d789a01aa85691b27ebfa0be5ae8c322ca736003546040516129b79190615575565b60405180910390a150565b80600160038111156129fd577f4e487b7100000000000000000000000000000000000000000000000000000000600052602160045260246000fd5b6007600083815260200190815260200160002060009054906101000a900460ff166003811115612a56577f4e487b7100000000000000000000000000000000000000000000000000000000600052602160045260246000fd5b14612a96576040517f08c379a0000000000000000000000000000000000000000000000000000000008152600401612a8d906154b5565b60405180910390fd5b814260066000838152602001908152602001600020600801546006600084815260200190815260200160002060010154612ad0919061563f565b1115612b11576040517f08c379a0000000000000000000000000000000000000000000000000000000008152600401612b08906154b5565b60405180910390fd5b60006006600085815260200190815260200160002060405180610120016040529081600082015481526020016001820154815260200160028201548152602001600382015481526020016004820160009054906101000a900473ffffffffffffffffffffffffffffffffffffffff1673ffffffffffffffffffffffffffffffffffffffff1673ffffffffffffffffffffffffffffffffffffffff1681526020016005820160009054906101000a900473ffffffffffffffffffffffffffffffffffffffff1673ffffffffffffffffffffffffffffffffffffffff1673ffffffffffffffffffffffffffffffffffffffff16815260200160068201548152602001600782018054612c209061587b565b80601f0160208091040260200160405190810160405280929190818152602001828054612c4c9061587b565b8015612c995780601f10612c6e57610100808354040283529160200191612c99565b820191906000526020600020905b815481529060010190602001808311612c7c57829003601f168201915b50505050508152602001600882015481525050905060036007600086815260200190815260200160002060006101000a81548160ff02191690836003811115612d0b577f4e487b7100000000000000000000000000000000000000000000000000000000600052602160045260246000fd5b02179055506000600260008360000151815260200190815260200160002060000160009054906101000a900473ffffffffffffffffffffffffffffffffffffffff1690508073ffffffffffffffffffffffffffffffffffffffff1663a9059cbb836080015184604001516040518363ffffffff1660e01b8152600401612d92929190615197565b602060405180830381600087803b158015612dac57600080fd5b505af1158015612dc0573d6000803e3d6000fd5b505050506040513d601f19601f82011682018060405250810190612de49190614917565b507f106871623781e69dca1d81068bb94c2b7cb78425866dd9a3afbe299ddb2bb86985604051612e1491906151db565b60405180910390a15050505050565b6000600160009054906101000a900473ffffffffffffffffffffffffffffffffffffffff16905090565b60026020528060005260406000206000915090508060000160009054906101000a900473ffffffffffffffffffffffffffffffffffffffff16908060010160009054906101000a900473ffffffffffffffffffffffffffffffffffffffff16908060010160149054906101000a900460ff16905083565b600080600084815260200190815260200160002060000160008373ffffffffffffffffffffffffffffffffffffffff1673ffffffffffffffffffffffffffffffffffffffff16815260200190815260200160002060009054906101000a900460ff16905092915050565b6000801b81565b8160016003811115612f70577f4e487b7100000000000000000000000000000000000000000000000000000000600052602160045260246000fd5b6007600083815260200190815260200160002060009054906101000a900460ff166003811115612fc9577f4e487b7100000000000000000000000000000000000000000000000000000000600052602160045260246000fd5b14613009576040517f08c379a0000000000000000000000000000000000000000000000000000000008152600401613000906154b5565b60405180910390fd5b828260028160405161301b91906150cb565b602060405180830381855afa158015613038573d6000803e3d6000fd5b5050506040513d601f19601f8201168201806040525081019061305b9190614969565b6006600084815260200190815260200160002060060154146130b2576040517f08c379a00000000000000000000000000000000000000000000000000000000081526004016130a9906154b5565b60405180910390fd5b836006600087815260200190815260200160002060070190805190602001906130dc929190614712565b5060026007600087815260200190815260200160002060006101000a81548160ff0219169083600381111561313a577f4e487b7100000000000000000000000000000000000000000000000000000000600052602160045260246000fd5b02179055507f1477d37ce3a7a9aa2840d29808113cfbd3c2cc73a0d080110430dfa472d8772c858560405161317092919061527f565b60405180910390a15050505050565b606081600260038111156131bc577f4e487b7100000000000000000000000000000000000000000000000000000000600052602160045260246000fd5b6009600083815260200190815260200160002060009054906101000a900460ff166003811115613215577f4e487b7100000000000000000000000000000000000000000000000000000000600052602160045260246000fd5b14613255576040517f08c379a000000000000000000000000000000000000000000000000000000000815260040161324c906154d5565b60405180910390fd5b600060086000858152602001908152602001600020604051806101000160405290816000820154815260200160018201548152602001600282015481526020016003820160009054906101000a900473ffffffffffffffffffffffffffffffffffffffff1673ffffffffffffffffffffffffffffffffffffffff1673ffffffffffffffffffffffffffffffffffffffff1681526020016004820160009054906101000a900473ffffffffffffffffffffffffffffffffffffffff1673ffffffffffffffffffffffffffffffffffffffff1673ffffffffffffffffffffffffffffffffffffffff1681526020016005820154815260200160068201805461335a9061587b565b80601f01602080910402602001604051908101604052809291908181526020018280546133869061587b565b80156133d35780601f106133a8576101008083540402835291602001916133d3565b820191906000526020600020905b8154815290600101906020018083116133b657829003601f168201915b5050505050815260200160078201548152505090508060c0015192505050919050565b6133fe6140d8565b73ffffffffffffffffffffffffffffffffffffffff1661341c612e23565b73ffffffffffffffffffffffffffffffffffffffff1614613472576040517f08c379a0000000000000000000000000000000000000000000000000000000008152600401613469906154f5565b60405180910390fd5b61349c7f241ecf16d79d0f8dbfb92cbc07fe17840425976cf0667f022fe9877caa831b0882613ed7565b50565b6134a83361403b565b6134e7576040517f08c379a00000000000000000000000000000000000000000000000000000000081526004016134de90615515565b60405180910390fd5b80600560006101000a81548160ff0219169083151502179055507fb645d225a5ad2878b2d9c0a7cf22662632da0cf5a7dbd87a9186d7e2ad9eca3c8160405161353091906151c0565b60405180910390a150565b600082600180811115613577577f4e487b7100000000000000000000000000000000000000000000000000000000600052602160045260246000fd5b6002600083815260200190815260200160002060010160149054906101000a900460ff1660018111156135d3577f4e487b7100000000000000000000000000000000000000000000000000000000600052602160045260246000fd5b14613613576040517f08c379a000000000000000000000000000000000000000000000000000000000815260040161360a90615495565b60405180910390fd5b6002600085815260200190815260200160002060020160008473ffffffffffffffffffffffffffffffffffffffff1673ffffffffffffffffffffffffffffffffffffffff1681526020019081526020016000205491505092915050565b6136793361403b565b6136b8576040517f08c379a00000000000000000000000000000000000000000000000000000000081526004016136af90615515565b60405180910390fd5b84600060038111156136f3577f4e487b7100000000000000000000000000000000000000000000000000000000600052602160045260246000fd5b6009600083815260200190815260200160002060009054906101000a900460ff16600381111561374c577f4e487b7100000000000000000000000000000000000000000000000000000000600052602160045260246000fd5b1461378c576040517f08c379a0000000000000000000000000000000000000000000000000000000008152600401613783906154d5565b60405180910390fd5b866001808111156137c6577f4e487b7100000000000000000000000000000000000000000000000000000000600052602160045260246000fd5b6002600083815260200190815260200160002060010160149054906101000a900460ff166001811115613822577f4e487b7100000000000000000000000000000000000000000000000000000000600052602160045260246000fd5b14613862576040517f08c379a000000000000000000000000000000000000000000000000000000000815260040161385990615495565b60405180910390fd5b600073ffffffffffffffffffffffffffffffffffffffff168573ffffffffffffffffffffffffffffffffffffffff16141561389c57600080fd5b600073ffffffffffffffffffffffffffffffffffffffff168473ffffffffffffffffffffffffffffffffffffffff1614156138d657600080fd5b6000600260008a815260200190815260200160002060000160009054906101000a900473ffffffffffffffffffffffffffffffffffffffff1690508073ffffffffffffffffffffffffffffffffffffffff166370a08231306040518263ffffffff1660e01b815260040161394a919061511c565b60206040518083038186803b15801561396257600080fd5b505afa158015613976573d6000803e3d6000fd5b505050506040513d601f19601f8201168201806040525081019061399a9190614bb0565b8711156139dc576040517f08c379a00000000000000000000000000000000000000000000000000000000081526004016139d390615455565b60405180910390fd5b60006040518061010001604052808b815260200160045481526020018981526020018873ffffffffffffffffffffffffffffffffffffffff1681526020018773ffffffffffffffffffffffffffffffffffffffff168152602001868152602001600067ffffffffffffffff811115613a7d577f4e487b7100000000000000000000000000000000000000000000000000000000600052604160045260246000fd5b6040519080825280601f01601f191660200182016040528015613aaf5781602001600182028036833780820191505090505b50815260200142815250905080600860008b815260200190815260200160002060008201518160000155602082015181600101556040820151816002015560608201518160030160006101000a81548173ffffffffffffffffffffffffffffffffffffffff021916908373ffffffffffffffffffffffffffffffffffffffff16021790555060808201518160040160006101000a81548173ffffffffffffffffffffffffffffffffffffffff021916908373ffffffffffffffffffffffffffffffffffffffff16021790555060a0820151816005015560c0820151816006019080519060200190613ba1929190614712565b5060e082015181600701559050506001600960008b815260200190815260200160002060006101000a81548160ff02191690836003811115613c0c577f4e487b7100000000000000000000000000000000000000000000000000000000600052602160045260246000fd5b02179055507fc49c6a2e27722bfd7cff78433c963ac6ae93291acd415ce5009c1202c899bf8a8986604051613c42929190615256565b60405180910390a150505050505050505050565b60608160026003811115613c93577f4e487b7100000000000000000000000000000000000000000000000000000000600052602160045260246000fd5b6007600083815260200190815260200160002060009054906101000a900460ff166003811115613cec577f4e487b7100000000000000000000000000000000000000000000000000000000600052602160045260246000fd5b14613d2c576040517f08c379a0000000000000000000000000000000000000000000000000000000008152600401613d23906154b5565b60405180910390fd5b60006006600085815260200190815260200160002060405180610120016040529081600082015481526020016001820154815260200160028201548152602001600382015481526020016004820160009054906101000a900473ffffffffffffffffffffffffffffffffffffffff1673ffffffffffffffffffffffffffffffffffffffff1673ffffffffffffffffffffffffffffffffffffffff1681526020016005820160009054906101000a900473ffffffffffffffffffffffffffffffffffffffff1673ffffffffffffffffffffffffffffffffffffffff1673ffffffffffffffffffffffffffffffffffffffff16815260200160068201548152602001600782018054613e3b9061587b565b80601f0160208091040260200160405190810160405280929190818152602001828054613e679061587b565b8015613eb45780601f10613e8957610100808354040283529160200191613eb4565b820191906000526020600020905b815481529060010190602001808311613e9757829003601f168201915b5050505050815260200160088201548152505090508060e0015192505050919050565b613ee082610f59565b613ee9816140e0565b613ef383836141d4565b505050565b7f241ecf16d79d0f8dbfb92cbc07fe17840425976cf0667f022fe9877caa831b0881565b613f246140d8565b73ffffffffffffffffffffffffffffffffffffffff16613f42612e23565b73ffffffffffffffffffffffffffffffffffffffff1614613f98576040517f08c379a0000000000000000000000000000000000000000000000000000000008152600401613f8f906154f5565b60405180910390fd5b600073ffffffffffffffffffffffffffffffffffffffff168173ffffffffffffffffffffffffffffffffffffffff161415614008576040517f08c379a0000000000000000000000000000000000000000000000000000000008152600401613fff90615475565b60405180910390fd5b6000614012612e23565b905061401d826142b5565b61402a6000801b826141d4565b6140376000801b836140f4565b5050565b60006140677f241ecf16d79d0f8dbfb92cbc07fe17840425976cf0667f022fe9877caa831b0883612ec4565b9050919050565b60007f01ffc9a7000000000000000000000000000000000000000000000000000000007bffffffffffffffffffffffffffffffffffffffffffffffffffffffff1916827bffffffffffffffffffffffffffffffffffffffffffffffffffffffff1916149050919050565b600033905090565b6140f1816140ec6140d8565b61437b565b50565b6140fe8282612ec4565b6141d057600160008084815260200190815260200160002060000160008373ffffffffffffffffffffffffffffffffffffffff1673ffffffffffffffffffffffffffffffffffffffff16815260200190815260200160002060006101000a81548160ff0219169083151502179055506141756140d8565b73ffffffffffffffffffffffffffffffffffffffff168173ffffffffffffffffffffffffffffffffffffffff16837f2f8788117e7eff1d82e926ec794901d17c78024a50270940304540a733656f0d60405160405180910390a45b5050565b6141de8282612ec4565b156142b157600080600084815260200190815260200160002060000160008373ffffffffffffffffffffffffffffffffffffffff1673ffffffffffffffffffffffffffffffffffffffff16815260200190815260200160002060006101000a81548160ff0219169083151502179055506142566140d8565b73ffffffffffffffffffffffffffffffffffffffff168173ffffffffffffffffffffffffffffffffffffffff16837ff6391f5c32d9c69d2a47ea670b442974b53935d1edc7fd64eb21e047a839171b60405160405180910390a45b5050565b6000600160009054906101000a900473ffffffffffffffffffffffffffffffffffffffff16905081600160006101000a81548173ffffffffffffffffffffffffffffffffffffffff021916908373ffffffffffffffffffffffffffffffffffffffff1602179055508173ffffffffffffffffffffffffffffffffffffffff168173ffffffffffffffffffffffffffffffffffffffff167f8be0079c531659141344cd1fd0a4f28419497f9722a3daafe3b4186f6b6457e060405160405180910390a35050565b6143858282612ec4565b614414576143aa8173ffffffffffffffffffffffffffffffffffffffff166014614418565b6143b88360001c6020614418565b6040516020016143c99291906150e2565b6040516020818303038152906040526040517f08c379a000000000000000000000000000000000000000000000000000000000815260040161440b9190615413565b60405180910390fd5b5050565b60606000600283600261442b9190615695565b614435919061563f565b67ffffffffffffffff811115614474577f4e487b7100000000000000000000000000000000000000000000000000000000600052604160045260246000fd5b6040519080825280601f01601f1916602001820160405280156144a65781602001600182028036833780820191505090505b5090507f300000000000000000000000000000000000000000000000000000000000000081600081518110614504577f4e487b7100000000000000000000000000000000000000000000000000000000600052603260045260246000fd5b60200101907effffffffffffffffffffffffffffffffffffffffffffffffffffffffffffff1916908160001a9053507f78000000000000000000000000000000000000000000000000000000000000008160018151811061458e577f4e487b7100000000000000000000000000000000000000000000000000000000600052603260045260246000fd5b60200101907effffffffffffffffffffffffffffffffffffffffffffffffffffffffffffff1916908160001a905350600060018460026145ce9190615695565b6145d8919061563f565b90505b60018111156146c4577f3031323334353637383961626364656600000000000000000000000000000000600f861660108110614640577f4e487b7100000000000000000000000000000000000000000000000000000000600052603260045260246000fd5b1a60f81b82828151811061467d577f4e487b7100000000000000000000000000000000000000000000000000000000600052603260045260246000fd5b60200101907effffffffffffffffffffffffffffffffffffffffffffffffffffffffffffff1916908160001a905350600485901c9450806146bd90615851565b90506145db565b5060008414614708576040517f08c379a00000000000000000000000000000000000000000000000000000000081526004016146ff90615435565b60405180910390fd5b8091505092915050565b82805461471e9061587b565b90600052602060002090601f0160209004810192826147405760008555614787565b82601f1061475957805160ff1916838001178555614787565b82800160010185558215614787579182015b8281111561478657825182559160200191906001019061476b565b5b5090506147949190614798565b5090565b5b808211156147b1576000816000905550600101614799565b5090565b60006147c86147c3846155c1565b615590565b9050828152602081018484840111156147e057600080fd5b6147eb84828561580f565b509392505050565b600081359050614802816159d3565b92915050565b600081359050614817816159ea565b92915050565b60008151905061482c816159ea565b92915050565b60008135905061484181615a01565b92915050565b60008151905061485681615a01565b92915050565b60008135905061486b81615a18565b92915050565b600082601f83011261488257600080fd5b81356148928482602086016147b5565b91505092915050565b6000813590506148aa81615a2f565b92915050565b6000815190506148bf81615a2f565b92915050565b6000602082840312156148d757600080fd5b60006148e5848285016147f3565b91505092915050565b60006020828403121561490057600080fd5b600061490e84828501614808565b91505092915050565b60006020828403121561492957600080fd5b60006149378482850161481d565b91505092915050565b60006020828403121561495257600080fd5b600061496084828501614832565b91505092915050565b60006020828403121561497b57600080fd5b600061498984828501614847565b91505092915050565b600080604083850312156149a557600080fd5b60006149b385828601614832565b92505060206149c4858286016147f3565b9150509250929050565b60008060008060008060c087890312156149e757600080fd5b60006149f589828a01614832565b9650506020614a0689828a01614832565b9550506040614a1789828a0161489b565b9450506060614a2889828a016147f3565b9350506080614a3989828a016147f3565b92505060a0614a4a89828a01614832565b9150509295509295509295565b600080600080600060a08688031215614a6f57600080fd5b6000614a7d88828901614832565b9550506020614a8e88828901614832565b9450506040614a9f8882890161489b565b9350506060614ab0888289016147f3565b9250506080614ac188828901614832565b9150509295509295909350565b60008060408385031215614ae157600080fd5b6000614aef85828601614832565b925050602083013567ffffffffffffffff811115614b0c57600080fd5b614b1885828601614871565b9150509250929050565b60008060408385031215614b3557600080fd5b6000614b4385828601614832565b9250506020614b548582860161489b565b9150509250929050565b600060208284031215614b7057600080fd5b6000614b7e8482850161485c565b91505092915050565b600060208284031215614b9957600080fd5b6000614ba78482850161489b565b91505092915050565b600060208284031215614bc257600080fd5b6000614bd0848285016148b0565b91505092915050565b614be281615723565b82525050565b614bf9614bf482615723565b6158ad565b82525050565b614c0881615735565b82525050565b614c1781615741565b82525050565b6000614c28826155f1565b614c328185615607565b9350614c4281856020860161581e565b614c4b8161598d565b840191505092915050565b6000614c61826155f1565b614c6b8185615618565b9350614c7b81856020860161581e565b80840191505092915050565b614c90816157c7565b82525050565b614c9f816157eb565b82525050565b614cae816157fd565b82525050565b6000614cbf826155fc565b614cc98185615623565b9350614cd981856020860161581e565b614ce28161598d565b840191505092915050565b6000614cf8826155fc565b614d028185615634565b9350614d1281856020860161581e565b80840191505092915050565b6000614d2b602083615623565b91507f537472696e67733a20686578206c656e67746820696e73756666696369656e746000830152602082019050919050565b6000614d6b600483615623565b91507f45303033000000000000000000000000000000000000000000000000000000006000830152602082019050919050565b6000614dab602683615623565b91507f4f776e61626c653a206e6577206f776e657220697320746865207a65726f206160008301527f64647265737300000000000000000000000000000000000000000000000000006020830152604082019050919050565b6000614e11600483615623565b91507f45303034000000000000000000000000000000000000000000000000000000006000830152602082019050919050565b6000614e51600483615623565b91507f45303031000000000000000000000000000000000000000000000000000000006000830152602082019050919050565b6000614e91600483615623565b91507f45303032000000000000000000000000000000000000000000000000000000006000830152602082019050919050565b6000614ed1602083615623565b91507f4f776e61626c653a2063616c6c6572206973206e6f7420746865206f776e65726000830152602082019050919050565b6000614f11602883615623565b91507f4f6e6c79206d616e61676572732063616e2063616c6c2e7c4e4f545f4d414e4160008301527f4745525f524f4c4c0000000000000000000000000000000000000000000000006020830152604082019050919050565b6000614f77601783615634565b91507f416363657373436f6e74726f6c3a206163636f756e74200000000000000000006000830152601782019050919050565b6000614fb7600483615623565b91507f45303035000000000000000000000000000000000000000000000000000000006000830152602082019050919050565b6000614ff7601183615634565b91507f206973206d697373696e6720726f6c65200000000000000000000000000000006000830152601182019050919050565b6000615037602f83615623565b91507f416363657373436f6e74726f6c3a2063616e206f6e6c792072656e6f756e636560008301527f20726f6c657320666f722073656c6600000000000000000000000000000000006020830152604082019050919050565b615099816157bd565b82525050565b60006150ab8285614be8565b6014820191506150bb8284614be8565b6014820191508190509392505050565b60006150d78284614c56565b915081905092915050565b60006150ed82614f6a565b91506150f98285614ced565b915061510482614fea565b91506151108284614ced565b91508190509392505050565b60006020820190506151316000830184614bd9565b92915050565b600060408201905061514c6000830185614bd9565b6151596020830184614bd9565b9392505050565b60006060820190506151756000830186614bd9565b6151826020830185614bd9565b61518f6040830184615090565b949350505050565b60006040820190506151ac6000830185614bd9565b6151b96020830184615090565b9392505050565b60006020820190506151d56000830184614bff565b92915050565b60006020820190506151f06000830184614c0e565b92915050565b600060408201905061520b6000830185614c0e565b6152186020830184614bd9565b9392505050565b60006060820190506152346000830186614c0e565b6152416020830185614bd9565b61524e6040830184615090565b949350505050565b600060408201905061526b6000830185614c0e565b6152786020830184614c0e565b9392505050565b60006040820190506152946000830185614c0e565b81810360208301526152a68184614c1d565b90509392505050565b600060208201905081810360008301526152c98184614c1d565b905092915050565b60006060820190506152e66000830186614c87565b6152f36020830185614bd9565b6153006040830184614ca5565b949350505050565b60006101008201905061531e600083018b614c96565b61532b602083018a614c0e565b6153386040830189615090565b6153456060830188615090565b6153526080830187614bd9565b61535f60a0830186614bd9565b61536c60c0830185614c0e565b61537960e0830184615090565b9998505050505050505050565b60006101208201905061539c600083018c614c96565b6153a9602083018b614c0e565b6153b6604083018a615090565b6153c36060830189615090565b6153d06080830188615090565b6153dd60a0830187614bd9565b6153ea60c0830186614bd9565b6153f760e0830185614c0e565b615405610100830184615090565b9a9950505050505050505050565b6000602082019050818103600083015261542d8184614cb4565b905092915050565b6000602082019050818103600083015261544e81614d1e565b9050919050565b6000602082019050818103600083015261546e81614d5e565b9050919050565b6000602082019050818103600083015261548e81614d9e565b9050919050565b600060208201905081810360008301526154ae81614e04565b9050919050565b600060208201905081810360008301526154ce81614e44565b9050919050565b600060208201905081810360008301526154ee81614e84565b9050919050565b6000602082019050818103600083015261550e81614ec4565b9050919050565b6000602082019050818103600083015261552e81614f04565b9050919050565b6000602082019050818103600083015261554e81614faa565b9050919050565b6000602082019050818103600083015261556e8161502a565b9050919050565b600060208201905061558a6000830184615090565b92915050565b6000604051905081810181811067ffffffffffffffff821117156155b7576155b661595e565b5b8060405250919050565b600067ffffffffffffffff8211156155dc576155db61595e565b5b601f19601f8301169050602081019050919050565b600081519050919050565b600081519050919050565b600082825260208201905092915050565b600081905092915050565b600082825260208201905092915050565b600081905092915050565b600061564a826157bd565b9150615655836157bd565b9250827fffffffffffffffffffffffffffffffffffffffffffffffffffffffffffffffff0382111561568a576156896158d1565b5b828201905092915050565b60006156a0826157bd565b91506156ab836157bd565b9250817fffffffffffffffffffffffffffffffffffffffffffffffffffffffffffffffff04831182151516156156e4576156e36158d1565b5b828202905092915050565b60006156fa826157bd565b9150615705836157bd565b925082821015615718576157176158d1565b5b828203905092915050565b600061572e8261579d565b9050919050565b60008115159050919050565b6000819050919050565b60007fffffffff0000000000000000000000000000000000000000000000000000000082169050919050565b6000819050615785826159ab565b919050565b6000819050615798826159bf565b919050565b600073ffffffffffffffffffffffffffffffffffffffff82169050919050565b6000819050919050565b60006157d2826157d9565b9050919050565b60006157e48261579d565b9050919050565b60006157f682615777565b9050919050565b60006158088261578a565b9050919050565b82818337600083830152505050565b60005b8381101561583c578082015181840152602081019050615821565b8381111561584b576000848401525b50505050565b600061585c826157bd565b915060008214156158705761586f6158d1565b5b600182039050919050565b6000600282049050600182168061589357607f821691505b602082108114156158a7576158a661592f565b5b50919050565b60006158b8826158bf565b9050919050565b60006158ca8261599e565b9050919050565b7f4e487b7100000000000000000000000000000000000000000000000000000000600052601160045260246000fd5b7f4e487b7100000000000000000000000000000000000000000000000000000000600052602160045260246000fd5b7f4e487b7100000000000000000000000000000000000000000000000000000000600052602260045260246000fd5b7f4e487b7100000000000000000000000000000000000000000000000000000000600052604160045260246000fd5b6000601f19601f8301169050919050565b60008160601b9050919050565b600481106159bc576159bb615900565b5b50565b600281106159d0576159cf615900565b5b50565b6159dc81615723565b81146159e757600080fd5b50565b6159f381615735565b81146159fe57600080fd5b50565b615a0a81615741565b8114615a1557600080fd5b50565b615a218161574b565b8114615a2c57600080fd5b50565b615a38816157bd565b8114615a4357600080fd5b5056fea26469706673582212203ad70ba5bf417c3f61de732bf689f2f8df4529bbba26758ce682ff7b0d27cc9064736f6c63430008000033",
  "linkReferences": {},
  "deployedLinkReferences": {}
}